{
  "_format": "hh-sol-artifact-1",
  "contractName": "Pact",
  "sourceName": "contracts/Pact.sol",
  "abi": [
    {
      "inputs": [
        {
          "internalType": "address payable",
          "name": "_wallet",
          "type": "address"
        },
        {
          "internalType": "address",
          "name": "_host",
          "type": "address"
        },
        {
          "internalType": "uint256",
          "name": "_id",
          "type": "uint256"
        },
        {
          "internalType": "string",
          "name": "_inviteCode",
          "type": "string"
        }
      ],
      "stateMutability": "nonpayable",
      "type": "constructor"
    },
    {
      "anonymous": false,
      "inputs": [
        {
          "indexed": true,
          "internalType": "bytes32",
          "name": "id",
          "type": "bytes32"
        }
      ],
      "name": "ChainlinkCancelled",
      "type": "event"
    },
    {
      "anonymous": false,
      "inputs": [
        {
          "indexed": true,
          "internalType": "bytes32",
          "name": "id",
          "type": "bytes32"
        }
      ],
      "name": "ChainlinkFulfilled",
      "type": "event"
    },
    {
      "anonymous": false,
      "inputs": [
        {
          "indexed": true,
          "internalType": "bytes32",
          "name": "id",
          "type": "bytes32"
        }
      ],
      "name": "ChainlinkRequested",
      "type": "event"
    },
    {
      "anonymous": false,
      "inputs": [
        {
          "indexed": true,
          "internalType": "address",
          "name": "from",
          "type": "address"
        },
        {
          "indexed": false,
          "internalType": "uint256",
          "name": "value",
          "type": "uint256"
        }
      ],
      "name": "Deposited",
      "type": "event"
    },
    {
      "anonymous": false,
      "inputs": [],
      "name": "Finished",
      "type": "event"
    },
    {
      "anonymous": false,
      "inputs": [
        {
          "indexed": true,
          "internalType": "address",
          "name": "friend",
          "type": "address"
        }
      ],
      "name": "FriendJoined",
      "type": "event"
    },
    {
      "anonymous": false,
      "inputs": [
        {
          "indexed": true,
          "internalType": "address",
          "name": "previousOwner",
          "type": "address"
        },
        {
          "indexed": true,
          "internalType": "address",
          "name": "newOwner",
          "type": "address"
        }
      ],
      "name": "OwnershipTransferred",
      "type": "event"
    },
    {
      "anonymous": false,
      "inputs": [
        {
          "indexed": false,
          "internalType": "enum Pact.PactState",
          "name": "state",
          "type": "uint8"
        }
      ],
      "name": "PactStatusChanged",
      "type": "event"
    },
    {
      "anonymous": false,
      "inputs": [
        {
          "indexed": true,
          "internalType": "address",
          "name": "friend",
          "type": "address"
        },
        {
          "indexed": false,
          "internalType": "uint256",
          "name": "totalDistance",
          "type": "uint256"
        }
      ],
      "name": "ProgressUpdated",
      "type": "event"
    },
    {
      "anonymous": false,
      "inputs": [
        {
          "indexed": true,
          "internalType": "bytes32",
          "name": "role",
          "type": "bytes32"
        },
        {
          "indexed": true,
          "internalType": "bytes32",
          "name": "previousAdminRole",
          "type": "bytes32"
        },
        {
          "indexed": true,
          "internalType": "bytes32",
          "name": "newAdminRole",
          "type": "bytes32"
        }
      ],
      "name": "RoleAdminChanged",
      "type": "event"
    },
    {
      "anonymous": false,
      "inputs": [
        {
          "indexed": true,
          "internalType": "bytes32",
          "name": "role",
          "type": "bytes32"
        },
        {
          "indexed": true,
          "internalType": "address",
          "name": "account",
          "type": "address"
        },
        {
          "indexed": true,
          "internalType": "address",
          "name": "sender",
          "type": "address"
        }
      ],
      "name": "RoleGranted",
      "type": "event"
    },
    {
      "anonymous": false,
      "inputs": [
        {
          "indexed": true,
          "internalType": "bytes32",
          "name": "role",
          "type": "bytes32"
        },
        {
          "indexed": true,
          "internalType": "address",
          "name": "account",
          "type": "address"
        },
        {
          "indexed": true,
          "internalType": "address",
          "name": "sender",
          "type": "address"
        }
      ],
      "name": "RoleRevoked",
      "type": "event"
    },
    {
      "inputs": [],
      "name": "DEFAULT_ADMIN_ROLE",
      "outputs": [
        {
          "internalType": "bytes32",
          "name": "",
          "type": "bytes32"
        }
      ],
      "stateMutability": "view",
      "type": "function"
    },
    {
      "inputs": [],
      "name": "FRIEND_ROLE",
      "outputs": [
        {
          "internalType": "bytes32",
          "name": "",
          "type": "bytes32"
        }
      ],
      "stateMutability": "view",
      "type": "function"
    },
    {
      "inputs": [],
      "name": "HOST_ROLE",
      "outputs": [
        {
          "internalType": "bytes32",
          "name": "",
          "type": "bytes32"
        }
      ],
      "stateMutability": "view",
      "type": "function"
    },
    {
      "inputs": [
        {
          "internalType": "address",
          "name": "user",
          "type": "address"
        },
        {
          "internalType": "uint256",
          "name": "timestamp",
          "type": "uint256"
        },
        {
          "internalType": "uint256",
          "name": "distance",
          "type": "uint256"
        }
      ],
      "name": "_updateProgress",
      "outputs": [],
      "stateMutability": "nonpayable",
      "type": "function"
    },
    {
      "inputs": [
        {
          "internalType": "address",
          "name": "participant",
          "type": "address"
        }
      ],
      "name": "addParticipant",
      "outputs": [],
      "stateMutability": "nonpayable",
      "type": "function"
    },
    {
      "inputs": [
        {
          "internalType": "address",
          "name": "_address",
          "type": "address"
        }
      ],
      "name": "addressToString",
      "outputs": [
        {
          "internalType": "string",
          "name": "_uintAsString",
          "type": "string"
        }
      ],
      "stateMutability": "pure",
      "type": "function"
    },
    {
      "inputs": [],
      "name": "finishPact",
      "outputs": [],
      "stateMutability": "nonpayable",
      "type": "function"
    },
    {
      "inputs": [
        {
          "internalType": "bytes32",
          "name": "requestId",
          "type": "bytes32"
        },
        {
          "internalType": "uint256",
          "name": "distance",
          "type": "uint256"
        }
      ],
      "name": "fulfill",
      "outputs": [],
      "stateMutability": "nonpayable",
      "type": "function"
    },
    {
      "inputs": [
        {
          "internalType": "bytes32",
          "name": "requestId",
          "type": "bytes32"
        }
      ],
      "name": "fulfillAlarm",
      "outputs": [],
      "stateMutability": "nonpayable",
      "type": "function"
    },
    {
      "inputs": [],
      "name": "getConditions",
      "outputs": [
        {
          "internalType": "uint256",
          "name": "",
          "type": "uint256"
        },
        {
          "internalType": "uint256",
          "name": "",
          "type": "uint256"
        },
        {
          "internalType": "uint256",
          "name": "",
          "type": "uint256"
        },
        {
          "internalType": "uint256",
          "name": "",
          "type": "uint256"
        }
      ],
      "stateMutability": "view",
      "type": "function"
    },
    {
      "inputs": [],
      "name": "getEscrowAddress",
      "outputs": [
        {
          "internalType": "address",
          "name": "",
          "type": "address"
        }
      ],
      "stateMutability": "view",
      "type": "function"
    },
    {
      "inputs": [],
      "name": "getHost",
      "outputs": [
        {
          "internalType": "address",
          "name": "",
          "type": "address"
        }
      ],
      "stateMutability": "view",
      "type": "function"
    },
    {
      "inputs": [],
      "name": "getInviteCode",
      "outputs": [
        {
          "internalType": "string",
          "name": "",
          "type": "string"
        }
      ],
      "stateMutability": "nonpayable",
      "type": "function"
    },
    {
      "inputs": [],
      "name": "getParticipants",
      "outputs": [
        {
          "internalType": "address[]",
          "name": "",
          "type": "address[]"
        }
      ],
      "stateMutability": "view",
      "type": "function"
    },
    {
      "inputs": [
        {
          "internalType": "address",
          "name": "user",
          "type": "address"
        }
      ],
      "name": "getProgress",
      "outputs": [
        {
          "internalType": "uint256",
          "name": "",
          "type": "uint256"
        },
        {
          "internalType": "uint256",
          "name": "",
          "type": "uint256"
        }
      ],
      "stateMutability": "view",
      "type": "function"
    },
    {
      "inputs": [
        {
          "internalType": "bytes32",
          "name": "role",
          "type": "bytes32"
        }
      ],
      "name": "getRoleAdmin",
      "outputs": [
        {
          "internalType": "bytes32",
          "name": "",
          "type": "bytes32"
        }
      ],
      "stateMutability": "view",
      "type": "function"
    },
    {
      "inputs": [
        {
          "internalType": "bytes32",
          "name": "role",
          "type": "bytes32"
        },
        {
          "internalType": "uint256",
          "name": "index",
          "type": "uint256"
        }
      ],
      "name": "getRoleMember",
      "outputs": [
        {
          "internalType": "address",
          "name": "",
          "type": "address"
        }
      ],
      "stateMutability": "view",
      "type": "function"
    },
    {
      "inputs": [
        {
          "internalType": "bytes32",
          "name": "role",
          "type": "bytes32"
        }
      ],
      "name": "getRoleMemberCount",
      "outputs": [
        {
          "internalType": "uint256",
          "name": "",
          "type": "uint256"
        }
      ],
      "stateMutability": "view",
      "type": "function"
    },
    {
      "inputs": [
        {
          "internalType": "bytes32",
          "name": "role",
          "type": "bytes32"
        },
        {
          "internalType": "address",
          "name": "account",
          "type": "address"
        }
      ],
      "name": "grantRole",
      "outputs": [],
      "stateMutability": "nonpayable",
      "type": "function"
    },
    {
      "inputs": [
        {
          "internalType": "bytes32",
          "name": "role",
          "type": "bytes32"
        },
        {
          "internalType": "address",
          "name": "account",
          "type": "address"
        }
      ],
      "name": "hasRole",
      "outputs": [
        {
          "internalType": "bool",
          "name": "",
          "type": "bool"
        }
      ],
      "stateMutability": "view",
      "type": "function"
    },
    {
      "inputs": [],
      "name": "host",
      "outputs": [
        {
          "internalType": "address",
          "name": "",
          "type": "address"
        }
      ],
      "stateMutability": "view",
      "type": "function"
    },
    {
      "inputs": [],
      "name": "id",
      "outputs": [
        {
          "internalType": "uint256",
          "name": "",
          "type": "uint256"
        }
      ],
      "stateMutability": "view",
      "type": "function"
    },
    {
      "inputs": [],
      "name": "inviteCode",
      "outputs": [
        {
          "internalType": "string",
          "name": "",
          "type": "string"
        }
      ],
      "stateMutability": "view",
      "type": "function"
    },
    {
      "inputs": [],
      "name": "isPactComplete",
      "outputs": [
        {
          "internalType": "bool",
          "name": "",
          "type": "bool"
        }
      ],
      "stateMutability": "view",
      "type": "function"
    },
    {
      "inputs": [],
      "name": "makePledge",
      "outputs": [],
      "stateMutability": "payable",
      "type": "function"
    },
    {
      "inputs": [],
      "name": "owner",
      "outputs": [
        {
          "internalType": "address",
          "name": "",
          "type": "address"
        }
      ],
      "stateMutability": "view",
      "type": "function"
    },
    {
      "inputs": [
        {
          "internalType": "uint256",
          "name": "",
          "type": "uint256"
        }
      ],
      "name": "participants",
      "outputs": [
        {
          "internalType": "address",
          "name": "",
          "type": "address"
        }
      ],
      "stateMutability": "view",
      "type": "function"
    },
    {
      "inputs": [],
      "name": "renounceOwnership",
      "outputs": [],
      "stateMutability": "nonpayable",
      "type": "function"
    },
    {
      "inputs": [
        {
          "internalType": "bytes32",
          "name": "role",
          "type": "bytes32"
        },
        {
          "internalType": "address",
          "name": "account",
          "type": "address"
        }
      ],
      "name": "renounceRole",
      "outputs": [],
      "stateMutability": "nonpayable",
      "type": "function"
    },
    {
      "inputs": [
        {
          "internalType": "address",
          "name": "user",
          "type": "address"
        },
        {
          "internalType": "uint256",
          "name": "timestamp",
          "type": "uint256"
        }
      ],
      "name": "requestStravaData",
      "outputs": [
        {
          "internalType": "bytes32",
          "name": "requestId",
          "type": "bytes32"
        }
      ],
      "stateMutability": "nonpayable",
      "type": "function"
    },
    {
      "inputs": [
        {
          "internalType": "bytes32",
          "name": "role",
          "type": "bytes32"
        },
        {
          "internalType": "address",
          "name": "account",
          "type": "address"
        }
      ],
      "name": "revokeRole",
      "outputs": [],
      "stateMutability": "nonpayable",
      "type": "function"
    },
    {
      "inputs": [
        {
          "internalType": "uint256",
          "name": "endDateUtc",
          "type": "uint256"
        }
      ],
      "name": "setAlarm",
      "outputs": [],
      "stateMutability": "nonpayable",
      "type": "function"
    },
    {
      "inputs": [
        {
          "internalType": "uint256",
          "name": "_minPledge",
          "type": "uint256"
        },
        {
          "internalType": "uint256",
          "name": "_totalMiles",
          "type": "uint256"
        },
        {
          "internalType": "uint256",
          "name": "_endDateUtc",
          "type": "uint256"
        },
        {
          "internalType": "uint256",
          "name": "_daysPerCheck",
          "type": "uint256"
        }
      ],
      "name": "setConditions",
      "outputs": [],
      "stateMutability": "nonpayable",
      "type": "function"
    },
    {
      "inputs": [],
      "name": "startPact",
      "outputs": [],
      "stateMutability": "nonpayable",
      "type": "function"
    },
    {
      "inputs": [],
      "name": "state",
      "outputs": [
        {
          "internalType": "enum Pact.PactState",
          "name": "",
          "type": "uint8"
        }
      ],
      "stateMutability": "view",
      "type": "function"
    },
    {
      "inputs": [
        {
          "internalType": "address",
          "name": "newOwner",
          "type": "address"
        }
      ],
      "name": "transferOwnership",
      "outputs": [],
      "stateMutability": "nonpayable",
      "type": "function"
    },
    {
      "inputs": [],
      "name": "updateProgress",
      "outputs": [],
      "stateMutability": "nonpayable",
      "type": "function"
    },
    {
      "inputs": [
        {
          "internalType": "address payable",
          "name": "payee",
          "type": "address"
        }
      ],
      "name": "withdraw",
      "outputs": [],
      "stateMutability": "nonpayable",
      "type": "function"
    }
  ],
  "bytecode": "0x608060405260016006556201518060155573a36085f69e2889c224210f603d836748e7dc0088601660006101000a81548173ffffffffffffffffffffffffffffffffffffffff021916908373ffffffffffffffffffffffffffffffffffffffff160217905550732f90a6d021db21e1b2a077c5a37b3c7e75d15b7e601760006101000a81548173ffffffffffffffffffffffffffffffffffffffff021916908373ffffffffffffffffffffffffffffffffffffffff160217905550348015620000c757600080fd5b5060405162005f1a38038062005f1a83398181016040526080811015620000ed57600080fd5b81019080805190602001909291908051906020019092919080519060200190929190805160405193929190846401000000008211156200012c57600080fd5b838201915060208201858111156200014357600080fd5b82518660018202830111640100000000821117156200016157600080fd5b8083526020830192505050908051906020019080838360005b83811015620001975780820151818401526020810190506200017a565b50505050905090810190601f168015620001c55780820380516001836020036101000a031916815260200191505b50604052505050601660009054906101000a900473ffffffffffffffffffffffffffffffffffffffff16601760009054906101000a900473ffffffffffffffffffffffffffffffffffffffff16601660009054906101000a900473ffffffffffffffffffffffffffffffffffffffff16601760009054906101000a900473ffffffffffffffffffffffffffffffffffffffff1660006200026a6200066260201b60201c565b9050806000806101000a81548173ffffffffffffffffffffffffffffffffffffffff021916908373ffffffffffffffffffffffffffffffffffffffff1602179055508073ffffffffffffffffffffffffffffffffffffffff16600073ffffffffffffffffffffffffffffffffffffffff167f8be0079c531659141344cd1fd0a4f28419497f9722a3daafe3b4186f6b6457e060405160405180910390a35062000319826200066a60201b60201c565b80600860006101000a81548173ffffffffffffffffffffffffffffffffffffffff021916908373ffffffffffffffffffffffffffffffffffffffff1602179055507f343134613463633937386431343863336164643534613163306233353334633960098190555067016345785d8a0000600a819055505050620003a3826200066a60201b60201c565b80600b60006101000a81548173ffffffffffffffffffffffffffffffffffffffff021916908373ffffffffffffffffffffffffffffffffffffffff1602179055507f6137616237306435363164333465623439653962313631326664326530343462600c81905550670de0b6b3a7640000600d81905550505083600e60006101000a81548173ffffffffffffffffffffffffffffffffffffffff021916908373ffffffffffffffffffffffffffffffffffffffff16021790555082600f60006101000a81548173ffffffffffffffffffffffffffffffffffffffff021916908373ffffffffffffffffffffffffffffffffffffffff16021790555081601381905550600e60009054906101000a900473ffffffffffffffffffffffffffffffffffffffff16604051620004d6906200083d565b808273ffffffffffffffffffffffffffffffffffffffff168152602001915050604051809103906000f08015801562000513573d6000803e3d6000fd5b50601460006101000a81548173ffffffffffffffffffffffffffffffffffffffff021916908373ffffffffffffffffffffffffffffffffffffffff16021790555080601290805190602001906200056c9291906200084b565b5060006014806101000a81548160ff021916908360028111156200058c57fe5b0217905550620005c37fffea912cee438c2ace68bb665a205db5afc1aaf31713688b377348fe4bfc04f584620006ae60201b60201c565b620005f57fdc601cd343c9e7d418b48b40f3a0ff8434a08eca1bd022ca70b09c036310b0aa84620006ae60201b60201c565b6011839080600181540180825580915050600190039060005260206000200160009091909190916101000a81548173ffffffffffffffffffffffffffffffffffffffff021916908373ffffffffffffffffffffffffffffffffffffffff16021790555050505050620008f1565b600033905090565b80600460006101000a81548173ffffffffffffffffffffffffffffffffffffffff021916908373ffffffffffffffffffffffffffffffffffffffff16021790555050565b620006c08282620006c460201b60201c565b5050565b620006f381600160008581526020019081526020016000206000016200076860201b62002fe21790919060201c565b156200076457620007096200066260201b60201c565b73ffffffffffffffffffffffffffffffffffffffff168173ffffffffffffffffffffffffffffffffffffffff16837f2f8788117e7eff1d82e926ec794901d17c78024a50270940304540a733656f0d60405160405180910390a45b5050565b600062000798836000018373ffffffffffffffffffffffffffffffffffffffff1660001b620007a060201b60201c565b905092915050565b6000620007b483836200081a60201b60201c565b6200080f57826000018290806001815401808255809150506001900390600052602060002001600090919091909150558260000180549050836001016000848152602001908152602001600020819055506001905062000814565b600090505b92915050565b600080836001016000848152602001908152602001600020541415905092915050565b6114f48062004a2683390190565b828054600181600116156101000203166002900490600052602060002090601f016020900481019282601f106200088e57805160ff1916838001178555620008bf565b82800160010185558215620008bf579182015b82811115620008be578251825591602001919060010190620008a1565b5b509050620008ce9190620008d2565b5090565b5b80821115620008ed576000816000905550600101620008d3565b5090565b61412580620009016000396000f3fe6080604052600436106102255760003560e01c80639010d07c11610123578063c79effff116100ab578063e6ee85801161006f578063e6ee858014610c94578063ec76550814610c9e578063f2fde38b14610ccb578063f437bc5914610d1c578063f60884b114610d5d57610225565b8063c79effff14610aef578063ca15c87314610b5e578063d547741f14610bad578063d913a7f814610c08578063dfafe10f14610c4357610225565b8063a217fddf116100f2578063a217fddf146109bc578063aef76501146109e7578063af640d0f14610a53578063b62c06aa14610a7e578063c19d93fb14610ab957610225565b80639010d07c1461085857806391d14854146108c757806396b0cb2414610938578063a007a5621461099157610225565b806351cff8d9116101b1578063715018a611610175578063715018a6146107195780637389e955146107305780637a058522146107475780637c123627146107d75780638da5cb5b1461081757610225565b806351cff8d9146105505780635aa68ac0146105a15780635e57966d1461060d5780636397a90d146106d757806368e978b1146106ee57610225565b806334e082ba116101f857806334e082ba1461035657806335c1d349146103bb57806336568abe146104205780634357855e1461047b5780634665ad52146104c057610225565b8063122fd48a1461022a57806320bc44251461026b578063248a9ca3146102ac5780632f2ff15d146102fb575b600080fd5b34801561023657600080fd5b5061023f610d74565b604051808273ffffffffffffffffffffffffffffffffffffffff16815260200191505060405180910390f35b34801561027757600080fd5b50610280610d9e565b604051808273ffffffffffffffffffffffffffffffffffffffff16815260200191505060405180910390f35b3480156102b857600080fd5b506102e5600480360360208110156102cf57600080fd5b8101908080359060200190929190505050610e64565b6040518082815260200191505060405180910390f35b34801561030757600080fd5b506103546004803603604081101561031e57600080fd5b8101908080359060200190929190803573ffffffffffffffffffffffffffffffffffffffff169060200190929190505050610e84565b005b34801561036257600080fd5b506103b96004803603606081101561037957600080fd5b81019080803573ffffffffffffffffffffffffffffffffffffffff1690602001909291908035906020019092919080359060200190929190505050610f0e565b005b3480156103c757600080fd5b506103f4600480360360208110156103de57600080fd5b81019080803590602001909291905050506113a2565b604051808273ffffffffffffffffffffffffffffffffffffffff16815260200191505060405180910390f35b34801561042c57600080fd5b506104796004803603604081101561044357600080fd5b8101908080359060200190929190803573ffffffffffffffffffffffffffffffffffffffff1690602001909291905050506113de565b005b34801561048757600080fd5b506104be6004803603604081101561049e57600080fd5b810190808035906020019092919080359060200190929190505050611477565b005b3480156104cc57600080fd5b506104d56115e8565b6040518080602001828103825283818151815260200191508051906020019080838360005b838110156105155780820151818401526020810190506104fa565b50505050905090810190601f1680156105425780820380516001836020036101000a031916815260200191505b509250505060405180910390f35b34801561055c57600080fd5b5061059f6004803603602081101561057357600080fd5b81019080803573ffffffffffffffffffffffffffffffffffffffff169060200190929190505050611686565b005b3480156105ad57600080fd5b506105b661172c565b6040518080602001828103825283818151815260200191508051906020019060200280838360005b838110156105f95780820151818401526020810190506105de565b505050509050019250505060405180910390f35b34801561061957600080fd5b5061065c6004803603602081101561063057600080fd5b81019080803573ffffffffffffffffffffffffffffffffffffffff169060200190929190505050611856565b6040518080602001828103825283818151815260200191508051906020019080838360005b8381101561069c578082015181840152602081019050610681565b50505050905090810190601f1680156106c95780820380516001836020036101000a031916815260200191505b509250505060405180910390f35b3480156106e357600080fd5b506106ec6119b7565b005b3480156106fa57600080fd5b50610703611ba8565b6040518082815260200191505060405180910390f35b34801561072557600080fd5b5061072e611bcc565b005b34801561073c57600080fd5b50610745611d39565b005b34801561075357600080fd5b5061075c611e42565b6040518080602001828103825283818151815260200191508051906020019080838360005b8381101561079c578082015181840152602081019050610781565b50505050905090810190601f1680156107c95780820380516001836020036101000a031916815260200191505b509250505060405180910390f35b3480156107e357600080fd5b506107ec611f80565b6040518085815260200184815260200183815260200182815260200194505050505060405180910390f35b34801561082357600080fd5b5061082c611fa0565b604051808273ffffffffffffffffffffffffffffffffffffffff16815260200191505060405180910390f35b34801561086457600080fd5b5061089b6004803603604081101561087b57600080fd5b810190808035906020019092919080359060200190929190505050611fc9565b604051808273ffffffffffffffffffffffffffffffffffffffff16815260200191505060405180910390f35b3480156108d357600080fd5b50610920600480360360408110156108ea57600080fd5b8101908080359060200190929190803573ffffffffffffffffffffffffffffffffffffffff169060200190929190505050611ffb565b60405180821515815260200191505060405180910390f35b34801561094457600080fd5b5061098f6004803603608081101561095b57600080fd5b810190808035906020019092919080359060200190929190803590602001909291908035906020019092919050505061202d565b005b34801561099d57600080fd5b506109a6612171565b6040518082815260200191505060405180910390f35b3480156109c857600080fd5b506109d1612195565b6040518082815260200191505060405180910390f35b3480156109f357600080fd5b50610a3660048036036020811015610a0a57600080fd5b81019080803573ffffffffffffffffffffffffffffffffffffffff16906020019092919050505061219c565b604051808381526020018281526020019250505060405180910390f35b348015610a5f57600080fd5b50610a686122c4565b6040518082815260200191505060405180910390f35b348015610a8a57600080fd5b50610ab760048036036020811015610aa157600080fd5b81019080803590602001909291905050506122ca565b005b348015610ac557600080fd5b50610ace6123f1565b60405180826002811115610ade57fe5b815260200191505060405180910390f35b348015610afb57600080fd5b50610b4860048036036040811015610b1257600080fd5b81019080803573ffffffffffffffffffffffffffffffffffffffff16906020019092919080359060200190929190505050612402565b6040518082815260200191505060405180910390f35b348015610b6a57600080fd5b50610b9760048036036020811015610b8157600080fd5b81019080803590602001909291905050506124f6565b6040518082815260200191505060405180910390f35b348015610bb957600080fd5b50610c0660048036036040811015610bd057600080fd5b8101908080359060200190929190803573ffffffffffffffffffffffffffffffffffffffff16906020019092919050505061251d565b005b348015610c1457600080fd5b50610c4160048036036020811015610c2b57600080fd5b81019080803590602001909291905050506125a7565b005b348015610c4f57600080fd5b50610c9260048036036020811015610c6657600080fd5b81019080803573ffffffffffffffffffffffffffffffffffffffff1690602001909291905050506126f2565b005b610c9c612a08565b005b348015610caa57600080fd5b50610cb3612cd3565b60405180821515815260200191505060405180910390f35b348015610cd757600080fd5b50610d1a60048036036020811015610cee57600080fd5b81019080803573ffffffffffffffffffffffffffffffffffffffff169060200190929190505050612ce2565b005b348015610d2857600080fd5b50610d31612ed4565b604051808273ffffffffffffffffffffffffffffffffffffffff16815260200191505060405180910390f35b348015610d6957600080fd5b50610d72612efa565b005b6000601460009054906101000a900473ffffffffffffffffffffffffffffffffffffffff16905090565b6000610dca7fdc601cd343c9e7d418b48b40f3a0ff8434a08eca1bd022ca70b09c036310b0aa33611ffb565b610e3c576040517f08c379a000000000000000000000000000000000000000000000000000000000815260040180806020018281038252601c8152602001807f596f7520617265206e6f742070617274206f662074686520706163740000000081525060200191505060405180910390fd5b600f60009054906101000a900473ffffffffffffffffffffffffffffffffffffffff16905090565b600060016000838152602001908152602001600020600201549050919050565b610eab6001600084815260200190815260200160002060020154610ea6613012565b611ffb565b610f00576040517f08c379a000000000000000000000000000000000000000000000000000000000815260040180806020018281038252602f815260200180613f48602f913960400191505060405180910390fd5b610f0a828261301a565b5050565b610f16613012565b73ffffffffffffffffffffffffffffffffffffffff16610f34611fa0565b73ffffffffffffffffffffffffffffffffffffffff1614610fbd576040517f08c379a00000000000000000000000000000000000000000000000000000000081526004018080602001828103825260208152602001807f4f776e61626c653a2063616c6c6572206973206e6f7420746865206f776e657281525060200191505060405180910390fd5b60016002811115610fca57fe5b60148054906101000a900460ff166002811115610fe357fe5b14611039576040517f08c379a000000000000000000000000000000000000000000000000000000000815260040180806020018281038252602f815260200180613f9d602f913960400191505060405180910390fd5b600082116110af576040517f08c379a00000000000000000000000000000000000000000000000000000000081526004018080602001828103825260188152602001807f43616e277420757365207a65726f2074696d657374616d70000000000000000081525060200191505060405180910390fd5b60006110ba836130ae565b90506000601960008673ffffffffffffffffffffffffffffffffffffffff1673ffffffffffffffffffffffffffffffffffffffff168152602001908152602001600020600083815260200190815260200160002054905060008111156111785782601b60008773ffffffffffffffffffffffffffffffffffffffff1673ffffffffffffffffffffffffffffffffffffffff168152602001908152602001600020828154811061116557fe5b90600052602060002001819055506112c1565b601b60008673ffffffffffffffffffffffffffffffffffffffff1673ffffffffffffffffffffffffffffffffffffffff168152602001908152602001600020839080600181540180825580915050600190039060005260206000200160009091909190915055611225601c60008773ffffffffffffffffffffffffffffffffffffffff1673ffffffffffffffffffffffffffffffffffffffff1681526020019081526020016000206130c7565b601960008773ffffffffffffffffffffffffffffffffffffffff1673ffffffffffffffffffffffffffffffffffffffff1681526020019081526020016000206000848152602001908152602001600020819055506112c0601c60008773ffffffffffffffffffffffffffffffffffffffff1673ffffffffffffffffffffffffffffffffffffffff1681526020019081526020016000206130d5565b5b82601a60008773ffffffffffffffffffffffffffffffffffffffff1673ffffffffffffffffffffffffffffffffffffffff168152602001908152602001600020600082825401925050819055508473ffffffffffffffffffffffffffffffffffffffff167fb18ace651b0b213a6f131cfe3efe43ce84d2c0148ccea4ec0ce357c03fe2f706601a60008873ffffffffffffffffffffffffffffffffffffffff1673ffffffffffffffffffffffffffffffffffffffff168152602001908152602001600020546040518082815260200191505060405180910390a25050505050565b601181815481106113af57fe5b906000526020600020016000915054906101000a900473ffffffffffffffffffffffffffffffffffffffff1681565b6113e6613012565b73ffffffffffffffffffffffffffffffffffffffff168173ffffffffffffffffffffffffffffffffffffffff1614611469576040517f08c379a000000000000000000000000000000000000000000000000000000000815260040180806020018281038252602f8152602001806140c1602f913960400191505060405180910390fd5b61147382826130eb565b5050565b816007600082815260200190815260200160002060009054906101000a900473ffffffffffffffffffffffffffffffffffffffff1673ffffffffffffffffffffffffffffffffffffffff163373ffffffffffffffffffffffffffffffffffffffff161461152f576040517f08c379a00000000000000000000000000000000000000000000000000000000081526004018080602001828103825260288152602001806140996028913960400191505060405180910390fd5b6007600082815260200190815260200160002060006101000a81549073ffffffffffffffffffffffffffffffffffffffff0219169055807f7cc135e0cebb02c3480ae5d74d377283180a2601f8f644edf7987b009316c63a60405160405180910390a26115e3601d600085815260200190815260200160002060009054906101000a900473ffffffffffffffffffffffffffffffffffffffff16601e60008681526020019081526020016000205484610f0e565b505050565b60128054600181600116156101000203166002900480601f01602080910402602001604051908101604052809291908181526020018280546001816001161561010002031660029004801561167e5780601f106116535761010080835404028352916020019161167e565b820191906000526020600020905b81548152906001019060200180831161166157829003601f168201915b505050505081565b601460009054906101000a900473ffffffffffffffffffffffffffffffffffffffff1673ffffffffffffffffffffffffffffffffffffffff166351cff8d9826040518263ffffffff1660e01b8152600401808273ffffffffffffffffffffffffffffffffffffffff168152602001915050600060405180830381600087803b15801561171157600080fd5b505af1158015611725573d6000803e3d6000fd5b5050505050565b60606117587fdc601cd343c9e7d418b48b40f3a0ff8434a08eca1bd022ca70b09c036310b0aa33611ffb565b6117ca576040517f08c379a000000000000000000000000000000000000000000000000000000000815260040180806020018281038252601c8152602001807f596f7520617265206e6f742070617274206f662074686520706163740000000081525060200191505060405180910390fd5b601180548060200260200160405190810160405280929190818152602001828054801561184c57602002820191906000526020600020905b8160009054906101000a900473ffffffffffffffffffffffffffffffffffffffff1673ffffffffffffffffffffffffffffffffffffffff1681526020019060010190808311611802575b5050505050905090565b606060008273ffffffffffffffffffffffffffffffffffffffff16905060008114156118ba576040518060400160405280600181526020017f30000000000000000000000000000000000000000000000000000000000000008152509150506119b2565b600081905060005b600082146118e4578080600101915050600a82816118dc57fe5b0491506118c2565b60608167ffffffffffffffff811180156118fd57600080fd5b506040519080825280601f01601f1916602001820160405280156119305781602001600182028036833780820191505090505b50905060006001830390505b600085146119a957600a858161194e57fe5b0660300160f81b8282806001900393508151811061196857fe5b60200101907effffffffffffffffffffffffffffffffffffffffffffffffffffffffffffff1916908160001a905350600a85816119a157fe5b04945061193c565b81955050505050505b919050565b6119bf613012565b73ffffffffffffffffffffffffffffffffffffffff166119dd611fa0565b73ffffffffffffffffffffffffffffffffffffffff1614611a66576040517f08c379a00000000000000000000000000000000000000000000000000000000081526004018080602001828103825260208152602001807f4f776e61626c653a2063616c6c6572206973206e6f7420746865206f776e657281525060200191505060405180910390fd5b6000611a7061317f565b905060026014806101000a81548160ff02191690836002811115611a9057fe5b02179055508015611b2257601460009054906101000a900473ffffffffffffffffffffffffffffffffffffffff1673ffffffffffffffffffffffffffffffffffffffff16638c52dc416040518163ffffffff1660e01b8152600401600060405180830381600087803b158015611b0557600080fd5b505af1158015611b19573d6000803e3d6000fd5b50505050611ba5565b601460009054906101000a900473ffffffffffffffffffffffffffffffffffffffff1673ffffffffffffffffffffffffffffffffffffffff166343d726d66040518163ffffffff1660e01b8152600401600060405180830381600087803b158015611b8c57600080fd5b505af1158015611ba0573d6000803e3d6000fd5b505050505b50565b7fffea912cee438c2ace68bb665a205db5afc1aaf31713688b377348fe4bfc04f581565b611bd4613012565b73ffffffffffffffffffffffffffffffffffffffff16611bf2611fa0565b73ffffffffffffffffffffffffffffffffffffffff1614611c7b576040517f08c379a00000000000000000000000000000000000000000000000000000000081526004018080602001828103825260208152602001807f4f776e61626c653a2063616c6c6572206973206e6f7420746865206f776e657281525060200191505060405180910390fd5b600073ffffffffffffffffffffffffffffffffffffffff1660008054906101000a900473ffffffffffffffffffffffffffffffffffffffff1673ffffffffffffffffffffffffffffffffffffffff167f8be0079c531659141344cd1fd0a4f28419497f9722a3daafe3b4186f6b6457e060405160405180910390a360008060006101000a81548173ffffffffffffffffffffffffffffffffffffffff021916908373ffffffffffffffffffffffffffffffffffffffff160217905550565b611d637fdc601cd343c9e7d418b48b40f3a0ff8434a08eca1bd022ca70b09c036310b0aa33611ffb565b611dd5576040517f08c379a000000000000000000000000000000000000000000000000000000000815260040180806020018281038252601c8152602001807f596f7520617265206e6f742070617274206f662074686520706163740000000081525060200191505060405180910390fd5b6000611deb334267ffffffffffffffff16612402565b905033601d600083815260200190815260200160002060006101000a81548173ffffffffffffffffffffffffffffffffffffffff021916908373ffffffffffffffffffffffffffffffffffffffff16021790555050565b6060611e6e7fffea912cee438c2ace68bb665a205db5afc1aaf31713688b377348fe4bfc04f533611ffb565b611ee0576040517f08c379a00000000000000000000000000000000000000000000000000000000081526004018080602001828103825260148152602001807f43616c6c6572206973206e6f74206120686f737400000000000000000000000081525060200191505060405180910390fd5b60128054600181600116156101000203166002900480601f016020809104026020016040519081016040528092919081815260200182805460018160011615610100020316600290048015611f765780601f10611f4b57610100808354040283529160200191611f76565b820191906000526020600020905b815481529060010190602001808311611f5957829003601f168201915b5050505050905090565b600080600080601f54602054602354602454935093509350935090919293565b60008060009054906101000a900473ffffffffffffffffffffffffffffffffffffffff16905090565b6000611ff3826001600086815260200190815260200160002060000161323490919063ffffffff16565b905092915050565b6000612025826001600086815260200190815260200160002060000161324e90919063ffffffff16565b905092915050565b6000600281111561203a57fe5b60148054906101000a900460ff16600281111561205357fe5b146120a9576040517f08c379a0000000000000000000000000000000000000000000000000000000008152600401808060200182810382526025815260200180613fef6025913960400191505060405180910390fd5b6120d37fffea912cee438c2ace68bb665a205db5afc1aaf31713688b377348fe4bfc04f533611ffb565b612145576040517f08c379a00000000000000000000000000000000000000000000000000000000081526004018080602001828103825260148152602001807f43616c6c6572206973206e6f74206120686f737400000000000000000000000081525060200191505060405180910390fd5b670de0b6b3a76400008402601f8190555081602381905550806024819055508260208190555050505050565b7fdc601cd343c9e7d418b48b40f3a0ff8434a08eca1bd022ca70b09c036310b0aa81565b6000801b81565b6000806121c97fdc601cd343c9e7d418b48b40f3a0ff8434a08eca1bd022ca70b09c036310b0aa33611ffb565b61223b576040517f08c379a000000000000000000000000000000000000000000000000000000000815260040180806020018281038252601c8152602001807f596f7520617265206e6f742070617274206f662074686520706163740000000081525060200191505060405180910390fd5b601a60008473ffffffffffffffffffffffffffffffffffffffff1673ffffffffffffffffffffffffffffffffffffffff16815260200190815260200160002054601860008573ffffffffffffffffffffffffffffffffffffffff1673ffffffffffffffffffffffffffffffffffffffff1681526020019081526020016000205491509150915091565b60135481565b806007600082815260200190815260200160002060009054906101000a900473ffffffffffffffffffffffffffffffffffffffff1673ffffffffffffffffffffffffffffffffffffffff163373ffffffffffffffffffffffffffffffffffffffff1614612382576040517f08c379a00000000000000000000000000000000000000000000000000000000081526004018080602001828103825260288152602001806140996028913960400191505060405180910390fd5b6007600082815260200190815260200160002060006101000a81549073ffffffffffffffffffffffffffffffffffffffff0219169055807f7cc135e0cebb02c3480ae5d74d377283180a2601f8f644edf7987b009316c63a60405160405180910390a26123ed6119b7565b5050565b60148054906101000a900460ff1681565b600061240c613e9e565b61242060095430634357855e60e01b61327e565b90506124746040518060400160405280600481526020017f757365720000000000000000000000000000000000000000000000000000000081525061246486611856565b836132af9092919063ffffffff16565b6124be6040518060400160405280600981526020017f74696d657374616d70000000000000000000000000000000000000000000000081525084836132e29092919063ffffffff16565b6124ed600860009054906101000a900473ffffffffffffffffffffffffffffffffffffffff1682600a54613315565b91505092915050565b60006125166001600084815260200190815260200160002060000161359e565b9050919050565b612544600160008481526020019081526020016000206002015461253f613012565b611ffb565b612599576040517f08c379a00000000000000000000000000000000000000000000000000000000081526004018080602001828103825260308152602001806140146030913960400191505060405180910390fd5b6125a382826130eb565b5050565b6125af613012565b73ffffffffffffffffffffffffffffffffffffffff166125cd611fa0565b73ffffffffffffffffffffffffffffffffffffffff1614612656576040517f08c379a00000000000000000000000000000000000000000000000000000000081526004018080602001828103825260208152602001807f4f776e61626c653a2063616c6c6572206973206e6f7420746865206f776e657281525060200191505060405180910390fd5b61265e613e9e565b612672600c543063b62c06aa60e01b61327e565b90506126be6040518060400160405280600581526020017f756e74696c00000000000000000000000000000000000000000000000000000081525083836132e29092919063ffffffff16565b6126ed600b60009054906101000a900473ffffffffffffffffffffffffffffffffffffffff1682600d54613315565b505050565b6126fa613012565b73ffffffffffffffffffffffffffffffffffffffff16612718611fa0565b73ffffffffffffffffffffffffffffffffffffffff16146127a1576040517f08c379a00000000000000000000000000000000000000000000000000000000081526004018080602001828103825260208152602001807f4f776e61626c653a2063616c6c6572206973206e6f7420746865206f776e657281525060200191505060405180910390fd5b601060008273ffffffffffffffffffffffffffffffffffffffff1673ffffffffffffffffffffffffffffffffffffffff16815260200190815260200160002060009054906101000a900460ff1615612861576040517f08c379a000000000000000000000000000000000000000000000000000000000815260040180806020018281038252601a8152602001807f5061727469636970616e7420616c72656164792061646465642100000000000081525060200191505060405180910390fd5b6000600281111561286e57fe5b60148054906101000a900460ff16600281111561288757fe5b146128dd576040517f08c379a00000000000000000000000000000000000000000000000000000000081526004018080602001828103825260228152602001806140776022913960400191505060405180910390fd5b6001601060008373ffffffffffffffffffffffffffffffffffffffff1673ffffffffffffffffffffffffffffffffffffffff16815260200190815260200160002060006101000a81548160ff0219169083151502179055506011819080600181540180825580915050600190039060005260206000200160009091909190916101000a81548173ffffffffffffffffffffffffffffffffffffffff021916908373ffffffffffffffffffffffffffffffffffffffff1602179055506129c27fdc601cd343c9e7d418b48b40f3a0ff8434a08eca1bd022ca70b09c036310b0aa826135b3565b8073ffffffffffffffffffffffffffffffffffffffff167fdd56a9ecc283103841750763197ecfa53e844b70f9d91c5496c9f48176b658de60405160405180910390a250565b60006002811115612a1557fe5b60148054906101000a900460ff166002811115612a2e57fe5b14612a84576040517f08c379a0000000000000000000000000000000000000000000000000000000008152600401808060200182810382526025815260200180613fef6025913960400191505060405180910390fd5b612aae7fdc601cd343c9e7d418b48b40f3a0ff8434a08eca1bd022ca70b09c036310b0aa33611ffb565b612b20576040517f08c379a00000000000000000000000000000000000000000000000000000000081526004018080602001828103825260168152602001807f43616c6c6572206973206e6f74206120667269656e640000000000000000000081525060200191505060405180910390fd5b601f543373ffffffffffffffffffffffffffffffffffffffff16311015612b92576040517f08c379a00000000000000000000000000000000000000000000000000000000081526004018080602001828103825260338152602001806140446033913960400191505060405180910390fd5b601460009054906101000a900473ffffffffffffffffffffffffffffffffffffffff1673ffffffffffffffffffffffffffffffffffffffff1663f340fa0134336040518363ffffffff1660e01b8152600401808273ffffffffffffffffffffffffffffffffffffffff1681526020019150506000604051808303818588803b158015612c1d57600080fd5b505af1158015612c31573d6000803e3d6000fd5b505050505034601860003373ffffffffffffffffffffffffffffffffffffffff1673ffffffffffffffffffffffffffffffffffffffff168152602001908152602001600020600082825401925050819055503373ffffffffffffffffffffffffffffffffffffffff167f2da466a7b24304f47e87fa2e1e5a81b9831ce54fec19055ce277ca2f39ba42c4346040518082815260200191505060405180910390a2565b6000612cdd61317f565b905090565b612cea613012565b73ffffffffffffffffffffffffffffffffffffffff16612d08611fa0565b73ffffffffffffffffffffffffffffffffffffffff1614612d91576040517f08c379a00000000000000000000000000000000000000000000000000000000081526004018080602001828103825260208152602001807f4f776e61626c653a2063616c6c6572206973206e6f7420746865206f776e657281525060200191505060405180910390fd5b600073ffffffffffffffffffffffffffffffffffffffff168173ffffffffffffffffffffffffffffffffffffffff161415612e17576040517f08c379a0000000000000000000000000000000000000000000000000000000008152600401808060200182810382526026815260200180613f776026913960400191505060405180910390fd5b8073ffffffffffffffffffffffffffffffffffffffff1660008054906101000a900473ffffffffffffffffffffffffffffffffffffffff1673ffffffffffffffffffffffffffffffffffffffff167f8be0079c531659141344cd1fd0a4f28419497f9722a3daafe3b4186f6b6457e060405160405180910390a3806000806101000a81548173ffffffffffffffffffffffffffffffffffffffff021916908373ffffffffffffffffffffffffffffffffffffffff16021790555050565b600f60009054906101000a900473ffffffffffffffffffffffffffffffffffffffff1681565b612f247fffea912cee438c2ace68bb665a205db5afc1aaf31713688b377348fe4bfc04f533611ffb565b612f96576040517f08c379a00000000000000000000000000000000000000000000000000000000081526004018080602001828103825260148152602001807f596f75206d7573742062652074686520686f737400000000000000000000000081525060200191505060405180910390fd5b612fa16023546125a7565b60016014806101000a81548160ff02191690836002811115612fbf57fe5b021790555042602281905550612fd7426023546135c1565b602160000181905550565b600061300a836000018373ffffffffffffffffffffffffffffffffffffffff1660001b613654565b905092915050565b600033905090565b6130428160016000858152602001908152602001600020600001612fe290919063ffffffff16565b156130aa5761304f613012565b73ffffffffffffffffffffffffffffffffffffffff168173ffffffffffffffffffffffffffffffffffffffff16837f2f8788117e7eff1d82e926ec794901d17c78024a50270940304540a733656f0d60405160405180910390a45b5050565b600060155460155483816130be57fe5b04029050919050565b600081600001549050919050565b6001816000016000828254019250508190555050565b61311381600160008581526020019081526020016000206000016136c490919063ffffffff16565b1561317b57613120613012565b73ffffffffffffffffffffffffffffffffffffffff168173ffffffffffffffffffffffffffffffffffffffff16837ff6391f5c32d9c69d2a47ea670b442974b53935d1edc7fd64eb21e047a839171b60405160405180910390a45b5050565b600080600090505b60118054905081101561322b57602054601a6000601184815481106131a857fe5b9060005260206000200160009054906101000a900473ffffffffffffffffffffffffffffffffffffffff1673ffffffffffffffffffffffffffffffffffffffff1673ffffffffffffffffffffffffffffffffffffffff16815260200190815260200160002054101561321e576000915050613231565b8080600101915050613187565b50600190505b90565b600061324383600001836136f4565b60001c905092915050565b6000613276836000018373ffffffffffffffffffffffffffffffffffffffff1660001b613777565b905092915050565b613286613e9e565b61328e613e9e565b6132a58585858461379a909392919063ffffffff16565b9150509392505050565b6132c682846080015161384a90919063ffffffff16565b6132dd81846080015161384a90919063ffffffff16565b505050565b6132f982846080015161384a90919063ffffffff16565b61331081846080015161386f90919063ffffffff16565b505050565b600030600654604051602001808373ffffffffffffffffffffffffffffffffffffffff1660601b815260140182815260200192505050604051602081830303815290604052805190602001209050600654836060018181525050836007600083815260200190815260200160002060006101000a81548173ffffffffffffffffffffffffffffffffffffffff021916908373ffffffffffffffffffffffffffffffffffffffff160217905550807fb5e6e01e79f91267dc17b4e6314d5d4d03593d2ceee0fbb452b750bd70ea5af960405160405180910390a2600460009054906101000a900473ffffffffffffffffffffffffffffffffffffffff1673ffffffffffffffffffffffffffffffffffffffff16634000aea085846134378761387f565b6040518463ffffffff1660e01b8152600401808473ffffffffffffffffffffffffffffffffffffffff16815260200183815260200180602001828103825283818151815260200191508051906020019080838360005b838110156134a857808201518184015260208101905061348d565b50505050905090810190601f1680156134d55780820380516001836020036101000a031916815260200191505b50945050505050602060405180830381600087803b1580156134f657600080fd5b505af115801561350a573d6000803e3d6000fd5b505050506040513d602081101561352057600080fd5b8101908080519060200190929190505050613586576040517f08c379a0000000000000000000000000000000000000000000000000000000008152600401808060200182810382526023815260200180613fcc6023913960400191505060405180910390fd5b60016006600082825401925050819055509392505050565b60006135ac82600001613a00565b9050919050565b6135bd828261301a565b5050565b6000828211613638576040517f08c379a00000000000000000000000000000000000000000000000000000000081526004018080602001828103825260138152602001807f456e64206973206265666f72652073746172740000000000000000000000000081525060200191505060405180910390fd5b60008383039050601554818161364a57fe5b0491505092915050565b60006136608383613777565b6136b95782600001829080600181540180825580915050600190039060005260206000200160009091909190915055826000018054905083600101600084815260200190815260200160002081905550600190506136be565b600090505b92915050565b60006136ec836000018373ffffffffffffffffffffffffffffffffffffffff1660001b613a11565b905092915050565b600081836000018054905011613755576040517f08c379a0000000000000000000000000000000000000000000000000000000008152600401808060200182810382526022815260200180613f266022913960400191505060405180910390fd5b82600001828154811061376457fe5b9060005260206000200154905092915050565b600080836001016000848152602001908152602001600020541415905092915050565b6137a2613e9e565b6137b28560800151610100613af9565b508385600001818152505082856020019073ffffffffffffffffffffffffffffffffffffffff16908173ffffffffffffffffffffffffffffffffffffffff16815250508185604001907bffffffffffffffffffffffffffffffffffffffffffffffffffffffff191690817bffffffffffffffffffffffffffffffffffffffffffffffffffffffff191681525050849050949350505050565b6138578260038351613b4d565b61386a8183613c9290919063ffffffff16565b505050565b61387b82600083613b4d565b5050565b6060634042994660e01b60008084600001518560200151866040015187606001516001896080015160000151604051602401808973ffffffffffffffffffffffffffffffffffffffff1681526020018881526020018781526020018673ffffffffffffffffffffffffffffffffffffffff168152602001857bffffffffffffffffffffffffffffffffffffffffffffffffffffffff1916815260200184815260200183815260200180602001828103825283818151815260200191508051906020019080838360005b83811015613963578082015181840152602081019050613948565b50505050905090810190601f1680156139905780820380516001836020036101000a031916815260200191505b509950505050505050505050604051602081830303815290604052907bffffffffffffffffffffffffffffffffffffffffffffffffffffffff19166020820180517bffffffffffffffffffffffffffffffffffffffffffffffffffffffff83818316178352505050509050919050565b600081600001805490509050919050565b60008083600101600084815260200190815260200160002054905060008114613aed5760006001820390506000600186600001805490500390506000866000018281548110613a5c57fe5b9060005260206000200154905080876000018481548110613a7957fe5b9060005260206000200181905550600183018760010160008381526020019081526020016000208190555086600001805480613ab157fe5b60019003818190600052602060002001600090559055866001016000878152602001908152602001600020600090556001945050505050613af3565b60009150505b92915050565b613b01613f0b565b600060208381613b0d57fe5b0614613b265760208281613b1d57fe5b06602003820191505b81836020018181525050604051808452600081528281016020016040525082905092915050565b60178111613b7a57613b748160058460ff16901b60ff161784613cb490919063ffffffff16565b50613c8d565b60ff8111613bbc57613b9f601860058460ff16901b1784613cb490919063ffffffff16565b50613bb681600185613cd49092919063ffffffff16565b50613c8c565b61ffff8111613bff57613be2601960058460ff16901b1784613cb490919063ffffffff16565b50613bf981600285613cd49092919063ffffffff16565b50613c8b565b63ffffffff8111613c4457613c27601a60058460ff16901b1784613cb490919063ffffffff16565b50613c3e81600485613cd49092919063ffffffff16565b50613c8a565b67ffffffffffffffff8111613c8957613c70601b60058460ff16901b1784613cb490919063ffffffff16565b50613c8781600885613cd49092919063ffffffff16565b505b5b5b5b5b505050565b613c9a613f0b565b613cac83846000015151848551613cf6565b905092915050565b613cbc613f0b565b613ccc8384600001515184613daf565b905092915050565b613cdc613f0b565b613ced848560000151518585613dfd565b90509392505050565b613cfe613f0b565b8251821115613d0c57600080fd5b84602001518285011115613d3757613d36856002613d308860200151888701613e5e565b02613e7a565b5b600080865180518760208301019350808887011115613d565787860182525b60208701925050505b60208410613d825780518252602082019150602081019050602084039350613d5f565b60006001856020036101000a03905080198251168184511681811785525050879350505050949350505050565b613db7613f0b565b83602001518310613dd457613dd3846002866020015102613e7a565b5b8351805160208583010184815381861415613df0576001820183525b5050508390509392505050565b613e05613f0b565b84602001518483011115613e2357613e2285600286850102613e7a565b5b60006001836101000a0390508551838682010185831982511617815281518588011115613e505784870182525b505085915050949350505050565b600081831115613e7057829050613e74565b8190505b92915050565b606082600001519050613e8d8383613af9565b50613e988382613c92565b50505050565b6040518060a0016040528060008019168152602001600073ffffffffffffffffffffffffffffffffffffffff16815260200160007bffffffffffffffffffffffffffffffffffffffffffffffffffffffff1916815260200160008152602001613f05613f0b565b81525090565b60405180604001604052806060815260200160008152509056fe456e756d657261626c655365743a20696e646578206f7574206f6620626f756e6473416363657373436f6e74726f6c3a2073656e646572206d75737420626520616e2061646d696e20746f206772616e744f776e61626c653a206e6577206f776e657220697320746865207a65726f206164647265737350616374206d757374206265207374617274656420666f7220616e792070726f677265737356322075706461746573756e61626c6520746f207472616e73666572416e6443616c6c20746f206f7261636c6550616374206973206e6f7420616c6c6f77696e6720616e796d6f726520706c656467657321416363657373436f6e74726f6c3a2073656e646572206d75737420626520616e2061646d696e20746f207265766f6b65596f75206e65656420746f20706c65646765206120626974206d6f726520746f2062652062657474657220746f676574686572596f752063616e27742061646420616e796d6f7265207061727469636970616e7473536f75726365206d75737420626520746865206f7261636c65206f66207468652072657175657374416363657373436f6e74726f6c3a2063616e206f6e6c792072656e6f756e636520726f6c657320666f722073656c66a2646970667358221220e2922e27f8600e252368c3314d4368b05c2bac6b3648c3165dfc9a3ea32828dd64736f6c634300060c0033608060405234801561001057600080fd5b506040516114f43803806114f48339818101604052602081101561003357600080fd5b810190808051906020019092919050505060006100546101e360201b60201c565b9050806000806101000a81548173ffffffffffffffffffffffffffffffffffffffff021916908373ffffffffffffffffffffffffffffffffffffffff1602179055508073ffffffffffffffffffffffffffffffffffffffff16600073ffffffffffffffffffffffffffffffffffffffff167f8be0079c531659141344cd1fd0a4f28419497f9722a3daafe3b4186f6b6457e060405160405180910390a350600073ffffffffffffffffffffffffffffffffffffffff168173ffffffffffffffffffffffffffffffffffffffff161415610178576040517f08c379a000000000000000000000000000000000000000000000000000000000815260040180806020018281038252602d8152602001806114c7602d913960400191505060405180910390fd5b80600260016101000a81548173ffffffffffffffffffffffffffffffffffffffff021916908373ffffffffffffffffffffffffffffffffffffffff1602179055506000600260006101000a81548160ff021916908360028111156101d857fe5b0217905550506101eb565b600033905090565b6112cd806101fa6000396000f3fe6080604052600436106100a75760003560e01c80638da5cb5b116100645780638da5cb5b146101ea5780639af6549a1461022b578063c19d93fb14610242578063e3a9db1a14610278578063f2fde38b146102dd578063f340fa011461032e576100a7565b806338af3eed146100ac57806343d726d6146100ed57806351cff8d914610104578063685ca19414610155578063715018a6146101bc5780638c52dc41146101d3575b600080fd5b3480156100b857600080fd5b506100c1610372565b604051808273ffffffffffffffffffffffffffffffffffffffff16815260200191505060405180910390f35b3480156100f957600080fd5b5061010261039c565b005b34801561011057600080fd5b506101536004803603602081101561012757600080fd5b81019080803573ffffffffffffffffffffffffffffffffffffffff169060200190929190505050610512565b005b34801561016157600080fd5b506101a46004803603602081101561017857600080fd5b81019080803573ffffffffffffffffffffffffffffffffffffffff16906020019092919050505061057c565b60405180821515815260200191505060405180910390f35b3480156101c857600080fd5b506101d16105a6565b005b3480156101df57600080fd5b506101e8610713565b005b3480156101f657600080fd5b506101ff61088a565b604051808273ffffffffffffffffffffffffffffffffffffffff16815260200191505060405180910390f35b34801561023757600080fd5b506102406108b3565b005b34801561024e57600080fd5b5061025761095a565b6040518082600281111561026757fe5b815260200191505060405180910390f35b34801561028457600080fd5b506102c76004803603602081101561029b57600080fd5b81019080803573ffffffffffffffffffffffffffffffffffffffff169060200190929190505050610971565b6040518082815260200191505060405180910390f35b3480156102e957600080fd5b5061032c6004803603602081101561030057600080fd5b81019080803573ffffffffffffffffffffffffffffffffffffffff1690602001909291905050506109ba565b005b6103706004803603602081101561034457600080fd5b81019080803573ffffffffffffffffffffffffffffffffffffffff169060200190929190505050610bac565b005b6000600260019054906101000a900473ffffffffffffffffffffffffffffffffffffffff16905090565b6103a4610c2e565b73ffffffffffffffffffffffffffffffffffffffff166103c261088a565b73ffffffffffffffffffffffffffffffffffffffff161461044b576040517f08c379a00000000000000000000000000000000000000000000000000000000081526004018080602001828103825260208152602001807f4f776e61626c653a2063616c6c6572206973206e6f7420746865206f776e657281525060200191505060405180910390fd5b6000600281111561045857fe5b61046061095a565b600281111561046b57fe5b146104c1576040517f08c379a000000000000000000000000000000000000000000000000000000000815260040180806020018281038252602981526020018061123d6029913960400191505060405180910390fd5b60028060006101000a81548160ff021916908360028111156104df57fe5b02179055507f088672c3a6e342f7cd94a65ba63b79df24a8973927b4d05d803c44bbf787d12f60405160405180910390a1565b61051b8161057c565b610570576040517f08c379a000000000000000000000000000000000000000000000000000000000815260040180806020018281038252603381526020018061120a6033913960400191505060405180910390fd5b61057981610c36565b50565b60006001600281111561058b57fe5b61059361095a565b600281111561059e57fe5b149050919050565b6105ae610c2e565b73ffffffffffffffffffffffffffffffffffffffff166105cc61088a565b73ffffffffffffffffffffffffffffffffffffffff1614610655576040517f08c379a00000000000000000000000000000000000000000000000000000000081526004018080602001828103825260208152602001807f4f776e61626c653a2063616c6c6572206973206e6f7420746865206f776e657281525060200191505060405180910390fd5b600073ffffffffffffffffffffffffffffffffffffffff1660008054906101000a900473ffffffffffffffffffffffffffffffffffffffff1673ffffffffffffffffffffffffffffffffffffffff167f8be0079c531659141344cd1fd0a4f28419497f9722a3daafe3b4186f6b6457e060405160405180910390a360008060006101000a81548173ffffffffffffffffffffffffffffffffffffffff021916908373ffffffffffffffffffffffffffffffffffffffff160217905550565b61071b610c2e565b73ffffffffffffffffffffffffffffffffffffffff1661073961088a565b73ffffffffffffffffffffffffffffffffffffffff16146107c2576040517f08c379a00000000000000000000000000000000000000000000000000000000081526004018080602001828103825260208152602001807f4f776e61626c653a2063616c6c6572206973206e6f7420746865206f776e657281525060200191505060405180910390fd5b600060028111156107cf57fe5b6107d761095a565b60028111156107e257fe5b14610838576040517f08c379a00000000000000000000000000000000000000000000000000000000081526004018080602001828103825260328152602001806112666032913960400191505060405180910390fd5b6001600260006101000a81548160ff0219169083600281111561085757fe5b02179055507f599d8e5a83cffb867d051598c4d70e805d59802d8081c1c7d6dffc5b6aca2b8960405160405180910390a1565b60008060009054906101000a900473ffffffffffffffffffffffffffffffffffffffff16905090565b6002808111156108bf57fe5b6108c761095a565b60028111156108d257fe5b14610928576040517f08c379a00000000000000000000000000000000000000000000000000000000081526004018080602001828103825260388152602001806111476038913960400191505060405180910390fd5b61095847610934610372565b73ffffffffffffffffffffffffffffffffffffffff16610de990919063ffffffff16565b565b6000600260009054906101000a900460ff16905090565b6000600160008373ffffffffffffffffffffffffffffffffffffffff1673ffffffffffffffffffffffffffffffffffffffff168152602001908152602001600020549050919050565b6109c2610c2e565b73ffffffffffffffffffffffffffffffffffffffff166109e061088a565b73ffffffffffffffffffffffffffffffffffffffff1614610a69576040517f08c379a00000000000000000000000000000000000000000000000000000000081526004018080602001828103825260208152602001807f4f776e61626c653a2063616c6c6572206973206e6f7420746865206f776e657281525060200191505060405180910390fd5b600073ffffffffffffffffffffffffffffffffffffffff168173ffffffffffffffffffffffffffffffffffffffff161415610aef576040517f08c379a000000000000000000000000000000000000000000000000000000000815260040180806020018281038252602681526020018061117f6026913960400191505060405180910390fd5b8073ffffffffffffffffffffffffffffffffffffffff1660008054906101000a900473ffffffffffffffffffffffffffffffffffffffff1673ffffffffffffffffffffffffffffffffffffffff167f8be0079c531659141344cd1fd0a4f28419497f9722a3daafe3b4186f6b6457e060405160405180910390a3806000806101000a81548173ffffffffffffffffffffffffffffffffffffffff021916908373ffffffffffffffffffffffffffffffffffffffff16021790555050565b60006002811115610bb957fe5b610bc161095a565b6002811115610bcc57fe5b14610c22576040517f08c379a000000000000000000000000000000000000000000000000000000000815260040180806020018281038252602b8152602001806111df602b913960400191505060405180910390fd5b610c2b81610f23565b50565b600033905090565b610c3e610c2e565b73ffffffffffffffffffffffffffffffffffffffff16610c5c61088a565b73ffffffffffffffffffffffffffffffffffffffff1614610ce5576040517f08c379a00000000000000000000000000000000000000000000000000000000081526004018080602001828103825260208152602001807f4f776e61626c653a2063616c6c6572206973206e6f7420746865206f776e657281525060200191505060405180910390fd5b6000600160008373ffffffffffffffffffffffffffffffffffffffff1673ffffffffffffffffffffffffffffffffffffffff1681526020019081526020016000205490506000600160008473ffffffffffffffffffffffffffffffffffffffff1673ffffffffffffffffffffffffffffffffffffffff16815260200190815260200160002081905550610d97818373ffffffffffffffffffffffffffffffffffffffff16610de990919063ffffffff16565b8173ffffffffffffffffffffffffffffffffffffffff167f7084f5476618d8e60b11ef0d7d3f06914655adb8793e28ff7f018d4c76d505d5826040518082815260200191505060405180910390a25050565b80471015610e5f576040517f08c379a000000000000000000000000000000000000000000000000000000000815260040180806020018281038252601d8152602001807f416464726573733a20696e73756666696369656e742062616c616e636500000081525060200191505060405180910390fd5b60008273ffffffffffffffffffffffffffffffffffffffff168260405180600001905060006040518083038185875af1925050503d8060008114610ebf576040519150601f19603f3d011682016040523d82523d6000602084013e610ec4565b606091505b5050905080610f1e576040517f08c379a000000000000000000000000000000000000000000000000000000000815260040180806020018281038252603a8152602001806111a5603a913960400191505060405180910390fd5b505050565b610f2b610c2e565b73ffffffffffffffffffffffffffffffffffffffff16610f4961088a565b73ffffffffffffffffffffffffffffffffffffffff1614610fd2576040517f08c379a00000000000000000000000000000000000000000000000000000000081526004018080602001828103825260208152602001807f4f776e61626c653a2063616c6c6572206973206e6f7420746865206f776e657281525060200191505060405180910390fd5b600034905061102981600160008573ffffffffffffffffffffffffffffffffffffffff1673ffffffffffffffffffffffffffffffffffffffff168152602001908152602001600020546110be90919063ffffffff16565b600160008473ffffffffffffffffffffffffffffffffffffffff1673ffffffffffffffffffffffffffffffffffffffff168152602001908152602001600020819055508173ffffffffffffffffffffffffffffffffffffffff167f2da466a7b24304f47e87fa2e1e5a81b9831ce54fec19055ce277ca2f39ba42c4826040518082815260200191505060405180910390a25050565b60008082840190508381101561113c576040517f08c379a000000000000000000000000000000000000000000000000000000000815260040180806020018281038252601b8152602001807f536166654d6174683a206164646974696f6e206f766572666c6f77000000000081525060200191505060405180910390fd5b809150509291505056fe526566756e64457363726f773a2062656e65666963696172792063616e206f6e6c79207769746864726177207768696c6520636c6f7365644f776e61626c653a206e6577206f776e657220697320746865207a65726f2061646472657373416464726573733a20756e61626c6520746f2073656e642076616c75652c20726563697069656e74206d61792068617665207265766572746564526566756e64457363726f773a2063616e206f6e6c79206465706f736974207768696c6520616374697665436f6e646974696f6e616c457363726f773a207061796565206973206e6f7420616c6c6f77656420746f207769746864726177526566756e64457363726f773a2063616e206f6e6c7920636c6f7365207768696c6520616374697665526566756e64457363726f773a2063616e206f6e6c7920656e61626c6520726566756e6473207768696c6520616374697665a26469706673582212206abd21ef4ce6dc6fec70865d0adb97c2fe3a0ad8dc8b62219911b0e3a93ae2f464736f6c634300060c0033526566756e64457363726f773a2062656e656669636961727920697320746865207a65726f2061646472657373",
  "linkReferences": {},
  "deployedLinkReferences": {}
}