{
  "_format": "hh-sol-artifact-1",
  "contractName": "AlarmClient",
  "sourceName": "contracts/alarmClient/AlarmClient.sol",
  "abi": [
    {
      "inputs": [
        {
          "internalType": "address",
          "name": "_link",
          "type": "address"
        },
        {
          "internalType": "address",
          "name": "_oracle",
          "type": "address"
        }
      ],
      "stateMutability": "nonpayable",
      "type": "constructor"
    },
    {
      "anonymous": false,
      "inputs": [
        {
          "indexed": true,
          "internalType": "bytes32",
          "name": "id",
          "type": "bytes32"
        }
      ],
      "name": "ChainlinkCancelled",
      "type": "event"
    },
    {
      "anonymous": false,
      "inputs": [
        {
          "indexed": true,
          "internalType": "bytes32",
          "name": "id",
          "type": "bytes32"
        }
      ],
      "name": "ChainlinkFulfilled",
      "type": "event"
    },
    {
      "anonymous": false,
      "inputs": [
        {
          "indexed": true,
          "internalType": "bytes32",
          "name": "id",
          "type": "bytes32"
        }
      ],
      "name": "ChainlinkRequested",
      "type": "event"
    },
    {
      "anonymous": false,
      "inputs": [],
      "name": "Finished",
      "type": "event"
    },
    {
      "anonymous": false,
      "inputs": [
        {
          "indexed": true,
          "internalType": "address",
          "name": "previousOwner",
          "type": "address"
        },
        {
          "indexed": true,
          "internalType": "address",
          "name": "newOwner",
          "type": "address"
        }
      ],
      "name": "OwnershipTransferred",
      "type": "event"
    },
    {
      "inputs": [
        {
          "internalType": "bytes32",
          "name": "requestId",
          "type": "bytes32"
        }
      ],
      "name": "fulfillAlarm",
      "outputs": [],
      "stateMutability": "nonpayable",
      "type": "function"
    },
    {
      "inputs": [],
      "name": "owner",
      "outputs": [
        {
          "internalType": "address",
          "name": "",
          "type": "address"
        }
      ],
      "stateMutability": "view",
      "type": "function"
    },
    {
      "inputs": [],
      "name": "renounceOwnership",
      "outputs": [],
      "stateMutability": "nonpayable",
      "type": "function"
    },
    {
      "inputs": [
        {
          "internalType": "uint256",
          "name": "endDateUtc",
          "type": "uint256"
        }
      ],
      "name": "setAlarm",
      "outputs": [],
      "stateMutability": "nonpayable",
      "type": "function"
    },
    {
      "inputs": [
        {
          "internalType": "address",
          "name": "newOwner",
          "type": "address"
        }
      ],
      "name": "transferOwnership",
      "outputs": [],
      "stateMutability": "nonpayable",
      "type": "function"
    }
  ],
  "bytecode": "0x6080604052600160055534801561001557600080fd5b5060405161122b38038061122b8339818101604052604081101561003857600080fd5b810190808051906020019092919080519060200190929190505050600061006361018e60201b60201c565b9050806000806101000a81548173ffffffffffffffffffffffffffffffffffffffff021916908373ffffffffffffffffffffffffffffffffffffffff1602179055508073ffffffffffffffffffffffffffffffffffffffff16600073ffffffffffffffffffffffffffffffffffffffff167f8be0079c531659141344cd1fd0a4f28419497f9722a3daafe3b4186f6b6457e060405160405180910390a3506101108261019660201b60201c565b80600760006101000a81548173ffffffffffffffffffffffffffffffffffffffff021916908373ffffffffffffffffffffffffffffffffffffffff1602179055507f6137616237306435363164333465623439653962313631326664326530343462600881905550670de0b6b3a764000060098190555050506101da565b600033905090565b80600360006101000a81548173ffffffffffffffffffffffffffffffffffffffff021916908373ffffffffffffffffffffffffffffffffffffffff16021790555050565b611042806101e96000396000f3fe608060405234801561001057600080fd5b50600436106100575760003560e01c8063715018a61461005c5780638da5cb5b14610066578063b62c06aa1461009a578063d913a7f8146100c8578063f2fde38b146100f6575b600080fd5b61006461013a565b005b61006e6102a7565b604051808273ffffffffffffffffffffffffffffffffffffffff16815260200191505060405180910390f35b6100c6600480360360208110156100b057600080fd5b81019080803590602001909291905050506102d0565b005b6100f4600480360360208110156100de57600080fd5b81019080803590602001909291905050506102ff565b005b6101386004803603602081101561010c57600080fd5b81019080803573ffffffffffffffffffffffffffffffffffffffff16906020019092919050505061044a565b005b61014261063c565b73ffffffffffffffffffffffffffffffffffffffff166101606102a7565b73ffffffffffffffffffffffffffffffffffffffff16146101e9576040517f08c379a00000000000000000000000000000000000000000000000000000000081526004018080602001828103825260208152602001807f4f776e61626c653a2063616c6c6572206973206e6f7420746865206f776e657281525060200191505060405180910390fd5b600073ffffffffffffffffffffffffffffffffffffffff1660008054906101000a900473ffffffffffffffffffffffffffffffffffffffff1673ffffffffffffffffffffffffffffffffffffffff167f8be0079c531659141344cd1fd0a4f28419497f9722a3daafe3b4186f6b6457e060405160405180910390a360008060006101000a81548173ffffffffffffffffffffffffffffffffffffffff021916908373ffffffffffffffffffffffffffffffffffffffff160217905550565b60008060009054906101000a900473ffffffffffffffffffffffffffffffffffffffff16905090565b7f1578538d7847a99e818f068c208cae026fdafea1610a44858adeff8dc70aeb2b60405160405180910390a150565b61030761063c565b73ffffffffffffffffffffffffffffffffffffffff166103256102a7565b73ffffffffffffffffffffffffffffffffffffffff16146103ae576040517f08c379a00000000000000000000000000000000000000000000000000000000081526004018080602001828103825260208152602001807f4f776e61626c653a2063616c6c6572206973206e6f7420746865206f776e657281525060200191505060405180910390fd5b6103b6610f3c565b6103ca6008543063b62c06aa60e01b610644565b90506104166040518060400160405280600581526020017f756e74696c00000000000000000000000000000000000000000000000000000081525083836106759092919063ffffffff16565b610445600760009054906101000a900473ffffffffffffffffffffffffffffffffffffffff16826009546106a8565b505050565b61045261063c565b73ffffffffffffffffffffffffffffffffffffffff166104706102a7565b73ffffffffffffffffffffffffffffffffffffffff16146104f9576040517f08c379a00000000000000000000000000000000000000000000000000000000081526004018080602001828103825260208152602001807f4f776e61626c653a2063616c6c6572206973206e6f7420746865206f776e657281525060200191505060405180910390fd5b600073ffffffffffffffffffffffffffffffffffffffff168173ffffffffffffffffffffffffffffffffffffffff16141561057f576040517f08c379a0000000000000000000000000000000000000000000000000000000008152600401808060200182810382526026815260200180610fc46026913960400191505060405180910390fd5b8073ffffffffffffffffffffffffffffffffffffffff1660008054906101000a900473ffffffffffffffffffffffffffffffffffffffff1673ffffffffffffffffffffffffffffffffffffffff167f8be0079c531659141344cd1fd0a4f28419497f9722a3daafe3b4186f6b6457e060405160405180910390a3806000806101000a81548173ffffffffffffffffffffffffffffffffffffffff021916908373ffffffffffffffffffffffffffffffffffffffff16021790555050565b600033905090565b61064c610f3c565b610654610f3c565b61066b85858584610931909392919063ffffffff16565b9150509392505050565b61068c8284608001516109e190919063ffffffff16565b6106a3818460800151610a0690919063ffffffff16565b505050565b600030600554604051602001808373ffffffffffffffffffffffffffffffffffffffff1660601b815260140182815260200192505050604051602081830303815290604052805190602001209050600554836060018181525050836006600083815260200190815260200160002060006101000a81548173ffffffffffffffffffffffffffffffffffffffff021916908373ffffffffffffffffffffffffffffffffffffffff160217905550807fb5e6e01e79f91267dc17b4e6314d5d4d03593d2ceee0fbb452b750bd70ea5af960405160405180910390a2600360009054906101000a900473ffffffffffffffffffffffffffffffffffffffff1673ffffffffffffffffffffffffffffffffffffffff16634000aea085846107ca87610a16565b6040518463ffffffff1660e01b8152600401808473ffffffffffffffffffffffffffffffffffffffff16815260200183815260200180602001828103825283818151815260200191508051906020019080838360005b8381101561083b578082015181840152602081019050610820565b50505050905090810190601f1680156108685780820380516001836020036101000a031916815260200191505b50945050505050602060405180830381600087803b15801561088957600080fd5b505af115801561089d573d6000803e3d6000fd5b505050506040513d60208110156108b357600080fd5b8101908080519060200190929190505050610919576040517f08c379a0000000000000000000000000000000000000000000000000000000008152600401808060200182810382526023815260200180610fea6023913960400191505060405180910390fd5b60016005600082825401925050819055509392505050565b610939610f3c565b6109498560800151610100610b97565b508385600001818152505082856020019073ffffffffffffffffffffffffffffffffffffffff16908173ffffffffffffffffffffffffffffffffffffffff16815250508185604001907bffffffffffffffffffffffffffffffffffffffffffffffffffffffff191690817bffffffffffffffffffffffffffffffffffffffffffffffffffffffff191681525050849050949350505050565b6109ee8260038351610beb565b610a018183610d3090919063ffffffff16565b505050565b610a1282600083610beb565b5050565b6060634042994660e01b60008084600001518560200151866040015187606001516001896080015160000151604051602401808973ffffffffffffffffffffffffffffffffffffffff1681526020018881526020018781526020018673ffffffffffffffffffffffffffffffffffffffff168152602001857bffffffffffffffffffffffffffffffffffffffffffffffffffffffff1916815260200184815260200183815260200180602001828103825283818151815260200191508051906020019080838360005b83811015610afa578082015181840152602081019050610adf565b50505050905090810190601f168015610b275780820380516001836020036101000a031916815260200191505b509950505050505050505050604051602081830303815290604052907bffffffffffffffffffffffffffffffffffffffffffffffffffffffff19166020820180517bffffffffffffffffffffffffffffffffffffffffffffffffffffffff83818316178352505050509050919050565b610b9f610fa9565b600060208381610bab57fe5b0614610bc45760208281610bbb57fe5b06602003820191505b81836020018181525050604051808452600081528281016020016040525082905092915050565b60178111610c1857610c128160058460ff16901b60ff161784610d5290919063ffffffff16565b50610d2b565b60ff8111610c5a57610c3d601860058460ff16901b1784610d5290919063ffffffff16565b50610c5481600185610d729092919063ffffffff16565b50610d2a565b61ffff8111610c9d57610c80601960058460ff16901b1784610d5290919063ffffffff16565b50610c9781600285610d729092919063ffffffff16565b50610d29565b63ffffffff8111610ce257610cc5601a60058460ff16901b1784610d5290919063ffffffff16565b50610cdc81600485610d729092919063ffffffff16565b50610d28565b67ffffffffffffffff8111610d2757610d0e601b60058460ff16901b1784610d5290919063ffffffff16565b50610d2581600885610d729092919063ffffffff16565b505b5b5b5b5b505050565b610d38610fa9565b610d4a83846000015151848551610d94565b905092915050565b610d5a610fa9565b610d6a8384600001515184610e4d565b905092915050565b610d7a610fa9565b610d8b848560000151518585610e9b565b90509392505050565b610d9c610fa9565b8251821115610daa57600080fd5b84602001518285011115610dd557610dd4856002610dce8860200151888701610efc565b02610f18565b5b600080865180518760208301019350808887011115610df45787860182525b60208701925050505b60208410610e205780518252602082019150602081019050602084039350610dfd565b60006001856020036101000a03905080198251168184511681811785525050879350505050949350505050565b610e55610fa9565b83602001518310610e7257610e71846002866020015102610f18565b5b8351805160208583010184815381861415610e8e576001820183525b5050508390509392505050565b610ea3610fa9565b84602001518483011115610ec157610ec085600286850102610f18565b5b60006001836101000a0390508551838682010185831982511617815281518588011115610eee5784870182525b505085915050949350505050565b600081831115610f0e57829050610f12565b8190505b92915050565b606082600001519050610f2b8383610b97565b50610f368382610d30565b50505050565b6040518060a0016040528060008019168152602001600073ffffffffffffffffffffffffffffffffffffffff16815260200160007bffffffffffffffffffffffffffffffffffffffffffffffffffffffff1916815260200160008152602001610fa3610fa9565b81525090565b60405180604001604052806060815260200160008152509056fe4f776e61626c653a206e6577206f776e657220697320746865207a65726f2061646472657373756e61626c6520746f207472616e73666572416e6443616c6c20746f206f7261636c65a26469706673582212203f21db7301b10faab5f1e509f60bba44f3a290c77d01934824025f3ed96e1c4f64736f6c634300060c0033",
  "linkReferences": {},
  "deployedLinkReferences": {}
}