{
  "_format": "hh-sol-artifact-1",
  "contractName": "Pact",
  "sourceName": "contracts/Pact.sol",
  "abi": [
    {
      "inputs": [
        {
          "internalType": "address payable",
          "name": "_wallet",
          "type": "address"
        },
        {
          "internalType": "address",
          "name": "_host",
          "type": "address"
        },
        {
          "internalType": "uint256",
          "name": "_id",
          "type": "uint256"
        },
        {
          "internalType": "string",
          "name": "_inviteCode",
          "type": "string"
        }
      ],
      "stateMutability": "nonpayable",
      "type": "constructor"
    },
    {
      "anonymous": false,
      "inputs": [
        {
          "indexed": true,
          "internalType": "bytes32",
          "name": "id",
          "type": "bytes32"
        }
      ],
      "name": "ChainlinkCancelled",
      "type": "event"
    },
    {
      "anonymous": false,
      "inputs": [
        {
          "indexed": true,
          "internalType": "bytes32",
          "name": "id",
          "type": "bytes32"
        }
      ],
      "name": "ChainlinkFulfilled",
      "type": "event"
    },
    {
      "anonymous": false,
      "inputs": [
        {
          "indexed": true,
          "internalType": "bytes32",
          "name": "id",
          "type": "bytes32"
        }
      ],
      "name": "ChainlinkRequested",
      "type": "event"
    },
    {
      "anonymous": false,
      "inputs": [
        {
          "indexed": true,
          "internalType": "address",
          "name": "from",
          "type": "address"
        },
        {
          "indexed": false,
          "internalType": "uint256",
          "name": "value",
          "type": "uint256"
        }
      ],
      "name": "Deposited",
      "type": "event"
    },
    {
      "anonymous": false,
      "inputs": [
        {
          "indexed": true,
          "internalType": "address",
          "name": "friend",
          "type": "address"
        }
      ],
      "name": "FriendJoined",
      "type": "event"
    },
    {
      "anonymous": false,
      "inputs": [
        {
          "indexed": true,
          "internalType": "address",
          "name": "previousOwner",
          "type": "address"
        },
        {
          "indexed": true,
          "internalType": "address",
          "name": "newOwner",
          "type": "address"
        }
      ],
      "name": "OwnershipTransferred",
      "type": "event"
    },
    {
      "anonymous": false,
      "inputs": [
        {
          "indexed": false,
          "internalType": "enum Pact.PactState",
          "name": "state",
          "type": "uint8"
        }
      ],
      "name": "PactStatusChanged",
      "type": "event"
    },
    {
      "anonymous": false,
      "inputs": [
        {
          "indexed": true,
          "internalType": "address",
          "name": "friend",
          "type": "address"
        },
        {
          "indexed": false,
          "internalType": "uint256",
          "name": "totalDistance",
          "type": "uint256"
        }
      ],
      "name": "ProgressUpdated",
      "type": "event"
    },
    {
      "anonymous": false,
      "inputs": [
        {
          "indexed": true,
          "internalType": "bytes32",
          "name": "role",
          "type": "bytes32"
        },
        {
          "indexed": true,
          "internalType": "bytes32",
          "name": "previousAdminRole",
          "type": "bytes32"
        },
        {
          "indexed": true,
          "internalType": "bytes32",
          "name": "newAdminRole",
          "type": "bytes32"
        }
      ],
      "name": "RoleAdminChanged",
      "type": "event"
    },
    {
      "anonymous": false,
      "inputs": [
        {
          "indexed": true,
          "internalType": "bytes32",
          "name": "role",
          "type": "bytes32"
        },
        {
          "indexed": true,
          "internalType": "address",
          "name": "account",
          "type": "address"
        },
        {
          "indexed": true,
          "internalType": "address",
          "name": "sender",
          "type": "address"
        }
      ],
      "name": "RoleGranted",
      "type": "event"
    },
    {
      "anonymous": false,
      "inputs": [
        {
          "indexed": true,
          "internalType": "bytes32",
          "name": "role",
          "type": "bytes32"
        },
        {
          "indexed": true,
          "internalType": "address",
          "name": "account",
          "type": "address"
        },
        {
          "indexed": true,
          "internalType": "address",
          "name": "sender",
          "type": "address"
        }
      ],
      "name": "RoleRevoked",
      "type": "event"
    },
    {
      "inputs": [],
      "name": "DEFAULT_ADMIN_ROLE",
      "outputs": [
        {
          "internalType": "bytes32",
          "name": "",
          "type": "bytes32"
        }
      ],
      "stateMutability": "view",
      "type": "function"
    },
    {
      "inputs": [],
      "name": "FRIEND_ROLE",
      "outputs": [
        {
          "internalType": "bytes32",
          "name": "",
          "type": "bytes32"
        }
      ],
      "stateMutability": "view",
      "type": "function"
    },
    {
      "inputs": [],
      "name": "HOST_ROLE",
      "outputs": [
        {
          "internalType": "bytes32",
          "name": "",
          "type": "bytes32"
        }
      ],
      "stateMutability": "view",
      "type": "function"
    },
    {
      "inputs": [
        {
          "internalType": "address",
          "name": "user",
          "type": "address"
        },
        {
          "internalType": "uint256",
          "name": "timestamp",
          "type": "uint256"
        },
        {
          "internalType": "uint256",
          "name": "distance",
          "type": "uint256"
        }
      ],
      "name": "_updateProgress",
      "outputs": [],
      "stateMutability": "nonpayable",
      "type": "function"
    },
    {
      "inputs": [
        {
          "internalType": "address",
          "name": "participant",
          "type": "address"
        }
      ],
      "name": "addParticipant",
      "outputs": [],
      "stateMutability": "nonpayable",
      "type": "function"
    },
    {
      "inputs": [
        {
          "internalType": "address",
          "name": "_address",
          "type": "address"
        }
      ],
      "name": "addressToString",
      "outputs": [
        {
          "internalType": "string",
          "name": "_uintAsString",
          "type": "string"
        }
      ],
      "stateMutability": "pure",
      "type": "function"
    },
    {
      "inputs": [],
      "name": "enableRefunds",
      "outputs": [
        {
          "internalType": "uint16",
          "name": "",
          "type": "uint16"
        }
      ],
      "stateMutability": "nonpayable",
      "type": "function"
    },
    {
      "inputs": [],
      "name": "finishPact",
      "outputs": [],
      "stateMutability": "nonpayable",
      "type": "function"
    },
    {
      "inputs": [
        {
          "internalType": "address",
          "name": "user",
          "type": "address"
        }
      ],
      "name": "foo",
      "outputs": [
        {
          "internalType": "address",
          "name": "",
          "type": "address"
        },
        {
          "internalType": "address",
          "name": "",
          "type": "address"
        },
        {
          "internalType": "address",
          "name": "",
          "type": "address"
        }
      ],
      "stateMutability": "view",
      "type": "function"
    },
    {
      "inputs": [
        {
          "internalType": "bytes32",
          "name": "requestId",
          "type": "bytes32"
        },
        {
          "internalType": "uint256",
          "name": "distance",
          "type": "uint256"
        }
      ],
      "name": "fulfill",
      "outputs": [],
      "stateMutability": "nonpayable",
      "type": "function"
    },
    {
      "inputs": [],
      "name": "getConditions",
      "outputs": [
        {
          "internalType": "uint256",
          "name": "",
          "type": "uint256"
        },
        {
          "internalType": "uint256",
          "name": "",
          "type": "uint256"
        },
        {
          "internalType": "uint256",
          "name": "",
          "type": "uint256"
        },
        {
          "internalType": "uint256",
          "name": "",
          "type": "uint256"
        }
      ],
      "stateMutability": "view",
      "type": "function"
    },
    {
      "inputs": [],
      "name": "getEscrowAddress",
      "outputs": [
        {
          "internalType": "address",
          "name": "",
          "type": "address"
        }
      ],
      "stateMutability": "view",
      "type": "function"
    },
    {
      "inputs": [],
      "name": "getHost",
      "outputs": [
        {
          "internalType": "address",
          "name": "",
          "type": "address"
        }
      ],
      "stateMutability": "view",
      "type": "function"
    },
    {
      "inputs": [],
      "name": "getInviteCode",
      "outputs": [
        {
          "internalType": "string",
          "name": "",
          "type": "string"
        }
      ],
      "stateMutability": "nonpayable",
      "type": "function"
    },
    {
      "inputs": [],
      "name": "getMyBalance",
      "outputs": [
        {
          "internalType": "uint256",
          "name": "",
          "type": "uint256"
        },
        {
          "internalType": "uint256",
          "name": "",
          "type": "uint256"
        },
        {
          "internalType": "uint256",
          "name": "",
          "type": "uint256"
        }
      ],
      "stateMutability": "view",
      "type": "function"
    },
    {
      "inputs": [],
      "name": "getParticipants",
      "outputs": [
        {
          "internalType": "address[]",
          "name": "",
          "type": "address[]"
        }
      ],
      "stateMutability": "view",
      "type": "function"
    },
    {
      "inputs": [
        {
          "internalType": "address",
          "name": "user",
          "type": "address"
        }
      ],
      "name": "getProgress",
      "outputs": [
        {
          "internalType": "uint256",
          "name": "",
          "type": "uint256"
        }
      ],
      "stateMutability": "view",
      "type": "function"
    },
    {
      "inputs": [
        {
          "internalType": "bytes32",
          "name": "role",
          "type": "bytes32"
        }
      ],
      "name": "getRoleAdmin",
      "outputs": [
        {
          "internalType": "bytes32",
          "name": "",
          "type": "bytes32"
        }
      ],
      "stateMutability": "view",
      "type": "function"
    },
    {
      "inputs": [
        {
          "internalType": "bytes32",
          "name": "role",
          "type": "bytes32"
        },
        {
          "internalType": "uint256",
          "name": "index",
          "type": "uint256"
        }
      ],
      "name": "getRoleMember",
      "outputs": [
        {
          "internalType": "address",
          "name": "",
          "type": "address"
        }
      ],
      "stateMutability": "view",
      "type": "function"
    },
    {
      "inputs": [
        {
          "internalType": "bytes32",
          "name": "role",
          "type": "bytes32"
        }
      ],
      "name": "getRoleMemberCount",
      "outputs": [
        {
          "internalType": "uint256",
          "name": "",
          "type": "uint256"
        }
      ],
      "stateMutability": "view",
      "type": "function"
    },
    {
      "inputs": [
        {
          "internalType": "bytes32",
          "name": "role",
          "type": "bytes32"
        },
        {
          "internalType": "address",
          "name": "account",
          "type": "address"
        }
      ],
      "name": "grantRole",
      "outputs": [],
      "stateMutability": "nonpayable",
      "type": "function"
    },
    {
      "inputs": [
        {
          "internalType": "bytes32",
          "name": "role",
          "type": "bytes32"
        },
        {
          "internalType": "address",
          "name": "account",
          "type": "address"
        }
      ],
      "name": "hasRole",
      "outputs": [
        {
          "internalType": "bool",
          "name": "",
          "type": "bool"
        }
      ],
      "stateMutability": "view",
      "type": "function"
    },
    {
      "inputs": [],
      "name": "host",
      "outputs": [
        {
          "internalType": "address",
          "name": "",
          "type": "address"
        }
      ],
      "stateMutability": "view",
      "type": "function"
    },
    {
      "inputs": [],
      "name": "id",
      "outputs": [
        {
          "internalType": "uint256",
          "name": "",
          "type": "uint256"
        }
      ],
      "stateMutability": "view",
      "type": "function"
    },
    {
      "inputs": [],
      "name": "inviteCode",
      "outputs": [
        {
          "internalType": "string",
          "name": "",
          "type": "string"
        }
      ],
      "stateMutability": "view",
      "type": "function"
    },
    {
      "inputs": [],
      "name": "isPactComplete",
      "outputs": [
        {
          "internalType": "bool",
          "name": "",
          "type": "bool"
        }
      ],
      "stateMutability": "view",
      "type": "function"
    },
    {
      "inputs": [],
      "name": "makePledge",
      "outputs": [],
      "stateMutability": "payable",
      "type": "function"
    },
    {
      "inputs": [],
      "name": "owner",
      "outputs": [
        {
          "internalType": "address",
          "name": "",
          "type": "address"
        }
      ],
      "stateMutability": "view",
      "type": "function"
    },
    {
      "inputs": [
        {
          "internalType": "uint256",
          "name": "",
          "type": "uint256"
        }
      ],
      "name": "participants",
      "outputs": [
        {
          "internalType": "address",
          "name": "",
          "type": "address"
        }
      ],
      "stateMutability": "view",
      "type": "function"
    },
    {
      "inputs": [],
      "name": "renounceOwnership",
      "outputs": [],
      "stateMutability": "nonpayable",
      "type": "function"
    },
    {
      "inputs": [
        {
          "internalType": "bytes32",
          "name": "role",
          "type": "bytes32"
        },
        {
          "internalType": "address",
          "name": "account",
          "type": "address"
        }
      ],
      "name": "renounceRole",
      "outputs": [],
      "stateMutability": "nonpayable",
      "type": "function"
    },
    {
      "inputs": [
        {
          "internalType": "bytes32",
          "name": "role",
          "type": "bytes32"
        },
        {
          "internalType": "address",
          "name": "account",
          "type": "address"
        }
      ],
      "name": "revokeRole",
      "outputs": [],
      "stateMutability": "nonpayable",
      "type": "function"
    },
    {
      "inputs": [
        {
          "internalType": "uint256",
          "name": "_minPledge",
          "type": "uint256"
        },
        {
          "internalType": "uint256",
          "name": "_totalMiles",
          "type": "uint256"
        },
        {
          "internalType": "uint256",
          "name": "_endDateUtc",
          "type": "uint256"
        },
        {
          "internalType": "uint256",
          "name": "_daysPerCheck",
          "type": "uint256"
        }
      ],
      "name": "setConditions",
      "outputs": [],
      "stateMutability": "nonpayable",
      "type": "function"
    },
    {
      "inputs": [],
      "name": "startPact",
      "outputs": [],
      "stateMutability": "nonpayable",
      "type": "function"
    },
    {
      "inputs": [],
      "name": "state",
      "outputs": [
        {
          "internalType": "enum Pact.PactState",
          "name": "",
          "type": "uint8"
        }
      ],
      "stateMutability": "view",
      "type": "function"
    },
    {
      "inputs": [
        {
          "internalType": "address",
          "name": "newOwner",
          "type": "address"
        }
      ],
      "name": "transferOwnership",
      "outputs": [],
      "stateMutability": "nonpayable",
      "type": "function"
    },
    {
      "inputs": [],
      "name": "updateProgress",
      "outputs": [],
      "stateMutability": "nonpayable",
      "type": "function"
    },
    {
      "inputs": [
        {
          "internalType": "address payable",
          "name": "payee",
          "type": "address"
        }
      ],
      "name": "withdraw",
      "outputs": [],
      "stateMutability": "nonpayable",
      "type": "function"
    }
  ],
  "bytecode": "0x608060405260016006556201518060145573a36085f69e2889c224210f603d836748e7dc0088601560006101000a81548173ffffffffffffffffffffffffffffffffffffffff021916908373ffffffffffffffffffffffffffffffffffffffff160217905550732f90a6d021db21e1b2a077c5a37b3c7e75d15b7e601660006101000a81548173ffffffffffffffffffffffffffffffffffffffff021916908373ffffffffffffffffffffffffffffffffffffffff160217905550348015620000c757600080fd5b5060405162005daf38038062005daf83398181016040526080811015620000ed57600080fd5b81019080805190602001909291908051906020019092919080519060200190929190805160405193929190846401000000008211156200012c57600080fd5b838201915060208201858111156200014357600080fd5b82518660018202830111640100000000821117156200016157600080fd5b8083526020830192505050908051906020019080838360005b83811015620001975780820151818401526020810190506200017a565b50505050905090810190601f168015620001c55780820380516001836020036101000a031916815260200191505b50604052505050601560009054906101000a900473ffffffffffffffffffffffffffffffffffffffff16601660009054906101000a900473ffffffffffffffffffffffffffffffffffffffff166000620002246200059360201b60201c565b9050806000806101000a81548173ffffffffffffffffffffffffffffffffffffffff021916908373ffffffffffffffffffffffffffffffffffffffff1602179055508073ffffffffffffffffffffffffffffffffffffffff16600073ffffffffffffffffffffffffffffffffffffffff167f8be0079c531659141344cd1fd0a4f28419497f9722a3daafe3b4186f6b6457e060405160405180910390a350620002d3826200059b60201b60201c565b80600860006101000a81548173ffffffffffffffffffffffffffffffffffffffff021916908373ffffffffffffffffffffffffffffffffffffffff1602179055507f323966613961613133626631343638373838623763633461353030613435623860098190555067016345785d8a0000600a81905550505083600b60006101000a81548173ffffffffffffffffffffffffffffffffffffffff021916908373ffffffffffffffffffffffffffffffffffffffff16021790555082600c60006101000a81548173ffffffffffffffffffffffffffffffffffffffff021916908373ffffffffffffffffffffffffffffffffffffffff16021790555081601081905550600b60009054906101000a900473ffffffffffffffffffffffffffffffffffffffff1660405162000406906200076e565b808273ffffffffffffffffffffffffffffffffffffffff168152602001915050604051809103906000f08015801562000443573d6000803e3d6000fd5b50601160006101000a81548173ffffffffffffffffffffffffffffffffffffffff021916908373ffffffffffffffffffffffffffffffffffffffff16021790555080600f90805190602001906200049c9291906200077c565b506000601160146101000a81548160ff02191690836002811115620004bd57fe5b0217905550620004f47fffea912cee438c2ace68bb665a205db5afc1aaf31713688b377348fe4bfc04f584620005df60201b60201c565b620005267fdc601cd343c9e7d418b48b40f3a0ff8434a08eca1bd022ca70b09c036310b0aa84620005df60201b60201c565b600e839080600181540180825580915050600190039060005260206000200160009091909190916101000a81548173ffffffffffffffffffffffffffffffffffffffff021916908373ffffffffffffffffffffffffffffffffffffffff1602179055505050505062000822565b600033905090565b80600460006101000a81548173ffffffffffffffffffffffffffffffffffffffff021916908373ffffffffffffffffffffffffffffffffffffffff16021790555050565b620005f18282620005f560201b60201c565b5050565b6200062481600160008581526020019081526020016000206000016200069960201b62002e501790919060201c565b1562000695576200063a6200059360201b60201c565b73ffffffffffffffffffffffffffffffffffffffff168173ffffffffffffffffffffffffffffffffffffffff16837f2f8788117e7eff1d82e926ec794901d17c78024a50270940304540a733656f0d60405160405180910390a45b5050565b6000620006c9836000018373ffffffffffffffffffffffffffffffffffffffff1660001b620006d160201b60201c565b905092915050565b6000620006e583836200074b60201b60201c565b6200074057826000018290806001815401808255809150506001900390600052602060002001600090919091909150558260000180549050836001016000848152602001908152602001600020819055506001905062000745565b600090505b92915050565b600080836001016000848152602001908152602001600020541415905092915050565b6114f480620048bb83390190565b828054600181600116156101000203166002900490600052602060002090601f016020900481019282601f10620007bf57805160ff1916838001178555620007f0565b82800160010185558215620007f0579182015b82811115620007ef578251825591602001919060010190620007d2565b5b509050620007ff919062000803565b5090565b5b808211156200081e57600081600090555060010162000804565b5090565b61408980620008326000396000f3fe6080604052600436106102255760003560e01c80638c52dc4111610123578063c19d93fb116100ab578063ec7655081161006f578063ec76550814610c1a578063f2fde38b14610c47578063f437bc5914610c98578063f60884b114610cd9578063fdf80bda14610cf057610225565b8063c19d93fb14610adf578063ca15c87314610b15578063d547741f14610b64578063dfafe10f14610bbf578063e6ee858014610c1057610225565b806396b0cb24116100f257806396b0cb24146109a0578063a007a562146109f9578063a217fddf14610a24578063aef7650114610a4f578063af640d0f14610ab457610225565b80638c52dc41146108505780638da5cb5b1461087f5780639010d07c146108c057806391d148541461092f57610225565b80634c738909116101b157806368e978b11161017557806368e978b114610727578063715018a6146107525780637389e955146107695780637a058522146107805780637c1236271461081057610225565b80634c7389091461055057806351cff8d9146105895780635aa68ac0146105da5780635e57966d146106465780636397a90d1461071057610225565b806334e082ba116101f857806334e082ba1461035657806335c1d349146103bb57806336568abe146104205780634357855e1461047b5780634665ad52146104c057610225565b8063122fd48a1461022a57806320bc44251461026b578063248a9ca3146102ac5780632f2ff15d146102fb575b600080fd5b34801561023657600080fd5b5061023f610da5565b604051808273ffffffffffffffffffffffffffffffffffffffff16815260200191505060405180910390f35b34801561027757600080fd5b50610280610dcf565b604051808273ffffffffffffffffffffffffffffffffffffffff16815260200191505060405180910390f35b3480156102b857600080fd5b506102e5600480360360208110156102cf57600080fd5b8101908080359060200190929190505050610e95565b6040518082815260200191505060405180910390f35b34801561030757600080fd5b506103546004803603604081101561031e57600080fd5b8101908080359060200190929190803573ffffffffffffffffffffffffffffffffffffffff169060200190929190505050610eb5565b005b34801561036257600080fd5b506103b96004803603606081101561037957600080fd5b81019080803573ffffffffffffffffffffffffffffffffffffffff1690602001909291908035906020019092919080359060200190929190505050610f3f565b005b3480156103c757600080fd5b506103f4600480360360208110156103de57600080fd5b81019080803590602001909291905050506113d5565b604051808273ffffffffffffffffffffffffffffffffffffffff16815260200191505060405180910390f35b34801561042c57600080fd5b506104796004803603604081101561044357600080fd5b8101908080359060200190929190803573ffffffffffffffffffffffffffffffffffffffff169060200190929190505050611411565b005b34801561048757600080fd5b506104be6004803603604081101561049e57600080fd5b8101908080359060200190929190803590602001909291905050506114aa565b005b3480156104cc57600080fd5b506104d561161b565b6040518080602001828103825283818151815260200191508051906020019080838360005b838110156105155780820151818401526020810190506104fa565b50505050905090810190601f1680156105425780820380516001836020036101000a031916815260200191505b509250505060405180910390f35b34801561055c57600080fd5b506105656116b9565b60405180848152602001838152602001828152602001935050505060405180910390f35b34801561059557600080fd5b506105d8600480360360208110156105ac57600080fd5b81019080803573ffffffffffffffffffffffffffffffffffffffff16906020019092919050505061171e565b005b3480156105e657600080fd5b506105ef6117c4565b6040518080602001828103825283818151815260200191508051906020019060200280838360005b83811015610632578082015181840152602081019050610617565b505050509050019250505060405180910390f35b34801561065257600080fd5b506106956004803603602081101561066957600080fd5b81019080803573ffffffffffffffffffffffffffffffffffffffff1690602001909291905050506118ee565b6040518080602001828103825283818151815260200191508051906020019080838360005b838110156106d55780820151818401526020810190506106ba565b50505050905090810190601f1680156107025780820380516001836020036101000a031916815260200191505b509250505060405180910390f35b34801561071c57600080fd5b50610725611a4f565b005b34801561073357600080fd5b5061073c611b59565b6040518082815260200191505060405180910390f35b34801561075e57600080fd5b50610767611b7d565b005b34801561077557600080fd5b5061077e611cea565b005b34801561078c57600080fd5b50610795611df3565b6040518080602001828103825283818151815260200191508051906020019080838360005b838110156107d55780820151818401526020810190506107ba565b50505050905090810190601f1680156108025780820380516001836020036101000a031916815260200191505b509250505060405180910390f35b34801561081c57600080fd5b50610825611f31565b6040518085815260200184815260200183815260200182815260200194505050505060405180910390f35b34801561085c57600080fd5b50610865611f51565b604051808261ffff16815260200191505060405180910390f35b34801561088b57600080fd5b5061089461214c565b604051808273ffffffffffffffffffffffffffffffffffffffff16815260200191505060405180910390f35b3480156108cc57600080fd5b50610903600480360360408110156108e357600080fd5b810190808035906020019092919080359060200190929190505050612175565b604051808273ffffffffffffffffffffffffffffffffffffffff16815260200191505060405180910390f35b34801561093b57600080fd5b506109886004803603604081101561095257600080fd5b8101908080359060200190929190803573ffffffffffffffffffffffffffffffffffffffff1690602001909291905050506121a7565b60405180821515815260200191505060405180910390f35b3480156109ac57600080fd5b506109f7600480360360808110156109c357600080fd5b81019080803590602001909291908035906020019092919080359060200190929190803590602001909291905050506121d9565b005b348015610a0557600080fd5b50610a0e612315565b6040518082815260200191505060405180910390f35b348015610a3057600080fd5b50610a39612339565b6040518082815260200191505060405180910390f35b348015610a5b57600080fd5b50610a9e60048036036020811015610a7257600080fd5b81019080803573ffffffffffffffffffffffffffffffffffffffff169060200190929190505050612340565b6040518082815260200191505060405180910390f35b348015610ac057600080fd5b50610ac9612425565b6040518082815260200191505060405180910390f35b348015610aeb57600080fd5b50610af461242b565b60405180826002811115610b0457fe5b815260200191505060405180910390f35b348015610b2157600080fd5b50610b4e60048036036020811015610b3857600080fd5b810190808035906020019092919050505061243e565b6040518082815260200191505060405180910390f35b348015610b7057600080fd5b50610bbd60048036036040811015610b8757600080fd5b8101908080359060200190929190803573ffffffffffffffffffffffffffffffffffffffff169060200190929190505050612465565b005b348015610bcb57600080fd5b50610c0e60048036036020811015610be257600080fd5b81019080803573ffffffffffffffffffffffffffffffffffffffff1690602001909291905050506124ef565b005b610c18612807565b005b348015610c2657600080fd5b50610c2f612b14565b60405180821515815260200191505060405180910390f35b348015610c5357600080fd5b50610c9660048036036020811015610c6a57600080fd5b81019080803573ffffffffffffffffffffffffffffffffffffffff169060200190929190505050612b23565b005b348015610ca457600080fd5b50610cad612d15565b604051808273ffffffffffffffffffffffffffffffffffffffff16815260200191505060405180910390f35b348015610ce557600080fd5b50610cee612d3b565b005b348015610cfc57600080fd5b50610d3f60048036036020811015610d1357600080fd5b81019080803573ffffffffffffffffffffffffffffffffffffffff169060200190929190505050612e19565b604051808473ffffffffffffffffffffffffffffffffffffffff1681526020018373ffffffffffffffffffffffffffffffffffffffff1681526020018273ffffffffffffffffffffffffffffffffffffffff168152602001935050505060405180910390f35b6000601160009054906101000a900473ffffffffffffffffffffffffffffffffffffffff16905090565b6000610dfb7fdc601cd343c9e7d418b48b40f3a0ff8434a08eca1bd022ca70b09c036310b0aa336121a7565b610e6d576040517f08c379a000000000000000000000000000000000000000000000000000000000815260040180806020018281038252601c8152602001807f596f7520617265206e6f742070617274206f662074686520706163740000000081525060200191505060405180910390fd5b600c60009054906101000a900473ffffffffffffffffffffffffffffffffffffffff16905090565b600060016000838152602001908152602001600020600201549050919050565b610edc6001600084815260200190815260200160002060020154610ed7612e80565b6121a7565b610f31576040517f08c379a000000000000000000000000000000000000000000000000000000000815260040180806020018281038252602f815260200180613eac602f913960400191505060405180910390fd5b610f3b8282612e88565b5050565b610f47612e80565b73ffffffffffffffffffffffffffffffffffffffff16610f6561214c565b73ffffffffffffffffffffffffffffffffffffffff1614610fee576040517f08c379a00000000000000000000000000000000000000000000000000000000081526004018080602001828103825260208152602001807f4f776e61626c653a2063616c6c6572206973206e6f7420746865206f776e657281525060200191505060405180910390fd5b60016002811115610ffb57fe5b601160149054906101000a900460ff16600281111561101657fe5b1461106c576040517f08c379a000000000000000000000000000000000000000000000000000000000815260040180806020018281038252602f815260200180613f01602f913960400191505060405180910390fd5b600082116110e2576040517f08c379a00000000000000000000000000000000000000000000000000000000081526004018080602001828103825260188152602001807f43616e277420757365207a65726f2074696d657374616d70000000000000000081525060200191505060405180910390fd5b60006110ed83612f1c565b90506000601760008673ffffffffffffffffffffffffffffffffffffffff1673ffffffffffffffffffffffffffffffffffffffff168152602001908152602001600020600083815260200190815260200160002054905060008111156111ab5782601960008773ffffffffffffffffffffffffffffffffffffffff1673ffffffffffffffffffffffffffffffffffffffff168152602001908152602001600020828154811061119857fe5b90600052602060002001819055506112f4565b601960008673ffffffffffffffffffffffffffffffffffffffff1673ffffffffffffffffffffffffffffffffffffffff168152602001908152602001600020839080600181540180825580915050600190039060005260206000200160009091909190915055611258601a60008773ffffffffffffffffffffffffffffffffffffffff1673ffffffffffffffffffffffffffffffffffffffff168152602001908152602001600020612f35565b601760008773ffffffffffffffffffffffffffffffffffffffff1673ffffffffffffffffffffffffffffffffffffffff1681526020019081526020016000206000848152602001908152602001600020819055506112f3601a60008773ffffffffffffffffffffffffffffffffffffffff1673ffffffffffffffffffffffffffffffffffffffff168152602001908152602001600020612f43565b5b82601860008773ffffffffffffffffffffffffffffffffffffffff1673ffffffffffffffffffffffffffffffffffffffff168152602001908152602001600020600082825401925050819055508473ffffffffffffffffffffffffffffffffffffffff167fb18ace651b0b213a6f131cfe3efe43ce84d2c0148ccea4ec0ce357c03fe2f706601860008873ffffffffffffffffffffffffffffffffffffffff1673ffffffffffffffffffffffffffffffffffffffff168152602001908152602001600020546040518082815260200191505060405180910390a25050505050565b600e81815481106113e257fe5b906000526020600020016000915054906101000a900473ffffffffffffffffffffffffffffffffffffffff1681565b611419612e80565b73ffffffffffffffffffffffffffffffffffffffff168173ffffffffffffffffffffffffffffffffffffffff161461149c576040517f08c379a000000000000000000000000000000000000000000000000000000000815260040180806020018281038252602f815260200180614025602f913960400191505060405180910390fd5b6114a68282612f59565b5050565b816007600082815260200190815260200160002060009054906101000a900473ffffffffffffffffffffffffffffffffffffffff1673ffffffffffffffffffffffffffffffffffffffff163373ffffffffffffffffffffffffffffffffffffffff1614611562576040517f08c379a0000000000000000000000000000000000000000000000000000000008152600401808060200182810382526028815260200180613ffd6028913960400191505060405180910390fd5b6007600082815260200190815260200160002060006101000a81549073ffffffffffffffffffffffffffffffffffffffff0219169055807f7cc135e0cebb02c3480ae5d74d377283180a2601f8f644edf7987b009316c63a60405160405180910390a2611616601b600085815260200190815260200160002060009054906101000a900473ffffffffffffffffffffffffffffffffffffffff16601c60008681526020019081526020016000205484610f3f565b505050565b600f8054600181600116156101000203166002900480601f0160208091040260200160405190810160405280929190818152602001828054600181600116156101000203166002900480156116b15780601f10611686576101008083540402835291602001916116b1565b820191906000526020600020905b81548152906001019060200180831161169457829003601f168201915b505050505081565b60008060003373ffffffffffffffffffffffffffffffffffffffff1631601d54601160009054906101000a900473ffffffffffffffffffffffffffffffffffffffff1673ffffffffffffffffffffffffffffffffffffffff1631925092509250909192565b601160009054906101000a900473ffffffffffffffffffffffffffffffffffffffff1673ffffffffffffffffffffffffffffffffffffffff166351cff8d9826040518263ffffffff1660e01b8152600401808273ffffffffffffffffffffffffffffffffffffffff168152602001915050600060405180830381600087803b1580156117a957600080fd5b505af11580156117bd573d6000803e3d6000fd5b5050505050565b60606117f07fdc601cd343c9e7d418b48b40f3a0ff8434a08eca1bd022ca70b09c036310b0aa336121a7565b611862576040517f08c379a000000000000000000000000000000000000000000000000000000000815260040180806020018281038252601c8152602001807f596f7520617265206e6f742070617274206f662074686520706163740000000081525060200191505060405180910390fd5b600e8054806020026020016040519081016040528092919081815260200182805480156118e457602002820191906000526020600020905b8160009054906101000a900473ffffffffffffffffffffffffffffffffffffffff1673ffffffffffffffffffffffffffffffffffffffff168152602001906001019080831161189a575b5050505050905090565b606060008273ffffffffffffffffffffffffffffffffffffffff1690506000811415611952576040518060400160405280600181526020017f3000000000000000000000000000000000000000000000000000000000000000815250915050611a4a565b600081905060005b6000821461197c578080600101915050600a828161197457fe5b04915061195a565b60608167ffffffffffffffff8111801561199557600080fd5b506040519080825280601f01601f1916602001820160405280156119c85781602001600182028036833780820191505090505b50905060006001830390505b60008514611a4157600a85816119e657fe5b0660300160f81b82828060019003935081518110611a0057fe5b60200101907effffffffffffffffffffffffffffffffffffffffffffffffffffffffffffff1916908160001a905350600a8581611a3957fe5b0494506119d4565b81955050505050505b919050565b601260009054906101000a900473ffffffffffffffffffffffffffffffffffffffff1673ffffffffffffffffffffffffffffffffffffffff163373ffffffffffffffffffffffffffffffffffffffff1614611b12576040517f08c379a000000000000000000000000000000000000000000000000000000000815260040180806020018281038252601a8152602001807f596f7520617265206e6f742074686520416c61726d436c6f636b00000000000081525060200191505060405180910390fd5b6000611b1c612fed565b90506002601160146101000a81548160ff02191690836002811115611b3d57fe5b02179055508015611b5557611b506130a2565b611b56565b5b50565b7fffea912cee438c2ace68bb665a205db5afc1aaf31713688b377348fe4bfc04f581565b611b85612e80565b73ffffffffffffffffffffffffffffffffffffffff16611ba361214c565b73ffffffffffffffffffffffffffffffffffffffff1614611c2c576040517f08c379a00000000000000000000000000000000000000000000000000000000081526004018080602001828103825260208152602001807f4f776e61626c653a2063616c6c6572206973206e6f7420746865206f776e657281525060200191505060405180910390fd5b600073ffffffffffffffffffffffffffffffffffffffff1660008054906101000a900473ffffffffffffffffffffffffffffffffffffffff1673ffffffffffffffffffffffffffffffffffffffff167f8be0079c531659141344cd1fd0a4f28419497f9722a3daafe3b4186f6b6457e060405160405180910390a360008060006101000a81548173ffffffffffffffffffffffffffffffffffffffff021916908373ffffffffffffffffffffffffffffffffffffffff160217905550565b611d147fdc601cd343c9e7d418b48b40f3a0ff8434a08eca1bd022ca70b09c036310b0aa336121a7565b611d86576040517f08c379a000000000000000000000000000000000000000000000000000000000815260040180806020018281038252601c8152602001807f596f7520617265206e6f742070617274206f662074686520706163740000000081525060200191505060405180910390fd5b6000611d9c334267ffffffffffffffff166130a4565b905033601b600083815260200190815260200160002060006101000a81548173ffffffffffffffffffffffffffffffffffffffff021916908373ffffffffffffffffffffffffffffffffffffffff16021790555050565b6060611e1f7fffea912cee438c2ace68bb665a205db5afc1aaf31713688b377348fe4bfc04f5336121a7565b611e91576040517f08c379a00000000000000000000000000000000000000000000000000000000081526004018080602001828103825260148152602001807f43616c6c6572206973206e6f74206120686f737400000000000000000000000081525060200191505060405180910390fd5b600f8054600181600116156101000203166002900480601f016020809104026020016040519081016040528092919081815260200182805460018160011615610100020316600290048015611f275780601f10611efc57610100808354040283529160200191611f27565b820191906000526020600020905b815481529060010190602001808311611f0a57829003601f168201915b5050505050905090565b600080600080601d54601e54602154602254935093509350935090919293565b6000611f7d7fdc601cd343c9e7d418b48b40f3a0ff8434a08eca1bd022ca70b09c036310b0aa336121a7565b80611fae5750611fad7fffea912cee438c2ace68bb665a205db5afc1aaf31713688b377348fe4bfc04f5336121a7565b5b612020576040517f08c379a000000000000000000000000000000000000000000000000000000000815260040180806020018281038252601c8152602001807f596f7520617265206e6f742070617274206f662074686520706163740000000081525060200191505060405180910390fd5b6001156120b257601160009054906101000a900473ffffffffffffffffffffffffffffffffffffffff1673ffffffffffffffffffffffffffffffffffffffff16638c52dc416040518163ffffffff1660e01b8152600401600060405180830381600087803b15801561209157600080fd5b505af11580156120a5573d6000803e3d6000fd5b5050505060019050612149565b60001561214457601160009054906101000a900473ffffffffffffffffffffffffffffffffffffffff1673ffffffffffffffffffffffffffffffffffffffff166343d726d66040518163ffffffff1660e01b8152600401600060405180830381600087803b15801561212357600080fd5b505af1158015612137573d6000803e3d6000fd5b5050505060029050612149565b600390505b90565b60008060009054906101000a900473ffffffffffffffffffffffffffffffffffffffff16905090565b600061219f826001600086815260200190815260200160002060000161319890919063ffffffff16565b905092915050565b60006121d182600160008681526020019081526020016000206000016131b290919063ffffffff16565b905092915050565b600060028111156121e657fe5b601160149054906101000a900460ff16600281111561220157fe5b14612257576040517f08c379a0000000000000000000000000000000000000000000000000000000008152600401808060200182810382526025815260200180613f536025913960400191505060405180910390fd5b6122817fffea912cee438c2ace68bb665a205db5afc1aaf31713688b377348fe4bfc04f5336121a7565b6122f3576040517f08c379a00000000000000000000000000000000000000000000000000000000081526004018080602001828103825260148152602001807f43616c6c6572206973206e6f74206120686f737400000000000000000000000081525060200191505060405180910390fd5b83601d81905550816021819055508060228190555082601e8190555050505050565b7fdc601cd343c9e7d418b48b40f3a0ff8434a08eca1bd022ca70b09c036310b0aa81565b6000801b81565b600061236c7fdc601cd343c9e7d418b48b40f3a0ff8434a08eca1bd022ca70b09c036310b0aa336121a7565b6123de576040517f08c379a000000000000000000000000000000000000000000000000000000000815260040180806020018281038252601c8152602001807f596f7520617265206e6f742070617274206f662074686520706163740000000081525060200191505060405180910390fd5b601860008373ffffffffffffffffffffffffffffffffffffffff1673ffffffffffffffffffffffffffffffffffffffff168152602001908152602001600020549050919050565b60105481565b601160149054906101000a900460ff1681565b600061245e600160008481526020019081526020016000206000016131e2565b9050919050565b61248c6001600084815260200190815260200160002060020154612487612e80565b6121a7565b6124e1576040517f08c379a0000000000000000000000000000000000000000000000000000000008152600401808060200182810382526030815260200180613f786030913960400191505060405180910390fd5b6124eb8282612f59565b5050565b6124f7612e80565b73ffffffffffffffffffffffffffffffffffffffff1661251561214c565b73ffffffffffffffffffffffffffffffffffffffff161461259e576040517f08c379a00000000000000000000000000000000000000000000000000000000081526004018080602001828103825260208152602001807f4f776e61626c653a2063616c6c6572206973206e6f7420746865206f776e657281525060200191505060405180910390fd5b600d60008273ffffffffffffffffffffffffffffffffffffffff1673ffffffffffffffffffffffffffffffffffffffff16815260200190815260200160002060009054906101000a900460ff161561265e576040517f08c379a000000000000000000000000000000000000000000000000000000000815260040180806020018281038252601a8152602001807f5061727469636970616e7420616c72656164792061646465642100000000000081525060200191505060405180910390fd5b6000600281111561266b57fe5b601160149054906101000a900460ff16600281111561268657fe5b146126dc576040517f08c379a0000000000000000000000000000000000000000000000000000000008152600401808060200182810382526022815260200180613fdb6022913960400191505060405180910390fd5b6001600d60008373ffffffffffffffffffffffffffffffffffffffff1673ffffffffffffffffffffffffffffffffffffffff16815260200190815260200160002060006101000a81548160ff021916908315150217905550600e819080600181540180825580915050600190039060005260206000200160009091909190916101000a81548173ffffffffffffffffffffffffffffffffffffffff021916908373ffffffffffffffffffffffffffffffffffffffff1602179055506127c17fdc601cd343c9e7d418b48b40f3a0ff8434a08eca1bd022ca70b09c036310b0aa826131f7565b8073ffffffffffffffffffffffffffffffffffffffff167fdd56a9ecc283103841750763197ecfa53e844b70f9d91c5496c9f48176b658de60405160405180910390a250565b6000600281111561281457fe5b601160149054906101000a900460ff16600281111561282f57fe5b14612885576040517f08c379a0000000000000000000000000000000000000000000000000000000008152600401808060200182810382526025815260200180613f536025913960400191505060405180910390fd5b6128af7fdc601cd343c9e7d418b48b40f3a0ff8434a08eca1bd022ca70b09c036310b0aa336121a7565b612921576040517f08c379a00000000000000000000000000000000000000000000000000000000081526004018080602001828103825260168152602001807f43616c6c6572206973206e6f74206120667269656e640000000000000000000081525060200191505060405180910390fd5b60003373ffffffffffffffffffffffffffffffffffffffff1631116129ae576040517f08c379a00000000000000000000000000000000000000000000000000000000081526004018080602001828103825260118152602001807f546869732073686f756c6420776f726b3f00000000000000000000000000000081525060200191505060405180910390fd5b601d543373ffffffffffffffffffffffffffffffffffffffff16311015612a20576040517f08c379a0000000000000000000000000000000000000000000000000000000008152600401808060200182810382526033815260200180613fa86033913960400191505060405180910390fd5b601160009054906101000a900473ffffffffffffffffffffffffffffffffffffffff1673ffffffffffffffffffffffffffffffffffffffff1663f340fa0134336040518363ffffffff1660e01b8152600401808273ffffffffffffffffffffffffffffffffffffffff1681526020019150506000604051808303818588803b158015612aab57600080fd5b505af1158015612abf573d6000803e3d6000fd5b50505050503373ffffffffffffffffffffffffffffffffffffffff167f2da466a7b24304f47e87fa2e1e5a81b9831ce54fec19055ce277ca2f39ba42c4346040518082815260200191505060405180910390a2565b6000612b1e612fed565b905090565b612b2b612e80565b73ffffffffffffffffffffffffffffffffffffffff16612b4961214c565b73ffffffffffffffffffffffffffffffffffffffff1614612bd2576040517f08c379a00000000000000000000000000000000000000000000000000000000081526004018080602001828103825260208152602001807f4f776e61626c653a2063616c6c6572206973206e6f7420746865206f776e657281525060200191505060405180910390fd5b600073ffffffffffffffffffffffffffffffffffffffff168173ffffffffffffffffffffffffffffffffffffffff161415612c58576040517f08c379a0000000000000000000000000000000000000000000000000000000008152600401808060200182810382526026815260200180613edb6026913960400191505060405180910390fd5b8073ffffffffffffffffffffffffffffffffffffffff1660008054906101000a900473ffffffffffffffffffffffffffffffffffffffff1673ffffffffffffffffffffffffffffffffffffffff167f8be0079c531659141344cd1fd0a4f28419497f9722a3daafe3b4186f6b6457e060405160405180910390a3806000806101000a81548173ffffffffffffffffffffffffffffffffffffffff021916908373ffffffffffffffffffffffffffffffffffffffff16021790555050565b600c60009054906101000a900473ffffffffffffffffffffffffffffffffffffffff1681565b612d657fffea912cee438c2ace68bb665a205db5afc1aaf31713688b377348fe4bfc04f5336121a7565b612dd7576040517f08c379a00000000000000000000000000000000000000000000000000000000081526004018080602001828103825260148152602001807f596f75206d7573742062652074686520686f737400000000000000000000000081525060200191505060405180910390fd5b6001601160146101000a81548160ff02191690836002811115612df657fe5b021790555042602081905550612e0e42602154613205565b601f60000181905550565b60008060003384600c60009054906101000a900473ffffffffffffffffffffffffffffffffffffffff169250925092509193909250565b6000612e78836000018373ffffffffffffffffffffffffffffffffffffffff1660001b613298565b905092915050565b600033905090565b612eb08160016000858152602001908152602001600020600001612e5090919063ffffffff16565b15612f1857612ebd612e80565b73ffffffffffffffffffffffffffffffffffffffff168173ffffffffffffffffffffffffffffffffffffffff16837f2f8788117e7eff1d82e926ec794901d17c78024a50270940304540a733656f0d60405160405180910390a45b5050565b60006014546014548381612f2c57fe5b04029050919050565b600081600001549050919050565b6001816000016000828254019250508190555050565b612f81816001600085815260200190815260200160002060000161330890919063ffffffff16565b15612fe957612f8e612e80565b73ffffffffffffffffffffffffffffffffffffffff168173ffffffffffffffffffffffffffffffffffffffff16837ff6391f5c32d9c69d2a47ea670b442974b53935d1edc7fd64eb21e047a839171b60405160405180910390a45b5050565b600080600090505b600e8054905081101561309957601e5460186000600e848154811061301657fe5b9060005260206000200160009054906101000a900473ffffffffffffffffffffffffffffffffffffffff1673ffffffffffffffffffffffffffffffffffffffff1673ffffffffffffffffffffffffffffffffffffffff16815260200190815260200160002054101561308c57600091505061309f565b8080600101915050612ff5565b50600190505b90565b565b60006130ae613e02565b6130c260095430634357855e60e01b613338565b90506131166040518060400160405280600481526020017f7573657200000000000000000000000000000000000000000000000000000000815250613106866118ee565b836133699092919063ffffffff16565b6131606040518060400160405280600981526020017f74696d657374616d700000000000000000000000000000000000000000000000815250848361339c9092919063ffffffff16565b61318f600860009054906101000a900473ffffffffffffffffffffffffffffffffffffffff1682600a546133cf565b91505092915050565b60006131a78360000183613658565b60001c905092915050565b60006131da836000018373ffffffffffffffffffffffffffffffffffffffff1660001b6136db565b905092915050565b60006131f0826000016136fe565b9050919050565b6132018282612e88565b5050565b600082821161327c576040517f08c379a00000000000000000000000000000000000000000000000000000000081526004018080602001828103825260138152602001807f456e64206973206265666f72652073746172740000000000000000000000000081525060200191505060405180910390fd5b60008383039050601454818161328e57fe5b0491505092915050565b60006132a483836136db565b6132fd578260000182908060018154018082558091505060019003906000526020600020016000909190919091505582600001805490508360010160008481526020019081526020016000208190555060019050613302565b600090505b92915050565b6000613330836000018373ffffffffffffffffffffffffffffffffffffffff1660001b61370f565b905092915050565b613340613e02565b613348613e02565b61335f858585846137f7909392919063ffffffff16565b9150509392505050565b6133808284608001516138a790919063ffffffff16565b6133978184608001516138a790919063ffffffff16565b505050565b6133b38284608001516138a790919063ffffffff16565b6133ca8184608001516138cc90919063ffffffff16565b505050565b600030600654604051602001808373ffffffffffffffffffffffffffffffffffffffff1660601b815260140182815260200192505050604051602081830303815290604052805190602001209050600654836060018181525050836007600083815260200190815260200160002060006101000a81548173ffffffffffffffffffffffffffffffffffffffff021916908373ffffffffffffffffffffffffffffffffffffffff160217905550807fb5e6e01e79f91267dc17b4e6314d5d4d03593d2ceee0fbb452b750bd70ea5af960405160405180910390a2600460009054906101000a900473ffffffffffffffffffffffffffffffffffffffff1673ffffffffffffffffffffffffffffffffffffffff16634000aea085846134f1876138dc565b6040518463ffffffff1660e01b8152600401808473ffffffffffffffffffffffffffffffffffffffff16815260200183815260200180602001828103825283818151815260200191508051906020019080838360005b83811015613562578082015181840152602081019050613547565b50505050905090810190601f16801561358f5780820380516001836020036101000a031916815260200191505b50945050505050602060405180830381600087803b1580156135b057600080fd5b505af11580156135c4573d6000803e3d6000fd5b505050506040513d60208110156135da57600080fd5b8101908080519060200190929190505050613640576040517f08c379a0000000000000000000000000000000000000000000000000000000008152600401808060200182810382526023815260200180613f306023913960400191505060405180910390fd5b60016006600082825401925050819055509392505050565b6000818360000180549050116136b9576040517f08c379a0000000000000000000000000000000000000000000000000000000008152600401808060200182810382526022815260200180613e8a6022913960400191505060405180910390fd5b8260000182815481106136c857fe5b9060005260206000200154905092915050565b600080836001016000848152602001908152602001600020541415905092915050565b600081600001805490509050919050565b600080836001016000848152602001908152602001600020549050600081146137eb576000600182039050600060018660000180549050039050600086600001828154811061375a57fe5b906000526020600020015490508087600001848154811061377757fe5b90600052602060002001819055506001830187600101600083815260200190815260200160002081905550866000018054806137af57fe5b600190038181906000526020600020016000905590558660010160008781526020019081526020016000206000905560019450505050506137f1565b60009150505b92915050565b6137ff613e02565b61380f8560800151610100613a5d565b508385600001818152505082856020019073ffffffffffffffffffffffffffffffffffffffff16908173ffffffffffffffffffffffffffffffffffffffff16815250508185604001907bffffffffffffffffffffffffffffffffffffffffffffffffffffffff191690817bffffffffffffffffffffffffffffffffffffffffffffffffffffffff191681525050849050949350505050565b6138b48260038351613ab1565b6138c78183613bf690919063ffffffff16565b505050565b6138d882600083613ab1565b5050565b6060634042994660e01b60008084600001518560200151866040015187606001516001896080015160000151604051602401808973ffffffffffffffffffffffffffffffffffffffff1681526020018881526020018781526020018673ffffffffffffffffffffffffffffffffffffffff168152602001857bffffffffffffffffffffffffffffffffffffffffffffffffffffffff1916815260200184815260200183815260200180602001828103825283818151815260200191508051906020019080838360005b838110156139c05780820151818401526020810190506139a5565b50505050905090810190601f1680156139ed5780820380516001836020036101000a031916815260200191505b509950505050505050505050604051602081830303815290604052907bffffffffffffffffffffffffffffffffffffffffffffffffffffffff19166020820180517bffffffffffffffffffffffffffffffffffffffffffffffffffffffff83818316178352505050509050919050565b613a65613e6f565b600060208381613a7157fe5b0614613a8a5760208281613a8157fe5b06602003820191505b81836020018181525050604051808452600081528281016020016040525082905092915050565b60178111613ade57613ad88160058460ff16901b60ff161784613c1890919063ffffffff16565b50613bf1565b60ff8111613b2057613b03601860058460ff16901b1784613c1890919063ffffffff16565b50613b1a81600185613c389092919063ffffffff16565b50613bf0565b61ffff8111613b6357613b46601960058460ff16901b1784613c1890919063ffffffff16565b50613b5d81600285613c389092919063ffffffff16565b50613bef565b63ffffffff8111613ba857613b8b601a60058460ff16901b1784613c1890919063ffffffff16565b50613ba281600485613c389092919063ffffffff16565b50613bee565b67ffffffffffffffff8111613bed57613bd4601b60058460ff16901b1784613c1890919063ffffffff16565b50613beb81600885613c389092919063ffffffff16565b505b5b5b5b5b505050565b613bfe613e6f565b613c1083846000015151848551613c5a565b905092915050565b613c20613e6f565b613c308384600001515184613d13565b905092915050565b613c40613e6f565b613c51848560000151518585613d61565b90509392505050565b613c62613e6f565b8251821115613c7057600080fd5b84602001518285011115613c9b57613c9a856002613c948860200151888701613dc2565b02613dde565b5b600080865180518760208301019350808887011115613cba5787860182525b60208701925050505b60208410613ce65780518252602082019150602081019050602084039350613cc3565b60006001856020036101000a03905080198251168184511681811785525050879350505050949350505050565b613d1b613e6f565b83602001518310613d3857613d37846002866020015102613dde565b5b8351805160208583010184815381861415613d54576001820183525b5050508390509392505050565b613d69613e6f565b84602001518483011115613d8757613d8685600286850102613dde565b5b60006001836101000a0390508551838682010185831982511617815281518588011115613db45784870182525b505085915050949350505050565b600081831115613dd457829050613dd8565b8190505b92915050565b606082600001519050613df18383613a5d565b50613dfc8382613bf6565b50505050565b6040518060a0016040528060008019168152602001600073ffffffffffffffffffffffffffffffffffffffff16815260200160007bffffffffffffffffffffffffffffffffffffffffffffffffffffffff1916815260200160008152602001613e69613e6f565b81525090565b60405180604001604052806060815260200160008152509056fe456e756d657261626c655365743a20696e646578206f7574206f6620626f756e6473416363657373436f6e74726f6c3a2073656e646572206d75737420626520616e2061646d696e20746f206772616e744f776e61626c653a206e6577206f776e657220697320746865207a65726f206164647265737350616374206d757374206265207374617274656420666f7220616e792070726f677265737356322075706461746573756e61626c6520746f207472616e73666572416e6443616c6c20746f206f7261636c6550616374206973206e6f7420616c6c6f77696e6720616e796d6f726520706c656467657321416363657373436f6e74726f6c3a2073656e646572206d75737420626520616e2061646d696e20746f207265766f6b65596f75206e65656420746f20706c65646765206120626974206d6f726520746f2062652062657474657220746f676574686572596f752063616e27742061646420616e796d6f7265207061727469636970616e7473536f75726365206d75737420626520746865206f7261636c65206f66207468652072657175657374416363657373436f6e74726f6c3a2063616e206f6e6c792072656e6f756e636520726f6c657320666f722073656c66a2646970667358221220c9a0f4bccf253038dc20aee453ab2888be9d750724760a129a2fecb48b4bbe5d64736f6c634300060c0033608060405234801561001057600080fd5b506040516114f43803806114f48339818101604052602081101561003357600080fd5b810190808051906020019092919050505060006100546101e360201b60201c565b9050806000806101000a81548173ffffffffffffffffffffffffffffffffffffffff021916908373ffffffffffffffffffffffffffffffffffffffff1602179055508073ffffffffffffffffffffffffffffffffffffffff16600073ffffffffffffffffffffffffffffffffffffffff167f8be0079c531659141344cd1fd0a4f28419497f9722a3daafe3b4186f6b6457e060405160405180910390a350600073ffffffffffffffffffffffffffffffffffffffff168173ffffffffffffffffffffffffffffffffffffffff161415610178576040517f08c379a000000000000000000000000000000000000000000000000000000000815260040180806020018281038252602d8152602001806114c7602d913960400191505060405180910390fd5b80600260016101000a81548173ffffffffffffffffffffffffffffffffffffffff021916908373ffffffffffffffffffffffffffffffffffffffff1602179055506000600260006101000a81548160ff021916908360028111156101d857fe5b0217905550506101eb565b600033905090565b6112cd806101fa6000396000f3fe6080604052600436106100a75760003560e01c80638da5cb5b116100645780638da5cb5b146101ea5780639af6549a1461022b578063c19d93fb14610242578063e3a9db1a14610278578063f2fde38b146102dd578063f340fa011461032e576100a7565b806338af3eed146100ac57806343d726d6146100ed57806351cff8d914610104578063685ca19414610155578063715018a6146101bc5780638c52dc41146101d3575b600080fd5b3480156100b857600080fd5b506100c1610372565b604051808273ffffffffffffffffffffffffffffffffffffffff16815260200191505060405180910390f35b3480156100f957600080fd5b5061010261039c565b005b34801561011057600080fd5b506101536004803603602081101561012757600080fd5b81019080803573ffffffffffffffffffffffffffffffffffffffff169060200190929190505050610512565b005b34801561016157600080fd5b506101a46004803603602081101561017857600080fd5b81019080803573ffffffffffffffffffffffffffffffffffffffff16906020019092919050505061057c565b60405180821515815260200191505060405180910390f35b3480156101c857600080fd5b506101d16105a6565b005b3480156101df57600080fd5b506101e8610713565b005b3480156101f657600080fd5b506101ff61088a565b604051808273ffffffffffffffffffffffffffffffffffffffff16815260200191505060405180910390f35b34801561023757600080fd5b506102406108b3565b005b34801561024e57600080fd5b5061025761095a565b6040518082600281111561026757fe5b815260200191505060405180910390f35b34801561028457600080fd5b506102c76004803603602081101561029b57600080fd5b81019080803573ffffffffffffffffffffffffffffffffffffffff169060200190929190505050610971565b6040518082815260200191505060405180910390f35b3480156102e957600080fd5b5061032c6004803603602081101561030057600080fd5b81019080803573ffffffffffffffffffffffffffffffffffffffff1690602001909291905050506109ba565b005b6103706004803603602081101561034457600080fd5b81019080803573ffffffffffffffffffffffffffffffffffffffff169060200190929190505050610bac565b005b6000600260019054906101000a900473ffffffffffffffffffffffffffffffffffffffff16905090565b6103a4610c2e565b73ffffffffffffffffffffffffffffffffffffffff166103c261088a565b73ffffffffffffffffffffffffffffffffffffffff161461044b576040517f08c379a00000000000000000000000000000000000000000000000000000000081526004018080602001828103825260208152602001807f4f776e61626c653a2063616c6c6572206973206e6f7420746865206f776e657281525060200191505060405180910390fd5b6000600281111561045857fe5b61046061095a565b600281111561046b57fe5b146104c1576040517f08c379a000000000000000000000000000000000000000000000000000000000815260040180806020018281038252602981526020018061123d6029913960400191505060405180910390fd5b60028060006101000a81548160ff021916908360028111156104df57fe5b02179055507f088672c3a6e342f7cd94a65ba63b79df24a8973927b4d05d803c44bbf787d12f60405160405180910390a1565b61051b8161057c565b610570576040517f08c379a000000000000000000000000000000000000000000000000000000000815260040180806020018281038252603381526020018061120a6033913960400191505060405180910390fd5b61057981610c36565b50565b60006001600281111561058b57fe5b61059361095a565b600281111561059e57fe5b149050919050565b6105ae610c2e565b73ffffffffffffffffffffffffffffffffffffffff166105cc61088a565b73ffffffffffffffffffffffffffffffffffffffff1614610655576040517f08c379a00000000000000000000000000000000000000000000000000000000081526004018080602001828103825260208152602001807f4f776e61626c653a2063616c6c6572206973206e6f7420746865206f776e657281525060200191505060405180910390fd5b600073ffffffffffffffffffffffffffffffffffffffff1660008054906101000a900473ffffffffffffffffffffffffffffffffffffffff1673ffffffffffffffffffffffffffffffffffffffff167f8be0079c531659141344cd1fd0a4f28419497f9722a3daafe3b4186f6b6457e060405160405180910390a360008060006101000a81548173ffffffffffffffffffffffffffffffffffffffff021916908373ffffffffffffffffffffffffffffffffffffffff160217905550565b61071b610c2e565b73ffffffffffffffffffffffffffffffffffffffff1661073961088a565b73ffffffffffffffffffffffffffffffffffffffff16146107c2576040517f08c379a00000000000000000000000000000000000000000000000000000000081526004018080602001828103825260208152602001807f4f776e61626c653a2063616c6c6572206973206e6f7420746865206f776e657281525060200191505060405180910390fd5b600060028111156107cf57fe5b6107d761095a565b60028111156107e257fe5b14610838576040517f08c379a00000000000000000000000000000000000000000000000000000000081526004018080602001828103825260328152602001806112666032913960400191505060405180910390fd5b6001600260006101000a81548160ff0219169083600281111561085757fe5b02179055507f599d8e5a83cffb867d051598c4d70e805d59802d8081c1c7d6dffc5b6aca2b8960405160405180910390a1565b60008060009054906101000a900473ffffffffffffffffffffffffffffffffffffffff16905090565b6002808111156108bf57fe5b6108c761095a565b60028111156108d257fe5b14610928576040517f08c379a00000000000000000000000000000000000000000000000000000000081526004018080602001828103825260388152602001806111476038913960400191505060405180910390fd5b61095847610934610372565b73ffffffffffffffffffffffffffffffffffffffff16610de990919063ffffffff16565b565b6000600260009054906101000a900460ff16905090565b6000600160008373ffffffffffffffffffffffffffffffffffffffff1673ffffffffffffffffffffffffffffffffffffffff168152602001908152602001600020549050919050565b6109c2610c2e565b73ffffffffffffffffffffffffffffffffffffffff166109e061088a565b73ffffffffffffffffffffffffffffffffffffffff1614610a69576040517f08c379a00000000000000000000000000000000000000000000000000000000081526004018080602001828103825260208152602001807f4f776e61626c653a2063616c6c6572206973206e6f7420746865206f776e657281525060200191505060405180910390fd5b600073ffffffffffffffffffffffffffffffffffffffff168173ffffffffffffffffffffffffffffffffffffffff161415610aef576040517f08c379a000000000000000000000000000000000000000000000000000000000815260040180806020018281038252602681526020018061117f6026913960400191505060405180910390fd5b8073ffffffffffffffffffffffffffffffffffffffff1660008054906101000a900473ffffffffffffffffffffffffffffffffffffffff1673ffffffffffffffffffffffffffffffffffffffff167f8be0079c531659141344cd1fd0a4f28419497f9722a3daafe3b4186f6b6457e060405160405180910390a3806000806101000a81548173ffffffffffffffffffffffffffffffffffffffff021916908373ffffffffffffffffffffffffffffffffffffffff16021790555050565b60006002811115610bb957fe5b610bc161095a565b6002811115610bcc57fe5b14610c22576040517f08c379a000000000000000000000000000000000000000000000000000000000815260040180806020018281038252602b8152602001806111df602b913960400191505060405180910390fd5b610c2b81610f23565b50565b600033905090565b610c3e610c2e565b73ffffffffffffffffffffffffffffffffffffffff16610c5c61088a565b73ffffffffffffffffffffffffffffffffffffffff1614610ce5576040517f08c379a00000000000000000000000000000000000000000000000000000000081526004018080602001828103825260208152602001807f4f776e61626c653a2063616c6c6572206973206e6f7420746865206f776e657281525060200191505060405180910390fd5b6000600160008373ffffffffffffffffffffffffffffffffffffffff1673ffffffffffffffffffffffffffffffffffffffff1681526020019081526020016000205490506000600160008473ffffffffffffffffffffffffffffffffffffffff1673ffffffffffffffffffffffffffffffffffffffff16815260200190815260200160002081905550610d97818373ffffffffffffffffffffffffffffffffffffffff16610de990919063ffffffff16565b8173ffffffffffffffffffffffffffffffffffffffff167f7084f5476618d8e60b11ef0d7d3f06914655adb8793e28ff7f018d4c76d505d5826040518082815260200191505060405180910390a25050565b80471015610e5f576040517f08c379a000000000000000000000000000000000000000000000000000000000815260040180806020018281038252601d8152602001807f416464726573733a20696e73756666696369656e742062616c616e636500000081525060200191505060405180910390fd5b60008273ffffffffffffffffffffffffffffffffffffffff168260405180600001905060006040518083038185875af1925050503d8060008114610ebf576040519150601f19603f3d011682016040523d82523d6000602084013e610ec4565b606091505b5050905080610f1e576040517f08c379a000000000000000000000000000000000000000000000000000000000815260040180806020018281038252603a8152602001806111a5603a913960400191505060405180910390fd5b505050565b610f2b610c2e565b73ffffffffffffffffffffffffffffffffffffffff16610f4961088a565b73ffffffffffffffffffffffffffffffffffffffff1614610fd2576040517f08c379a00000000000000000000000000000000000000000000000000000000081526004018080602001828103825260208152602001807f4f776e61626c653a2063616c6c6572206973206e6f7420746865206f776e657281525060200191505060405180910390fd5b600034905061102981600160008573ffffffffffffffffffffffffffffffffffffffff1673ffffffffffffffffffffffffffffffffffffffff168152602001908152602001600020546110be90919063ffffffff16565b600160008473ffffffffffffffffffffffffffffffffffffffff1673ffffffffffffffffffffffffffffffffffffffff168152602001908152602001600020819055508173ffffffffffffffffffffffffffffffffffffffff167f2da466a7b24304f47e87fa2e1e5a81b9831ce54fec19055ce277ca2f39ba42c4826040518082815260200191505060405180910390a25050565b60008082840190508381101561113c576040517f08c379a000000000000000000000000000000000000000000000000000000000815260040180806020018281038252601b8152602001807f536166654d6174683a206164646974696f6e206f766572666c6f77000000000081525060200191505060405180910390fd5b809150509291505056fe526566756e64457363726f773a2062656e65666963696172792063616e206f6e6c79207769746864726177207768696c6520636c6f7365644f776e61626c653a206e6577206f776e657220697320746865207a65726f2061646472657373416464726573733a20756e61626c6520746f2073656e642076616c75652c20726563697069656e74206d61792068617665207265766572746564526566756e64457363726f773a2063616e206f6e6c79206465706f736974207768696c6520616374697665436f6e646974696f6e616c457363726f773a207061796565206973206e6f7420616c6c6f77656420746f207769746864726177526566756e64457363726f773a2063616e206f6e6c7920636c6f7365207768696c6520616374697665526566756e64457363726f773a2063616e206f6e6c7920656e61626c6520726566756e6473207768696c6520616374697665a2646970667358221220bf8700275dc5e725c3e43256fb1c37381fedac8c3aa16d9bc61800fc5a109eb064736f6c634300060c0033526566756e64457363726f773a2062656e656669636961727920697320746865207a65726f2061646472657373",
  "linkReferences": {},
  "deployedLinkReferences": {}
}