{
  "_format": "hh-sol-artifact-1",
  "contractName": "Pact",
  "sourceName": "contracts/Pact.sol",
  "abi": [
    {
      "inputs": [
        {
          "internalType": "address payable",
          "name": "_wallet",
          "type": "address"
        },
        {
          "internalType": "address",
          "name": "_host",
          "type": "address"
        },
        {
          "internalType": "uint256",
          "name": "_id",
          "type": "uint256"
        },
        {
          "internalType": "string",
          "name": "_inviteCode",
          "type": "string"
        }
      ],
      "stateMutability": "nonpayable",
      "type": "constructor"
    },
    {
      "anonymous": false,
      "inputs": [
        {
          "indexed": true,
          "internalType": "address",
          "name": "from",
          "type": "address"
        },
        {
          "indexed": false,
          "internalType": "uint256",
          "name": "value",
          "type": "uint256"
        }
      ],
      "name": "Deposited",
      "type": "event"
    },
    {
      "anonymous": false,
      "inputs": [
        {
          "indexed": true,
          "internalType": "address",
          "name": "friend",
          "type": "address"
        }
      ],
      "name": "FriendJoined",
      "type": "event"
    },
    {
      "anonymous": false,
      "inputs": [
        {
          "indexed": true,
          "internalType": "address",
          "name": "previousOwner",
          "type": "address"
        },
        {
          "indexed": true,
          "internalType": "address",
          "name": "newOwner",
          "type": "address"
        }
      ],
      "name": "OwnershipTransferred",
      "type": "event"
    },
    {
      "anonymous": false,
      "inputs": [
        {
          "indexed": false,
          "internalType": "enum Pact.PactState",
          "name": "state",
          "type": "uint8"
        }
      ],
      "name": "PactStatusChanged",
      "type": "event"
    },
    {
      "anonymous": false,
      "inputs": [
        {
          "indexed": true,
          "internalType": "bytes32",
          "name": "role",
          "type": "bytes32"
        },
        {
          "indexed": true,
          "internalType": "bytes32",
          "name": "previousAdminRole",
          "type": "bytes32"
        },
        {
          "indexed": true,
          "internalType": "bytes32",
          "name": "newAdminRole",
          "type": "bytes32"
        }
      ],
      "name": "RoleAdminChanged",
      "type": "event"
    },
    {
      "anonymous": false,
      "inputs": [
        {
          "indexed": true,
          "internalType": "bytes32",
          "name": "role",
          "type": "bytes32"
        },
        {
          "indexed": true,
          "internalType": "address",
          "name": "account",
          "type": "address"
        },
        {
          "indexed": true,
          "internalType": "address",
          "name": "sender",
          "type": "address"
        }
      ],
      "name": "RoleGranted",
      "type": "event"
    },
    {
      "anonymous": false,
      "inputs": [
        {
          "indexed": true,
          "internalType": "bytes32",
          "name": "role",
          "type": "bytes32"
        },
        {
          "indexed": true,
          "internalType": "address",
          "name": "account",
          "type": "address"
        },
        {
          "indexed": true,
          "internalType": "address",
          "name": "sender",
          "type": "address"
        }
      ],
      "name": "RoleRevoked",
      "type": "event"
    },
    {
      "inputs": [],
      "name": "DEFAULT_ADMIN_ROLE",
      "outputs": [
        {
          "internalType": "bytes32",
          "name": "",
          "type": "bytes32"
        }
      ],
      "stateMutability": "view",
      "type": "function"
    },
    {
      "inputs": [],
      "name": "FRIEND_ROLE",
      "outputs": [
        {
          "internalType": "bytes32",
          "name": "",
          "type": "bytes32"
        }
      ],
      "stateMutability": "view",
      "type": "function"
    },
    {
      "inputs": [],
      "name": "HOST_ROLE",
      "outputs": [
        {
          "internalType": "bytes32",
          "name": "",
          "type": "bytes32"
        }
      ],
      "stateMutability": "view",
      "type": "function"
    },
    {
      "inputs": [],
      "name": "enableRefunds",
      "outputs": [
        {
          "internalType": "uint16",
          "name": "",
          "type": "uint16"
        }
      ],
      "stateMutability": "nonpayable",
      "type": "function"
    },
    {
      "inputs": [],
      "name": "finishPact",
      "outputs": [],
      "stateMutability": "nonpayable",
      "type": "function"
    },
    {
      "inputs": [
        {
          "internalType": "address",
          "name": "user",
          "type": "address"
        }
      ],
      "name": "foo",
      "outputs": [
        {
          "internalType": "address",
          "name": "",
          "type": "address"
        },
        {
          "internalType": "address",
          "name": "",
          "type": "address"
        },
        {
          "internalType": "address",
          "name": "",
          "type": "address"
        }
      ],
      "stateMutability": "view",
      "type": "function"
    },
    {
      "inputs": [],
      "name": "getConditions",
      "outputs": [
        {
          "internalType": "uint256",
          "name": "",
          "type": "uint256"
        },
        {
          "internalType": "uint256",
          "name": "",
          "type": "uint256"
        },
        {
          "internalType": "uint256",
          "name": "",
          "type": "uint256"
        }
      ],
      "stateMutability": "view",
      "type": "function"
    },
    {
      "inputs": [],
      "name": "getEscrowAddress",
      "outputs": [
        {
          "internalType": "address",
          "name": "",
          "type": "address"
        }
      ],
      "stateMutability": "view",
      "type": "function"
    },
    {
      "inputs": [],
      "name": "getHost",
      "outputs": [
        {
          "internalType": "address",
          "name": "",
          "type": "address"
        }
      ],
      "stateMutability": "view",
      "type": "function"
    },
    {
      "inputs": [],
      "name": "getMyBalance",
      "outputs": [
        {
          "internalType": "uint256",
          "name": "",
          "type": "uint256"
        },
        {
          "internalType": "uint256",
          "name": "",
          "type": "uint256"
        },
        {
          "internalType": "uint256",
          "name": "",
          "type": "uint256"
        }
      ],
      "stateMutability": "view",
      "type": "function"
    },
    {
      "inputs": [],
      "name": "getParticipants",
      "outputs": [
        {
          "internalType": "address[]",
          "name": "",
          "type": "address[]"
        }
      ],
      "stateMutability": "view",
      "type": "function"
    },
    {
      "inputs": [
        {
          "internalType": "bytes32",
          "name": "role",
          "type": "bytes32"
        }
      ],
      "name": "getRoleAdmin",
      "outputs": [
        {
          "internalType": "bytes32",
          "name": "",
          "type": "bytes32"
        }
      ],
      "stateMutability": "view",
      "type": "function"
    },
    {
      "inputs": [
        {
          "internalType": "bytes32",
          "name": "role",
          "type": "bytes32"
        },
        {
          "internalType": "uint256",
          "name": "index",
          "type": "uint256"
        }
      ],
      "name": "getRoleMember",
      "outputs": [
        {
          "internalType": "address",
          "name": "",
          "type": "address"
        }
      ],
      "stateMutability": "view",
      "type": "function"
    },
    {
      "inputs": [
        {
          "internalType": "bytes32",
          "name": "role",
          "type": "bytes32"
        }
      ],
      "name": "getRoleMemberCount",
      "outputs": [
        {
          "internalType": "uint256",
          "name": "",
          "type": "uint256"
        }
      ],
      "stateMutability": "view",
      "type": "function"
    },
    {
      "inputs": [
        {
          "internalType": "bytes32",
          "name": "role",
          "type": "bytes32"
        },
        {
          "internalType": "address",
          "name": "account",
          "type": "address"
        }
      ],
      "name": "grantRole",
      "outputs": [],
      "stateMutability": "nonpayable",
      "type": "function"
    },
    {
      "inputs": [
        {
          "internalType": "bytes32",
          "name": "role",
          "type": "bytes32"
        },
        {
          "internalType": "address",
          "name": "account",
          "type": "address"
        }
      ],
      "name": "hasRole",
      "outputs": [
        {
          "internalType": "bool",
          "name": "",
          "type": "bool"
        }
      ],
      "stateMutability": "view",
      "type": "function"
    },
    {
      "inputs": [],
      "name": "host",
      "outputs": [
        {
          "internalType": "address",
          "name": "",
          "type": "address"
        }
      ],
      "stateMutability": "view",
      "type": "function"
    },
    {
      "inputs": [],
      "name": "id",
      "outputs": [
        {
          "internalType": "uint256",
          "name": "",
          "type": "uint256"
        }
      ],
      "stateMutability": "view",
      "type": "function"
    },
    {
      "inputs": [],
      "name": "inviteCode",
      "outputs": [
        {
          "internalType": "string",
          "name": "",
          "type": "string"
        }
      ],
      "stateMutability": "view",
      "type": "function"
    },
    {
      "inputs": [],
      "name": "isPactComplete",
      "outputs": [
        {
          "internalType": "bool",
          "name": "",
          "type": "bool"
        }
      ],
      "stateMutability": "view",
      "type": "function"
    },
    {
      "inputs": [
        {
          "internalType": "address",
          "name": "_host",
          "type": "address"
        },
        {
          "internalType": "string",
          "name": "_inviteCode",
          "type": "string"
        }
      ],
      "name": "joinPact",
      "outputs": [],
      "stateMutability": "payable",
      "type": "function"
    },
    {
      "inputs": [],
      "name": "makePledge",
      "outputs": [],
      "stateMutability": "payable",
      "type": "function"
    },
    {
      "inputs": [],
      "name": "owner",
      "outputs": [
        {
          "internalType": "address",
          "name": "",
          "type": "address"
        }
      ],
      "stateMutability": "view",
      "type": "function"
    },
    {
      "inputs": [
        {
          "internalType": "uint256",
          "name": "",
          "type": "uint256"
        }
      ],
      "name": "participants",
      "outputs": [
        {
          "internalType": "address",
          "name": "",
          "type": "address"
        }
      ],
      "stateMutability": "view",
      "type": "function"
    },
    {
      "inputs": [],
      "name": "renounceOwnership",
      "outputs": [],
      "stateMutability": "nonpayable",
      "type": "function"
    },
    {
      "inputs": [
        {
          "internalType": "bytes32",
          "name": "role",
          "type": "bytes32"
        },
        {
          "internalType": "address",
          "name": "account",
          "type": "address"
        }
      ],
      "name": "renounceRole",
      "outputs": [],
      "stateMutability": "nonpayable",
      "type": "function"
    },
    {
      "inputs": [
        {
          "internalType": "bytes32",
          "name": "role",
          "type": "bytes32"
        },
        {
          "internalType": "address",
          "name": "account",
          "type": "address"
        }
      ],
      "name": "revokeRole",
      "outputs": [],
      "stateMutability": "nonpayable",
      "type": "function"
    },
    {
      "inputs": [
        {
          "internalType": "uint256",
          "name": "_minPledge",
          "type": "uint256"
        },
        {
          "internalType": "uint64",
          "name": "_endDateUtc",
          "type": "uint64"
        },
        {
          "internalType": "uint64",
          "name": "_daysPerCheck",
          "type": "uint64"
        }
      ],
      "name": "setConditions",
      "outputs": [],
      "stateMutability": "nonpayable",
      "type": "function"
    },
    {
      "inputs": [],
      "name": "startPact",
      "outputs": [],
      "stateMutability": "nonpayable",
      "type": "function"
    },
    {
      "inputs": [],
      "name": "testAddingStruct",
      "outputs": [],
      "stateMutability": "nonpayable",
      "type": "function"
    },
    {
      "inputs": [
        {
          "internalType": "address",
          "name": "newOwner",
          "type": "address"
        }
      ],
      "name": "transferOwnership",
      "outputs": [],
      "stateMutability": "nonpayable",
      "type": "function"
    },
    {
      "inputs": [],
      "name": "updateProgress",
      "outputs": [],
      "stateMutability": "nonpayable",
      "type": "function"
    },
    {
      "inputs": [
        {
          "internalType": "address payable",
          "name": "payee",
          "type": "address"
        }
      ],
      "name": "withdraw",
      "outputs": [],
      "stateMutability": "nonpayable",
      "type": "function"
    }
  ],
  "bytecode": "0x608060405262015180600b553480156200001857600080fd5b506040516200494938038062004949833981810160405260808110156200003e57600080fd5b81019080805190602001909291908051906020019092919080519060200190929190805160405193929190846401000000008211156200007d57600080fd5b838201915060208201858111156200009457600080fd5b8251866001820283011164010000000082111715620000b257600080fd5b8083526020830192505050908051906020019080838360005b83811015620000e8578082015181840152602081019050620000cb565b50505050905090810190601f168015620001165780820380516001836020036101000a031916815260200191505b5060405250505060006200012f620003b160201b60201c565b9050806000806101000a81548173ffffffffffffffffffffffffffffffffffffffff021916908373ffffffffffffffffffffffffffffffffffffffff1602179055508073ffffffffffffffffffffffffffffffffffffffff16600073ffffffffffffffffffffffffffffffffffffffff167f8be0079c531659141344cd1fd0a4f28419497f9722a3daafe3b4186f6b6457e060405160405180910390a35083600260006101000a81548173ffffffffffffffffffffffffffffffffffffffff021916908373ffffffffffffffffffffffffffffffffffffffff16021790555082600360006101000a81548173ffffffffffffffffffffffffffffffffffffffff021916908373ffffffffffffffffffffffffffffffffffffffff16021790555081600781905550600260009054906101000a900473ffffffffffffffffffffffffffffffffffffffff16604051620002879062000548565b808273ffffffffffffffffffffffffffffffffffffffff168152602001915050604051809103906000f080158015620002c4573d6000803e3d6000fd5b50600860006101000a81548173ffffffffffffffffffffffffffffffffffffffff021916908373ffffffffffffffffffffffffffffffffffffffff16021790555080600690805190602001906200031d92919062000556565b506000600860146101000a81548160ff021916908360028111156200033e57fe5b0217905550620003757fffea912cee438c2ace68bb665a205db5afc1aaf31713688b377348fe4bfc04f584620003b960201b60201c565b620003a77fdc601cd343c9e7d418b48b40f3a0ff8434a08eca1bd022ca70b09c036310b0aa84620003b960201b60201c565b50505050620005fc565b600033905090565b620003cb8282620003cf60201b60201c565b5050565b620003fe81600160008581526020019081526020016000206000016200047360201b6200270a1790919060201c565b156200046f5762000414620003b160201b60201c565b73ffffffffffffffffffffffffffffffffffffffff168173ffffffffffffffffffffffffffffffffffffffff16837f2f8788117e7eff1d82e926ec794901d17c78024a50270940304540a733656f0d60405160405180910390a45b5050565b6000620004a3836000018373ffffffffffffffffffffffffffffffffffffffff1660001b620004ab60201b60201c565b905092915050565b6000620004bf83836200052560201b60201c565b6200051a5782600001829080600181540180825580915050600190039060005260206000200160009091909190915055826000018054905083600101600084815260200190815260200160002081905550600190506200051f565b600090505b92915050565b600080836001016000848152602001908152602001600020541415905092915050565b6114f4806200345583390190565b828054600181600116156101000203166002900490600052602060002090601f016020900481019282601f106200059957805160ff1916838001178555620005ca565b82800160010185558215620005ca579182015b82811115620005c9578251825591602001919060010190620005ac565b5b509050620005d99190620005dd565b5090565b5b80821115620005f8576000816000905550600101620005de565b5090565b612e49806200060c6000396000f3fe6080604052600436106101ee5760003560e01c80638c52dc411161010d578063ca15c873116100a0578063f2fde38b1161006f578063f2fde38b1461093a578063f437bc591461098b578063f60884b1146109cc578063fdf80bda146109e3578063fe19ec9f14610a98576101ee565b8063ca15c87314610859578063d547741f146108a8578063e6ee858014610903578063ec7655081461090d576101ee565b8063a007a562116100dc578063a007a562146107c1578063a217fddf146107ec578063af640d0f14610817578063b490dfb814610842576101ee565b80638c52dc41146106715780638da5cb5b146106a05780639010d07c146106e157806391d1485414610750576101ee565b80634c7389091161018557806368e978b11161015457806368e978b1146105df578063715018a61461060a5780637389e955146106215780637c12362714610638576101ee565b80634c738909146104d257806351cff8d91461050b5780635aa68ac01461055c5780636397a90d146105c8576101ee565b80632f2ff15d116101c15780632f2ff15d1461032757806335c1d3491461038257806336568abe146103e75780634665ad5214610442576101ee565b8063024df028146101f3578063122fd48a1461025657806320bc442514610297578063248a9ca3146102d8575b600080fd5b3480156101ff57600080fd5b506102546004803603606081101561021657600080fd5b8101908080359060200190929190803567ffffffffffffffff169060200190929190803567ffffffffffffffff169060200190929190505050610b73565b005b34801561026257600080fd5b5061026b610cbb565b604051808273ffffffffffffffffffffffffffffffffffffffff16815260200191505060405180910390f35b3480156102a357600080fd5b506102ac610ce5565b604051808273ffffffffffffffffffffffffffffffffffffffff16815260200191505060405180910390f35b3480156102e457600080fd5b50610311600480360360208110156102fb57600080fd5b8101908080359060200190929190505050610dab565b6040518082815260200191505060405180910390f35b34801561033357600080fd5b506103806004803603604081101561034a57600080fd5b8101908080359060200190929190803573ffffffffffffffffffffffffffffffffffffffff169060200190929190505050610dcb565b005b34801561038e57600080fd5b506103bb600480360360208110156103a557600080fd5b8101908080359060200190929190505050610e55565b604051808273ffffffffffffffffffffffffffffffffffffffff16815260200191505060405180910390f35b3480156103f357600080fd5b506104406004803603604081101561040a57600080fd5b8101908080359060200190929190803573ffffffffffffffffffffffffffffffffffffffff169060200190929190505050610e91565b005b34801561044e57600080fd5b50610457610f2a565b6040518080602001828103825283818151815260200191508051906020019080838360005b8381101561049757808201518184015260208101905061047c565b50505050905090810190601f1680156104c45780820380516001836020036101000a031916815260200191505b509250505060405180910390f35b3480156104de57600080fd5b506104e7610fc8565b60405180848152602001838152602001828152602001935050505060405180910390f35b34801561051757600080fd5b5061055a6004803603602081101561052e57600080fd5b81019080803573ffffffffffffffffffffffffffffffffffffffff16906020019092919050505061102d565b005b34801561056857600080fd5b506105716110d3565b6040518080602001828103825283818151815260200191508051906020019060200280838360005b838110156105b4578082015181840152602081019050610599565b505050509050019250505060405180910390f35b3480156105d457600080fd5b506105dd6111fd565b005b3480156105eb57600080fd5b506105f4611307565b6040518082815260200191505060405180910390f35b34801561061657600080fd5b5061061f61132b565b005b34801561062d57600080fd5b50610636611498565b005b34801561064457600080fd5b5061064d611536565b60405180848152602001838152602001828152602001935050505060405180910390f35b34801561067d57600080fd5b5061068661154f565b604051808261ffff16815260200191505060405180910390f35b3480156106ac57600080fd5b506106b561174a565b604051808273ffffffffffffffffffffffffffffffffffffffff16815260200191505060405180910390f35b3480156106ed57600080fd5b506107246004803603604081101561070457600080fd5b810190808035906020019092919080359060200190929190505050611773565b604051808273ffffffffffffffffffffffffffffffffffffffff16815260200191505060405180910390f35b34801561075c57600080fd5b506107a96004803603604081101561077357600080fd5b8101908080359060200190929190803573ffffffffffffffffffffffffffffffffffffffff1690602001909291905050506117a5565b60405180821515815260200191505060405180910390f35b3480156107cd57600080fd5b506107d66117d7565b6040518082815260200191505060405180910390f35b3480156107f857600080fd5b506108016117fb565b6040518082815260200191505060405180910390f35b34801561082357600080fd5b5061082c611802565b6040518082815260200191505060405180910390f35b34801561084e57600080fd5b50610857611808565b005b34801561086557600080fd5b506108926004803603602081101561087c57600080fd5b8101908080359060200190929190505050611a27565b6040518082815260200191505060405180910390f35b3480156108b457600080fd5b50610901600480360360408110156108cb57600080fd5b8101908080359060200190929190803573ffffffffffffffffffffffffffffffffffffffff169060200190929190505050611a4e565b005b61090b611ad8565b005b34801561091957600080fd5b50610922611de5565b60405180821515815260200191505060405180910390f35b34801561094657600080fd5b506109896004803603602081101561095d57600080fd5b81019080803573ffffffffffffffffffffffffffffffffffffffff169060200190929190505050611e14565b005b34801561099757600080fd5b506109a0612006565b604051808273ffffffffffffffffffffffffffffffffffffffff16815260200191505060405180910390f35b3480156109d857600080fd5b506109e161202c565b005b3480156109ef57600080fd5b50610a3260048036036020811015610a0657600080fd5b81019080803573ffffffffffffffffffffffffffffffffffffffff1690602001909291905050506121b7565b604051808473ffffffffffffffffffffffffffffffffffffffff1681526020018373ffffffffffffffffffffffffffffffffffffffff1681526020018273ffffffffffffffffffffffffffffffffffffffff168152602001935050505060405180910390f35b610b7160048036036040811015610aae57600080fd5b81019080803573ffffffffffffffffffffffffffffffffffffffff16906020019092919080359060200190640100000000811115610aeb57600080fd5b820183602082011115610afd57600080fd5b80359060200191846001830284011164010000000083111715610b1f57600080fd5b91908080601f016020809104026020016040519081016040528093929190818152602001838380828437600081840152601f19601f8201169050808301925050505050505091929192905050506121ee565b005b60006002811115610b8057fe5b600860149054906101000a900460ff166002811115610b9b57fe5b14610bf1576040517f08c379a0000000000000000000000000000000000000000000000000000000008152600401808060200182810382526025815260200180612d3b6025913960400191505060405180910390fd5b610c1b7fffea912cee438c2ace68bb665a205db5afc1aaf31713688b377348fe4bfc04f5336117a5565b610c8d576040517f08c379a00000000000000000000000000000000000000000000000000000000081526004018080602001828103825260148152602001807f43616c6c6572206973206e6f74206120686f737400000000000000000000000081525060200191505060405180910390fd5b82600f819055508167ffffffffffffffff166012819055508067ffffffffffffffff16601381905550505050565b6000600860009054906101000a900473ffffffffffffffffffffffffffffffffffffffff16905090565b6000610d117fdc601cd343c9e7d418b48b40f3a0ff8434a08eca1bd022ca70b09c036310b0aa336117a5565b610d83576040517f08c379a000000000000000000000000000000000000000000000000000000000815260040180806020018281038252601c8152602001807f596f7520617265206e6f742070617274206f662074686520706163740000000081525060200191505060405180910390fd5b600360009054906101000a900473ffffffffffffffffffffffffffffffffffffffff16905090565b600060016000838152602001908152602001600020600201549050919050565b610df26001600084815260200190815260200160002060020154610ded61273a565b6117a5565b610e47576040517f08c379a000000000000000000000000000000000000000000000000000000000815260040180806020018281038252602f815260200180612ce6602f913960400191505060405180910390fd5b610e518282612742565b5050565b60058181548110610e6257fe5b906000526020600020016000915054906101000a900473ffffffffffffffffffffffffffffffffffffffff1681565b610e9961273a565b73ffffffffffffffffffffffffffffffffffffffff168173ffffffffffffffffffffffffffffffffffffffff1614610f1c576040517f08c379a000000000000000000000000000000000000000000000000000000000815260040180806020018281038252602f815260200180612de5602f913960400191505060405180910390fd5b610f2682826127d6565b5050565b60068054600181600116156101000203166002900480601f016020809104026020016040519081016040528092919081815260200182805460018160011615610100020316600290048015610fc05780601f10610f9557610100808354040283529160200191610fc0565b820191906000526020600020905b815481529060010190602001808311610fa357829003601f168201915b505050505081565b60008060003373ffffffffffffffffffffffffffffffffffffffff1631600f54600860009054906101000a900473ffffffffffffffffffffffffffffffffffffffff1673ffffffffffffffffffffffffffffffffffffffff1631925092509250909192565b600860009054906101000a900473ffffffffffffffffffffffffffffffffffffffff1673ffffffffffffffffffffffffffffffffffffffff166351cff8d9826040518263ffffffff1660e01b8152600401808273ffffffffffffffffffffffffffffffffffffffff168152602001915050600060405180830381600087803b1580156110b857600080fd5b505af11580156110cc573d6000803e3d6000fd5b5050505050565b60606110ff7fdc601cd343c9e7d418b48b40f3a0ff8434a08eca1bd022ca70b09c036310b0aa336117a5565b611171576040517f08c379a000000000000000000000000000000000000000000000000000000000815260040180806020018281038252601c8152602001807f596f7520617265206e6f742070617274206f662074686520706163740000000081525060200191505060405180910390fd5b60058054806020026020016040519081016040528092919081815260200182805480156111f357602002820191906000526020600020905b8160009054906101000a900473ffffffffffffffffffffffffffffffffffffffff1673ffffffffffffffffffffffffffffffffffffffff16815260200190600101908083116111a9575b5050505050905090565b600960009054906101000a900473ffffffffffffffffffffffffffffffffffffffff1673ffffffffffffffffffffffffffffffffffffffff163373ffffffffffffffffffffffffffffffffffffffff16146112c0576040517f08c379a000000000000000000000000000000000000000000000000000000000815260040180806020018281038252601a8152602001807f596f7520617265206e6f742074686520416c61726d436c6f636b00000000000081525060200191505060405180910390fd5b60006112ca61286a565b90506002600860146101000a81548160ff021916908360028111156112eb57fe5b02179055508015611303576112fe61286f565b611304565b5b50565b7fffea912cee438c2ace68bb665a205db5afc1aaf31713688b377348fe4bfc04f581565b61133361273a565b73ffffffffffffffffffffffffffffffffffffffff1661135161174a565b73ffffffffffffffffffffffffffffffffffffffff16146113da576040517f08c379a00000000000000000000000000000000000000000000000000000000081526004018080602001828103825260208152602001807f4f776e61626c653a2063616c6c6572206973206e6f7420746865206f776e657281525060200191505060405180910390fd5b600073ffffffffffffffffffffffffffffffffffffffff1660008054906101000a900473ffffffffffffffffffffffffffffffffffffffff1673ffffffffffffffffffffffffffffffffffffffff167f8be0079c531659141344cd1fd0a4f28419497f9722a3daafe3b4186f6b6457e060405160405180910390a360008060006101000a81548173ffffffffffffffffffffffffffffffffffffffff021916908373ffffffffffffffffffffffffffffffffffffffff160217905550565b6114c27fdc601cd343c9e7d418b48b40f3a0ff8434a08eca1bd022ca70b09c036310b0aa336117a5565b611534576040517f08c379a000000000000000000000000000000000000000000000000000000000815260040180806020018281038252601c8152602001807f596f7520617265206e6f742070617274206f662074686520706163740000000081525060200191505060405180910390fd5b565b6000806000600f54601254601354925092509250909192565b600061157b7fdc601cd343c9e7d418b48b40f3a0ff8434a08eca1bd022ca70b09c036310b0aa336117a5565b806115ac57506115ab7fffea912cee438c2ace68bb665a205db5afc1aaf31713688b377348fe4bfc04f5336117a5565b5b61161e576040517f08c379a000000000000000000000000000000000000000000000000000000000815260040180806020018281038252601c8152602001807f596f7520617265206e6f742070617274206f662074686520706163740000000081525060200191505060405180910390fd5b6001156116b057600860009054906101000a900473ffffffffffffffffffffffffffffffffffffffff1673ffffffffffffffffffffffffffffffffffffffff16638c52dc416040518163ffffffff1660e01b8152600401600060405180830381600087803b15801561168f57600080fd5b505af11580156116a3573d6000803e3d6000fd5b5050505060019050611747565b60001561174257600860009054906101000a900473ffffffffffffffffffffffffffffffffffffffff1673ffffffffffffffffffffffffffffffffffffffff166343d726d66040518163ffffffff1660e01b8152600401600060405180830381600087803b15801561172157600080fd5b505af1158015611735573d6000803e3d6000fd5b5050505060029050611747565b600390505b90565b60008060009054906101000a900473ffffffffffffffffffffffffffffffffffffffff16905090565b600061179d826001600086815260200190815260200160002060000161287190919063ffffffff16565b905092915050565b60006117cf826001600086815260200190815260200160002060000161288b90919063ffffffff16565b905092915050565b7fdc601cd343c9e7d418b48b40f3a0ff8434a08eca1bd022ca70b09c036310b0aa81565b6000801b81565b60075481565b6000600d60003373ffffffffffffffffffffffffffffffffffffffff1673ffffffffffffffffffffffffffffffffffffffff16815260200190815260200160002080549050146118c0576040517f08c379a000000000000000000000000000000000000000000000000000000000815260040180806020018281038252601d8152602001807f596f7520616c726561647920676f7420616464656420736f6d65686f7700000081525060200191505060405180910390fd5b600d60003373ffffffffffffffffffffffffffffffffffffffff1673ffffffffffffffffffffffffffffffffffffffff168152602001908152602001600020600090806001815401808255809150506001900390600052602060002090602091828204019190069091909190916101000a81548160ff021916908360ff16021790555061198a600e60003373ffffffffffffffffffffffffffffffffffffffff1673ffffffffffffffffffffffffffffffffffffffff1681526020019081526020016000206128bb565b600c60003373ffffffffffffffffffffffffffffffffffffffff1673ffffffffffffffffffffffffffffffffffffffff168152602001908152602001600020600080815260200190815260200160002081905550611a25600e60003373ffffffffffffffffffffffffffffffffffffffff1673ffffffffffffffffffffffffffffffffffffffff1681526020019081526020016000206128c9565b565b6000611a47600160008481526020019081526020016000206000016128df565b9050919050565b611a756001600084815260200190815260200160002060020154611a7061273a565b6117a5565b611aca576040517f08c379a0000000000000000000000000000000000000000000000000000000008152600401808060200182810382526030815260200180612d606030913960400191505060405180910390fd5b611ad482826127d6565b5050565b60006002811115611ae557fe5b600860149054906101000a900460ff166002811115611b0057fe5b14611b56576040517f08c379a0000000000000000000000000000000000000000000000000000000008152600401808060200182810382526025815260200180612d3b6025913960400191505060405180910390fd5b611b807fdc601cd343c9e7d418b48b40f3a0ff8434a08eca1bd022ca70b09c036310b0aa336117a5565b611bf2576040517f08c379a00000000000000000000000000000000000000000000000000000000081526004018080602001828103825260168152602001807f43616c6c6572206973206e6f74206120667269656e640000000000000000000081525060200191505060405180910390fd5b60003373ffffffffffffffffffffffffffffffffffffffff163111611c7f576040517f08c379a00000000000000000000000000000000000000000000000000000000081526004018080602001828103825260118152602001807f546869732073686f756c6420776f726b3f00000000000000000000000000000081525060200191505060405180910390fd5b600f543373ffffffffffffffffffffffffffffffffffffffff16311015611cf1576040517f08c379a0000000000000000000000000000000000000000000000000000000008152600401808060200182810382526033815260200180612d906033913960400191505060405180910390fd5b600860009054906101000a900473ffffffffffffffffffffffffffffffffffffffff1673ffffffffffffffffffffffffffffffffffffffff1663f340fa0134336040518363ffffffff1660e01b8152600401808273ffffffffffffffffffffffffffffffffffffffff1681526020019150506000604051808303818588803b158015611d7c57600080fd5b505af1158015611d90573d6000803e3d6000fd5b50505050503373ffffffffffffffffffffffffffffffffffffffff167f2da466a7b24304f47e87fa2e1e5a81b9831ce54fec19055ce277ca2f39ba42c4346040518082815260200191505060405180910390a2565b6000600280811115611df357fe5b600860149054906101000a900460ff166002811115611e0e57fe5b14905090565b611e1c61273a565b73ffffffffffffffffffffffffffffffffffffffff16611e3a61174a565b73ffffffffffffffffffffffffffffffffffffffff1614611ec3576040517f08c379a00000000000000000000000000000000000000000000000000000000081526004018080602001828103825260208152602001807f4f776e61626c653a2063616c6c6572206973206e6f7420746865206f776e657281525060200191505060405180910390fd5b600073ffffffffffffffffffffffffffffffffffffffff168173ffffffffffffffffffffffffffffffffffffffff161415611f49576040517f08c379a0000000000000000000000000000000000000000000000000000000008152600401808060200182810382526026815260200180612d156026913960400191505060405180910390fd5b8073ffffffffffffffffffffffffffffffffffffffff1660008054906101000a900473ffffffffffffffffffffffffffffffffffffffff1673ffffffffffffffffffffffffffffffffffffffff167f8be0079c531659141344cd1fd0a4f28419497f9722a3daafe3b4186f6b6457e060405160405180910390a3806000806101000a81548173ffffffffffffffffffffffffffffffffffffffff021916908373ffffffffffffffffffffffffffffffffffffffff16021790555050565b600360009054906101000a900473ffffffffffffffffffffffffffffffffffffffff1681565b6120567fffea912cee438c2ace68bb665a205db5afc1aaf31713688b377348fe4bfc04f5336117a5565b6120c8576040517f08c379a00000000000000000000000000000000000000000000000000000000081526004018080602001828103825260148152602001807f596f75206d7573742062652074686520686f737400000000000000000000000081525060200191505060405180910390fd5b600a60009054906101000a900473ffffffffffffffffffffffffffffffffffffffff1673ffffffffffffffffffffffffffffffffffffffff1663af1dd382306012546040518363ffffffff1660e01b8152600401808373ffffffffffffffffffffffffffffffffffffffff16815260200182815260200192505050600060405180830381600087803b15801561215d57600080fd5b505af1158015612171573d6000803e3d6000fd5b505050506001600860146101000a81548160ff0219169083600281111561219457fe5b0217905550426011819055506121ac426012546128f4565b601060000181905550565b60008060003384600360009054906101000a900473ffffffffffffffffffffffffffffffffffffffff169250925092509193909250565b600460003373ffffffffffffffffffffffffffffffffffffffff1673ffffffffffffffffffffffffffffffffffffffff16815260200190815260200160002060009054906101000a900460ff16156122ae576040517f08c379a000000000000000000000000000000000000000000000000000000000815260040180806020018281038252601a8152602001807f5061727469636970616e7420616c72656164792061646465642100000000000081525060200191505060405180910390fd5b600060028111156122bb57fe5b600860149054906101000a900460ff1660028111156122d657fe5b1461232c576040517f08c379a0000000000000000000000000000000000000000000000000000000008152600401808060200182810382526022815260200180612dc36022913960400191505060405180910390fd5b8173ffffffffffffffffffffffffffffffffffffffff16600360009054906101000a900473ffffffffffffffffffffffffffffffffffffffff1673ffffffffffffffffffffffffffffffffffffffff16148015612429575061242860068054600181600116156101000203166002900480601f01602080910402602001604051908101604052809291908181526020018280546001816001161561010002031660029004801561241d5780601f106123f25761010080835404028352916020019161241d565b820191906000526020600020905b81548152906001019060200180831161240057829003601f168201915b505050505082612987565b5b61249b576040517f08c379a00000000000000000000000000000000000000000000000000000000081526004018080602001828103825260148152602001807f496e76616c696420686f7374206f7220636f646500000000000000000000000081525060200191505060405180910390fd5b6001600460003373ffffffffffffffffffffffffffffffffffffffff1673ffffffffffffffffffffffffffffffffffffffff16815260200190815260200160002060006101000a81548160ff0219169083151502179055506005339080600181540180825580915050600190039060005260206000200160009091909190916101000a81548173ffffffffffffffffffffffffffffffffffffffff021916908373ffffffffffffffffffffffffffffffffffffffff1602179055506125807fdc601cd343c9e7d418b48b40f3a0ff8434a08eca1bd022ca70b09c036310b0aa33612a76565b600f543373ffffffffffffffffffffffffffffffffffffffff163110156125f2576040517f08c379a0000000000000000000000000000000000000000000000000000000008152600401808060200182810382526033815260200180612d906033913960400191505060405180910390fd5b600860009054906101000a900473ffffffffffffffffffffffffffffffffffffffff1673ffffffffffffffffffffffffffffffffffffffff1663f340fa0134600260009054906101000a900473ffffffffffffffffffffffffffffffffffffffff166040518363ffffffff1660e01b8152600401808273ffffffffffffffffffffffffffffffffffffffff1681526020019150506000604051808303818588803b15801561269f57600080fd5b505af11580156126b3573d6000803e3d6000fd5b50505050503373ffffffffffffffffffffffffffffffffffffffff167f2da466a7b24304f47e87fa2e1e5a81b9831ce54fec19055ce277ca2f39ba42c4346040518082815260200191505060405180910390a25050565b6000612732836000018373ffffffffffffffffffffffffffffffffffffffff1660001b612a84565b905092915050565b600033905090565b61276a816001600085815260200190815260200160002060000161270a90919063ffffffff16565b156127d25761277761273a565b73ffffffffffffffffffffffffffffffffffffffff168173ffffffffffffffffffffffffffffffffffffffff16837f2f8788117e7eff1d82e926ec794901d17c78024a50270940304540a733656f0d60405160405180910390a45b5050565b6127fe8160016000858152602001908152602001600020600001612af490919063ffffffff16565b156128665761280b61273a565b73ffffffffffffffffffffffffffffffffffffffff168173ffffffffffffffffffffffffffffffffffffffff16837ff6391f5c32d9c69d2a47ea670b442974b53935d1edc7fd64eb21e047a839171b60405160405180910390a45b5050565b600090565b565b60006128808360000183612b24565b60001c905092915050565b60006128b3836000018373ffffffffffffffffffffffffffffffffffffffff1660001b612ba7565b905092915050565b600081600001549050919050565b6001816000016000828254019250508190555050565b60006128ed82600001612bca565b9050919050565b600082821161296b576040517f08c379a00000000000000000000000000000000000000000000000000000000081526004018080602001828103825260138152602001807f456e64206973206265666f72652073746172740000000000000000000000000081525060200191505060405180910390fd5b60008383039050600b54818161297d57fe5b0491505092915050565b6000816040516020018082805190602001908083835b602083106129c0578051825260208201915060208101905060208303925061299d565b6001836020036101000a03801982511681845116808217855250505050505090500191505060405160208183030381529060405280519060200120836040516020018082805190602001908083835b60208310612a325780518252602082019150602081019050602083039250612a0f565b6001836020036101000a0380198251168184511680821785525050505050509050019150506040516020818303038152906040528051906020012014905092915050565b612a808282612742565b5050565b6000612a908383612ba7565b612ae9578260000182908060018154018082558091505060019003906000526020600020016000909190919091505582600001805490508360010160008481526020019081526020016000208190555060019050612aee565b600090505b92915050565b6000612b1c836000018373ffffffffffffffffffffffffffffffffffffffff1660001b612bdb565b905092915050565b600081836000018054905011612b85576040517f08c379a0000000000000000000000000000000000000000000000000000000008152600401808060200182810382526022815260200180612cc46022913960400191505060405180910390fd5b826000018281548110612b9457fe5b9060005260206000200154905092915050565b600080836001016000848152602001908152602001600020541415905092915050565b600081600001805490509050919050565b60008083600101600084815260200190815260200160002054905060008114612cb75760006001820390506000600186600001805490500390506000866000018281548110612c2657fe5b9060005260206000200154905080876000018481548110612c4357fe5b9060005260206000200181905550600183018760010160008381526020019081526020016000208190555086600001805480612c7b57fe5b60019003818190600052602060002001600090559055866001016000878152602001908152602001600020600090556001945050505050612cbd565b60009150505b9291505056fe456e756d657261626c655365743a20696e646578206f7574206f6620626f756e6473416363657373436f6e74726f6c3a2073656e646572206d75737420626520616e2061646d696e20746f206772616e744f776e61626c653a206e6577206f776e657220697320746865207a65726f206164647265737350616374206973206e6f7420616c6c6f77696e6720616e796d6f726520706c656467657321416363657373436f6e74726f6c3a2073656e646572206d75737420626520616e2061646d696e20746f207265766f6b65596f75206e65656420746f20706c65646765206120626974206d6f726520746f2062652062657474657220746f676574686572596f752063616e27742061646420616e796d6f7265207061727469636970616e7473416363657373436f6e74726f6c3a2063616e206f6e6c792072656e6f756e636520726f6c657320666f722073656c66a2646970667358221220d8d7b989f251e8b961f62919dc778f6ffef127580ea423de2fac168df688e0d064736f6c634300060c0033608060405234801561001057600080fd5b506040516114f43803806114f48339818101604052602081101561003357600080fd5b810190808051906020019092919050505060006100546101e360201b60201c565b9050806000806101000a81548173ffffffffffffffffffffffffffffffffffffffff021916908373ffffffffffffffffffffffffffffffffffffffff1602179055508073ffffffffffffffffffffffffffffffffffffffff16600073ffffffffffffffffffffffffffffffffffffffff167f8be0079c531659141344cd1fd0a4f28419497f9722a3daafe3b4186f6b6457e060405160405180910390a350600073ffffffffffffffffffffffffffffffffffffffff168173ffffffffffffffffffffffffffffffffffffffff161415610178576040517f08c379a000000000000000000000000000000000000000000000000000000000815260040180806020018281038252602d8152602001806114c7602d913960400191505060405180910390fd5b80600260016101000a81548173ffffffffffffffffffffffffffffffffffffffff021916908373ffffffffffffffffffffffffffffffffffffffff1602179055506000600260006101000a81548160ff021916908360028111156101d857fe5b0217905550506101eb565b600033905090565b6112cd806101fa6000396000f3fe6080604052600436106100a75760003560e01c80638da5cb5b116100645780638da5cb5b146101ea5780639af6549a1461022b578063c19d93fb14610242578063e3a9db1a14610278578063f2fde38b146102dd578063f340fa011461032e576100a7565b806338af3eed146100ac57806343d726d6146100ed57806351cff8d914610104578063685ca19414610155578063715018a6146101bc5780638c52dc41146101d3575b600080fd5b3480156100b857600080fd5b506100c1610372565b604051808273ffffffffffffffffffffffffffffffffffffffff16815260200191505060405180910390f35b3480156100f957600080fd5b5061010261039c565b005b34801561011057600080fd5b506101536004803603602081101561012757600080fd5b81019080803573ffffffffffffffffffffffffffffffffffffffff169060200190929190505050610512565b005b34801561016157600080fd5b506101a46004803603602081101561017857600080fd5b81019080803573ffffffffffffffffffffffffffffffffffffffff16906020019092919050505061057c565b60405180821515815260200191505060405180910390f35b3480156101c857600080fd5b506101d16105a6565b005b3480156101df57600080fd5b506101e8610713565b005b3480156101f657600080fd5b506101ff61088a565b604051808273ffffffffffffffffffffffffffffffffffffffff16815260200191505060405180910390f35b34801561023757600080fd5b506102406108b3565b005b34801561024e57600080fd5b5061025761095a565b6040518082600281111561026757fe5b815260200191505060405180910390f35b34801561028457600080fd5b506102c76004803603602081101561029b57600080fd5b81019080803573ffffffffffffffffffffffffffffffffffffffff169060200190929190505050610971565b6040518082815260200191505060405180910390f35b3480156102e957600080fd5b5061032c6004803603602081101561030057600080fd5b81019080803573ffffffffffffffffffffffffffffffffffffffff1690602001909291905050506109ba565b005b6103706004803603602081101561034457600080fd5b81019080803573ffffffffffffffffffffffffffffffffffffffff169060200190929190505050610bac565b005b6000600260019054906101000a900473ffffffffffffffffffffffffffffffffffffffff16905090565b6103a4610c2e565b73ffffffffffffffffffffffffffffffffffffffff166103c261088a565b73ffffffffffffffffffffffffffffffffffffffff161461044b576040517f08c379a00000000000000000000000000000000000000000000000000000000081526004018080602001828103825260208152602001807f4f776e61626c653a2063616c6c6572206973206e6f7420746865206f776e657281525060200191505060405180910390fd5b6000600281111561045857fe5b61046061095a565b600281111561046b57fe5b146104c1576040517f08c379a000000000000000000000000000000000000000000000000000000000815260040180806020018281038252602981526020018061123d6029913960400191505060405180910390fd5b60028060006101000a81548160ff021916908360028111156104df57fe5b02179055507f088672c3a6e342f7cd94a65ba63b79df24a8973927b4d05d803c44bbf787d12f60405160405180910390a1565b61051b8161057c565b610570576040517f08c379a000000000000000000000000000000000000000000000000000000000815260040180806020018281038252603381526020018061120a6033913960400191505060405180910390fd5b61057981610c36565b50565b60006001600281111561058b57fe5b61059361095a565b600281111561059e57fe5b149050919050565b6105ae610c2e565b73ffffffffffffffffffffffffffffffffffffffff166105cc61088a565b73ffffffffffffffffffffffffffffffffffffffff1614610655576040517f08c379a00000000000000000000000000000000000000000000000000000000081526004018080602001828103825260208152602001807f4f776e61626c653a2063616c6c6572206973206e6f7420746865206f776e657281525060200191505060405180910390fd5b600073ffffffffffffffffffffffffffffffffffffffff1660008054906101000a900473ffffffffffffffffffffffffffffffffffffffff1673ffffffffffffffffffffffffffffffffffffffff167f8be0079c531659141344cd1fd0a4f28419497f9722a3daafe3b4186f6b6457e060405160405180910390a360008060006101000a81548173ffffffffffffffffffffffffffffffffffffffff021916908373ffffffffffffffffffffffffffffffffffffffff160217905550565b61071b610c2e565b73ffffffffffffffffffffffffffffffffffffffff1661073961088a565b73ffffffffffffffffffffffffffffffffffffffff16146107c2576040517f08c379a00000000000000000000000000000000000000000000000000000000081526004018080602001828103825260208152602001807f4f776e61626c653a2063616c6c6572206973206e6f7420746865206f776e657281525060200191505060405180910390fd5b600060028111156107cf57fe5b6107d761095a565b60028111156107e257fe5b14610838576040517f08c379a00000000000000000000000000000000000000000000000000000000081526004018080602001828103825260328152602001806112666032913960400191505060405180910390fd5b6001600260006101000a81548160ff0219169083600281111561085757fe5b02179055507f599d8e5a83cffb867d051598c4d70e805d59802d8081c1c7d6dffc5b6aca2b8960405160405180910390a1565b60008060009054906101000a900473ffffffffffffffffffffffffffffffffffffffff16905090565b6002808111156108bf57fe5b6108c761095a565b60028111156108d257fe5b14610928576040517f08c379a00000000000000000000000000000000000000000000000000000000081526004018080602001828103825260388152602001806111476038913960400191505060405180910390fd5b61095847610934610372565b73ffffffffffffffffffffffffffffffffffffffff16610de990919063ffffffff16565b565b6000600260009054906101000a900460ff16905090565b6000600160008373ffffffffffffffffffffffffffffffffffffffff1673ffffffffffffffffffffffffffffffffffffffff168152602001908152602001600020549050919050565b6109c2610c2e565b73ffffffffffffffffffffffffffffffffffffffff166109e061088a565b73ffffffffffffffffffffffffffffffffffffffff1614610a69576040517f08c379a00000000000000000000000000000000000000000000000000000000081526004018080602001828103825260208152602001807f4f776e61626c653a2063616c6c6572206973206e6f7420746865206f776e657281525060200191505060405180910390fd5b600073ffffffffffffffffffffffffffffffffffffffff168173ffffffffffffffffffffffffffffffffffffffff161415610aef576040517f08c379a000000000000000000000000000000000000000000000000000000000815260040180806020018281038252602681526020018061117f6026913960400191505060405180910390fd5b8073ffffffffffffffffffffffffffffffffffffffff1660008054906101000a900473ffffffffffffffffffffffffffffffffffffffff1673ffffffffffffffffffffffffffffffffffffffff167f8be0079c531659141344cd1fd0a4f28419497f9722a3daafe3b4186f6b6457e060405160405180910390a3806000806101000a81548173ffffffffffffffffffffffffffffffffffffffff021916908373ffffffffffffffffffffffffffffffffffffffff16021790555050565b60006002811115610bb957fe5b610bc161095a565b6002811115610bcc57fe5b14610c22576040517f08c379a000000000000000000000000000000000000000000000000000000000815260040180806020018281038252602b8152602001806111df602b913960400191505060405180910390fd5b610c2b81610f23565b50565b600033905090565b610c3e610c2e565b73ffffffffffffffffffffffffffffffffffffffff16610c5c61088a565b73ffffffffffffffffffffffffffffffffffffffff1614610ce5576040517f08c379a00000000000000000000000000000000000000000000000000000000081526004018080602001828103825260208152602001807f4f776e61626c653a2063616c6c6572206973206e6f7420746865206f776e657281525060200191505060405180910390fd5b6000600160008373ffffffffffffffffffffffffffffffffffffffff1673ffffffffffffffffffffffffffffffffffffffff1681526020019081526020016000205490506000600160008473ffffffffffffffffffffffffffffffffffffffff1673ffffffffffffffffffffffffffffffffffffffff16815260200190815260200160002081905550610d97818373ffffffffffffffffffffffffffffffffffffffff16610de990919063ffffffff16565b8173ffffffffffffffffffffffffffffffffffffffff167f7084f5476618d8e60b11ef0d7d3f06914655adb8793e28ff7f018d4c76d505d5826040518082815260200191505060405180910390a25050565b80471015610e5f576040517f08c379a000000000000000000000000000000000000000000000000000000000815260040180806020018281038252601d8152602001807f416464726573733a20696e73756666696369656e742062616c616e636500000081525060200191505060405180910390fd5b60008273ffffffffffffffffffffffffffffffffffffffff168260405180600001905060006040518083038185875af1925050503d8060008114610ebf576040519150601f19603f3d011682016040523d82523d6000602084013e610ec4565b606091505b5050905080610f1e576040517f08c379a000000000000000000000000000000000000000000000000000000000815260040180806020018281038252603a8152602001806111a5603a913960400191505060405180910390fd5b505050565b610f2b610c2e565b73ffffffffffffffffffffffffffffffffffffffff16610f4961088a565b73ffffffffffffffffffffffffffffffffffffffff1614610fd2576040517f08c379a00000000000000000000000000000000000000000000000000000000081526004018080602001828103825260208152602001807f4f776e61626c653a2063616c6c6572206973206e6f7420746865206f776e657281525060200191505060405180910390fd5b600034905061102981600160008573ffffffffffffffffffffffffffffffffffffffff1673ffffffffffffffffffffffffffffffffffffffff168152602001908152602001600020546110be90919063ffffffff16565b600160008473ffffffffffffffffffffffffffffffffffffffff1673ffffffffffffffffffffffffffffffffffffffff168152602001908152602001600020819055508173ffffffffffffffffffffffffffffffffffffffff167f2da466a7b24304f47e87fa2e1e5a81b9831ce54fec19055ce277ca2f39ba42c4826040518082815260200191505060405180910390a25050565b60008082840190508381101561113c576040517f08c379a000000000000000000000000000000000000000000000000000000000815260040180806020018281038252601b8152602001807f536166654d6174683a206164646974696f6e206f766572666c6f77000000000081525060200191505060405180910390fd5b809150509291505056fe526566756e64457363726f773a2062656e65666963696172792063616e206f6e6c79207769746864726177207768696c6520636c6f7365644f776e61626c653a206e6577206f776e657220697320746865207a65726f2061646472657373416464726573733a20756e61626c6520746f2073656e642076616c75652c20726563697069656e74206d61792068617665207265766572746564526566756e64457363726f773a2063616e206f6e6c79206465706f736974207768696c6520616374697665436f6e646974696f6e616c457363726f773a207061796565206973206e6f7420616c6c6f77656420746f207769746864726177526566756e64457363726f773a2063616e206f6e6c7920636c6f7365207768696c6520616374697665526566756e64457363726f773a2063616e206f6e6c7920656e61626c6520726566756e6473207768696c6520616374697665a2646970667358221220bf8700275dc5e725c3e43256fb1c37381fedac8c3aa16d9bc61800fc5a109eb064736f6c634300060c0033526566756e64457363726f773a2062656e656669636961727920697320746865207a65726f2061646472657373",
  "linkReferences": {},
  "deployedLinkReferences": {}
}