{
  "_format": "hh-sol-artifact-1",
  "contractName": "BetterTogetherGateway",
  "sourceName": "contracts/BetterTogetherGateway.sol",
  "abi": [
    {
      "inputs": [
        {
          "internalType": "address",
          "name": "_alarmAddress",
          "type": "address"
        },
        {
          "internalType": "address",
          "name": "_stravaAddress",
          "type": "address"
        }
      ],
      "stateMutability": "payable",
      "type": "constructor"
    },
    {
      "anonymous": false,
      "inputs": [
        {
          "indexed": true,
          "internalType": "address",
          "name": "previousOwner",
          "type": "address"
        },
        {
          "indexed": true,
          "internalType": "address",
          "name": "newOwner",
          "type": "address"
        }
      ],
      "name": "OwnershipTransferred",
      "type": "event"
    },
    {
      "anonymous": false,
      "inputs": [
        {
          "indexed": false,
          "internalType": "address",
          "name": "_host",
          "type": "address"
        },
        {
          "indexed": false,
          "internalType": "uint256",
          "name": "_id",
          "type": "uint256"
        }
      ],
      "name": "PactCreated",
      "type": "event"
    },
    {
      "inputs": [
        {
          "internalType": "string",
          "name": "inviteCode",
          "type": "string"
        }
      ],
      "name": "createPact",
      "outputs": [],
      "stateMutability": "nonpayable",
      "type": "function"
    },
    {
      "inputs": [
        {
          "internalType": "address",
          "name": "a",
          "type": "address"
        }
      ],
      "name": "getMyPact",
      "outputs": [
        {
          "internalType": "address",
          "name": "",
          "type": "address"
        }
      ],
      "stateMutability": "view",
      "type": "function"
    },
    {
      "inputs": [],
      "name": "owner",
      "outputs": [
        {
          "internalType": "address",
          "name": "",
          "type": "address"
        }
      ],
      "stateMutability": "view",
      "type": "function"
    },
    {
      "inputs": [
        {
          "internalType": "uint256",
          "name": "",
          "type": "uint256"
        }
      ],
      "name": "pacts",
      "outputs": [
        {
          "internalType": "contract Pact",
          "name": "",
          "type": "address"
        }
      ],
      "stateMutability": "view",
      "type": "function"
    },
    {
      "inputs": [],
      "name": "renounceOwnership",
      "outputs": [],
      "stateMutability": "nonpayable",
      "type": "function"
    },
    {
      "inputs": [
        {
          "internalType": "address",
          "name": "newOwner",
          "type": "address"
        }
      ],
      "name": "transferOwnership",
      "outputs": [],
      "stateMutability": "nonpayable",
      "type": "function"
    }
  ],
  "bytecode": "0x60806040526040516200ab723803806200ab728339818101604052604081101561002857600080fd5b81019080805190602001909291908051906020019092919050505060006100536102c960201b60201c565b9050806000806101000a81548173ffffffffffffffffffffffffffffffffffffffff021916908373ffffffffffffffffffffffffffffffffffffffff1602179055508073ffffffffffffffffffffffffffffffffffffffff16600073ffffffffffffffffffffffffffffffffffffffff167f8be0079c531659141344cd1fd0a4f28419497f9722a3daafe3b4186f6b6457e060405160405180910390a35081600560006101000a81548173ffffffffffffffffffffffffffffffffffffffff021916908373ffffffffffffffffffffffffffffffffffffffff16021790555080600660006101000a81548173ffffffffffffffffffffffffffffffffffffffff021916908373ffffffffffffffffffffffffffffffffffffffff1602179055506000303361018b60026102d160201b610af91760201c565b8585604051610199906102f5565b808673ffffffffffffffffffffffffffffffffffffffff1681526020018573ffffffffffffffffffffffffffffffffffffffff1681526020018481526020018373ffffffffffffffffffffffffffffffffffffffff1681526020018273ffffffffffffffffffffffffffffffffffffffff168152602001806020018281038252600081526020016020019650505050505050604051809103906000f080158015610247573d6000803e3d6000fd5b5090506001819080600181540180825580915050600190039060005260206000200160009091909190916101000a81548173ffffffffffffffffffffffffffffffffffffffff021916908373ffffffffffffffffffffffffffffffffffffffff1602179055506102c160026102df60201b610b071760201c565b505050610303565b600033905090565b600081600001549050919050565b6001816000016000828254019250508190555050565b614e518062005d2183390190565b615a0e80620003136000396000f3fe60806040523480156200001157600080fd5b50600436106200006a5760003560e01c80630edf25f5146200006f578063373e4cdb14620000ca57806354c27e9c146200013b578063715018a614620001fc5780638da5cb5b1462000208578063f2fde38b146200023e575b600080fd5b6200009e600480360360208110156200008757600080fd5b810190808035906020019092919050505062000285565b604051808273ffffffffffffffffffffffffffffffffffffffff16815260200191505060405180910390f35b6200010f60048036036020811015620000e257600080fd5b81019080803573ffffffffffffffffffffffffffffffffffffffff169060200190929190505050620002c2565b604051808273ffffffffffffffffffffffffffffffffffffffff16815260200191505060405180910390f35b620001fa600480360360208110156200015357600080fd5b81019080803590602001906401000000008111156200017157600080fd5b8201836020820111156200018457600080fd5b80359060200191846001830284011164010000000083111715620001a757600080fd5b91908080601f016020809104026020016040519081016040528093929190818152602001838380828437600081840152601f19601f820116905080830192505050505050509192919290505050620003a3565b005b6200020662000765565b005b62000212620008d7565b604051808273ffffffffffffffffffffffffffffffffffffffff16815260200191505060405180910390f35b62000283600480360360208110156200025657600080fd5b81019080803573ffffffffffffffffffffffffffffffffffffffff16906020019092919050505062000900565b005b600181815481106200029357fe5b906000526020600020016000915054906101000a900473ffffffffffffffffffffffffffffffffffffffff1681565b600080600360008473ffffffffffffffffffffffffffffffffffffffff1673ffffffffffffffffffffffffffffffffffffffff1681526020019081526020016000205490506000811162000362576040517f08c379a000000000000000000000000000000000000000000000000000000000815260040180806020018281038252602e815260200180620059ab602e913960400191505060405180910390fd5b600181815481106200037057fe5b9060005260206000200160009054906101000a900473ffffffffffffffffffffffffffffffffffffffff16915050919050565b6000600360003373ffffffffffffffffffffffffffffffffffffffff1673ffffffffffffffffffffffffffffffffffffffff168152602001908152602001600020541462000459576040517f08c379a00000000000000000000000000000000000000000000000000000000081526004018080602001828103825260188152602001807f596f7520616c726561647920686176652061207061637421000000000000000081525060200191505060405180910390fd5b6000303362000469600262000af9565b600560009054906101000a900473ffffffffffffffffffffffffffffffffffffffff16600660009054906101000a900473ffffffffffffffffffffffffffffffffffffffff1686604051620004be9062000b25565b808773ffffffffffffffffffffffffffffffffffffffff1681526020018673ffffffffffffffffffffffffffffffffffffffff1681526020018581526020018473ffffffffffffffffffffffffffffffffffffffff1681526020018373ffffffffffffffffffffffffffffffffffffffff16815260200180602001828103825283818151815260200191508051906020019080838360005b838110156200057357808201518184015260208101905062000556565b50505050905090810190601f168015620005a15780820380516001836020036101000a031916815260200191505b50975050505050505050604051809103906000f080158015620005c8573d6000803e3d6000fd5b5090506001819080600181540180825580915050600190039060005260206000200160009091909190916101000a81548173ffffffffffffffffffffffffffffffffffffffff021916908373ffffffffffffffffffffffffffffffffffffffff1602179055506200063a600262000af9565b600360003373ffffffffffffffffffffffffffffffffffffffff1673ffffffffffffffffffffffffffffffffffffffff1681526020019081526020016000208190555062000689600262000b07565b7f2a226e0aba8d9b50dd8901be4aa0de534e8db18c9e072d7ef4e25d0268eb7b27338273ffffffffffffffffffffffffffffffffffffffff1663af640d0f6040518163ffffffff1660e01b815260040160206040518083038186803b158015620006f257600080fd5b505afa15801562000707573d6000803e3d6000fd5b505050506040513d60208110156200071e57600080fd5b8101908080519060200190929190505050604051808373ffffffffffffffffffffffffffffffffffffffff1681526020018281526020019250505060405180910390a15050565b6200076f62000b1d565b73ffffffffffffffffffffffffffffffffffffffff166200078f620008d7565b73ffffffffffffffffffffffffffffffffffffffff161462000819576040517f08c379a00000000000000000000000000000000000000000000000000000000081526004018080602001828103825260208152602001807f4f776e61626c653a2063616c6c6572206973206e6f7420746865206f776e657281525060200191505060405180910390fd5b600073ffffffffffffffffffffffffffffffffffffffff1660008054906101000a900473ffffffffffffffffffffffffffffffffffffffff1673ffffffffffffffffffffffffffffffffffffffff167f8be0079c531659141344cd1fd0a4f28419497f9722a3daafe3b4186f6b6457e060405160405180910390a360008060006101000a81548173ffffffffffffffffffffffffffffffffffffffff021916908373ffffffffffffffffffffffffffffffffffffffff160217905550565b60008060009054906101000a900473ffffffffffffffffffffffffffffffffffffffff16905090565b6200090a62000b1d565b73ffffffffffffffffffffffffffffffffffffffff166200092a620008d7565b73ffffffffffffffffffffffffffffffffffffffff1614620009b4576040517f08c379a00000000000000000000000000000000000000000000000000000000081526004018080602001828103825260208152602001807f4f776e61626c653a2063616c6c6572206973206e6f7420746865206f776e657281525060200191505060405180910390fd5b600073ffffffffffffffffffffffffffffffffffffffff168173ffffffffffffffffffffffffffffffffffffffff16141562000a3c576040517f08c379a0000000000000000000000000000000000000000000000000000000008152600401808060200182810382526026815260200180620059856026913960400191505060405180910390fd5b8073ffffffffffffffffffffffffffffffffffffffff1660008054906101000a900473ffffffffffffffffffffffffffffffffffffffff1673ffffffffffffffffffffffffffffffffffffffff167f8be0079c531659141344cd1fd0a4f28419497f9722a3daafe3b4186f6b6457e060405160405180910390a3806000806101000a81548173ffffffffffffffffffffffffffffffffffffffff021916908373ffffffffffffffffffffffffffffffffffffffff16021790555050565b600081600001549050919050565b6001816000016000828254019250508190555050565b600033905090565b614e518062000b348339019056fe608060405262015180600d553480156200001857600080fd5b5060405162004e5138038062004e51833981810160405260c08110156200003e57600080fd5b810190808051906020019092919080519060200190929190805190602001909291908051906020019092919080519060200190929190805160405193929190846401000000008211156200009157600080fd5b83820191506020820185811115620000a857600080fd5b8251866001820283011164010000000082111715620000c657600080fd5b8083526020830192505050908051906020019080838360005b83811015620000fc578082015181840152602081019050620000df565b50505050905090810190601f1680156200012a5780820380516001836020036101000a031916815260200191505b50604052505050600062000143620004cb60201b60201c565b9050806000806101000a81548173ffffffffffffffffffffffffffffffffffffffff021916908373ffffffffffffffffffffffffffffffffffffffff1602179055508073ffffffffffffffffffffffffffffffffffffffff16600073ffffffffffffffffffffffffffffffffffffffff167f8be0079c531659141344cd1fd0a4f28419497f9722a3daafe3b4186f6b6457e060405160405180910390a35085600260006101000a81548173ffffffffffffffffffffffffffffffffffffffff021916908373ffffffffffffffffffffffffffffffffffffffff16021790555084600360006101000a81548173ffffffffffffffffffffffffffffffffffffffff021916908373ffffffffffffffffffffffffffffffffffffffff16021790555083600781905550600260009054906101000a900473ffffffffffffffffffffffffffffffffffffffff166040516200029b9062000662565b808273ffffffffffffffffffffffffffffffffffffffff168152602001915050604051809103906000f080158015620002d8573d6000803e3d6000fd5b50600860006101000a81548173ffffffffffffffffffffffffffffffffffffffff021916908373ffffffffffffffffffffffffffffffffffffffff16021790555080600690805190602001906200033192919062000670565b506000600860146101000a81548160ff021916908360028111156200035257fe5b0217905550620003897fffea912cee438c2ace68bb665a205db5afc1aaf31713688b377348fe4bfc04f586620004d360201b60201c565b620003bb7fdc601cd343c9e7d418b48b40f3a0ff8434a08eca1bd022ca70b09c036310b0aa86620004d360201b60201c565b81600b60006101000a81548173ffffffffffffffffffffffffffffffffffffffff021916908373ffffffffffffffffffffffffffffffffffffffff16021790555082600c60006101000a81548173ffffffffffffffffffffffffffffffffffffffff021916908373ffffffffffffffffffffffffffffffffffffffff16021790555081600a60006101000a81548173ffffffffffffffffffffffffffffffffffffffff021916908373ffffffffffffffffffffffffffffffffffffffff16021790555082600960006101000a81548173ffffffffffffffffffffffffffffffffffffffff021916908373ffffffffffffffffffffffffffffffffffffffff16021790555050505050505062000716565b600033905090565b620004e58282620004e960201b60201c565b5050565b6200051881600160008581526020019081526020016000206000016200058d60201b6200270d1790919060201c565b1562000589576200052e620004cb60201b60201c565b73ffffffffffffffffffffffffffffffffffffffff168173ffffffffffffffffffffffffffffffffffffffff16837f2f8788117e7eff1d82e926ec794901d17c78024a50270940304540a733656f0d60405160405180910390a45b5050565b6000620005bd836000018373ffffffffffffffffffffffffffffffffffffffff1660001b620005c560201b60201c565b905092915050565b6000620005d983836200063f60201b60201c565b6200063457826000018290806001815401808255809150506001900390600052602060002001600090919091909150558260000180549050836001016000848152602001908152602001600020819055506001905062000639565b600090505b92915050565b600080836001016000848152602001908152602001600020541415905092915050565b6114f4806200395d83390190565b828054600181600116156101000203166002900490600052602060002090601f016020900481019282601f10620006b357805160ff1916838001178555620006e4565b82800160010185558215620006e4579182015b82811115620006e3578251825591602001919060010190620006c6565b5b509050620006f39190620006f7565b5090565b5b8082111562000712576000816000905550600101620006f8565b5090565b61323780620007266000396000f3fe6080604052600436106101e35760003560e01c806391d1485411610102578063e6ee858011610095578063f437bc5911610064578063f437bc5914610964578063f60884b1146109a5578063fdf80bda146109bc578063fe19ec9f14610a71576101e3565b8063e6ee85801461089f578063ec765508146108a9578063ed7835ff146108d6578063f2fde38b14610913576101e3565b8063af640d0f116100d1578063af640d0f146107b3578063b490dfb8146107de578063ca15c873146107f5578063d547741f14610844576101e3565b806391d148541461068457806395b9f80f146106f5578063a007a5621461075d578063a217fddf14610788576101e3565b80635aa68ac01161017a5780637389e955116101495780637389e955146105845780637c1236271461059b5780638da5cb5b146105d45780639010d07c14610615576101e3565b80635aa68ac0146104bf5780636397a90d1461052b57806368e978b114610542578063715018a61461056d576101e3565b806335c1d349116101b657806335c1d3491461033657806336568abe1461039b5780634665ad52146103f65780634c73890914610486576101e3565b8063024df028146101e857806320bc44251461024b578063248a9ca31461028c5780632f2ff15d146102db575b600080fd5b3480156101f457600080fd5b506102496004803603606081101561020b57600080fd5b8101908080359060200190929190803567ffffffffffffffff169060200190929190803567ffffffffffffffff169060200190929190505050610b4c565b005b34801561025757600080fd5b50610260610c94565b604051808273ffffffffffffffffffffffffffffffffffffffff16815260200191505060405180910390f35b34801561029857600080fd5b506102c5600480360360208110156102af57600080fd5b8101908080359060200190929190505050610d5a565b6040518082815260200191505060405180910390f35b3480156102e757600080fd5b50610334600480360360408110156102fe57600080fd5b8101908080359060200190929190803573ffffffffffffffffffffffffffffffffffffffff169060200190929190505050610d7a565b005b34801561034257600080fd5b5061036f6004803603602081101561035957600080fd5b8101908080359060200190929190505050610e04565b604051808273ffffffffffffffffffffffffffffffffffffffff16815260200191505060405180910390f35b3480156103a757600080fd5b506103f4600480360360408110156103be57600080fd5b8101908080359060200190929190803573ffffffffffffffffffffffffffffffffffffffff169060200190929190505050610e40565b005b34801561040257600080fd5b5061040b610ed9565b6040518080602001828103825283818151815260200191508051906020019080838360005b8381101561044b578082015181840152602081019050610430565b50505050905090810190601f1680156104785780820380516001836020036101000a031916815260200191505b509250505060405180910390f35b34801561049257600080fd5b5061049b610f77565b60405180848152602001838152602001828152602001935050505060405180910390f35b3480156104cb57600080fd5b506104d4610fdc565b6040518080602001828103825283818151815260200191508051906020019060200280838360005b838110156105175780820151818401526020810190506104fc565b505050509050019250505060405180910390f35b34801561053757600080fd5b50610540611106565b005b34801561054e57600080fd5b50610557611210565b6040518082815260200191505060405180910390f35b34801561057957600080fd5b50610582611234565b005b34801561059057600080fd5b506105996113a1565b005b3480156105a757600080fd5b506105b0611518565b60405180848152602001838152602001828152602001935050505060405180910390f35b3480156105e057600080fd5b506105e9611531565b604051808273ffffffffffffffffffffffffffffffffffffffff16815260200191505060405180910390f35b34801561062157600080fd5b506106586004803603604081101561063857600080fd5b81019080803590602001909291908035906020019092919050505061155a565b604051808273ffffffffffffffffffffffffffffffffffffffff16815260200191505060405180910390f35b34801561069057600080fd5b506106dd600480360360408110156106a757600080fd5b8101908080359060200190929190803573ffffffffffffffffffffffffffffffffffffffff16906020019092919050505061158c565b60405180821515815260200191505060405180910390f35b34801561070157600080fd5b5061075b6004803603606081101561071857600080fd5b81019080803573ffffffffffffffffffffffffffffffffffffffff16906020019092919080359060200190929190803560ff1690602001909291905050506115be565b005b34801561076957600080fd5b506107726116f2565b6040518082815260200191505060405180910390f35b34801561079457600080fd5b5061079d611716565b6040518082815260200191505060405180910390f35b3480156107bf57600080fd5b506107c861171d565b6040518082815260200191505060405180910390f35b3480156107ea57600080fd5b506107f3611723565b005b34801561080157600080fd5b5061082e6004803603602081101561081857600080fd5b8101908080359060200190929190505050611942565b6040518082815260200191505060405180910390f35b34801561085057600080fd5b5061089d6004803603604081101561086757600080fd5b8101908080359060200190929190803573ffffffffffffffffffffffffffffffffffffffff169060200190929190505050611969565b005b6108a76119f3565b005b3480156108b557600080fd5b506108be611d22565b60405180821515815260200191505060405180910390f35b3480156108e257600080fd5b50610911600480360360208110156108f957600080fd5b81019080803515159060200190929190505050611d51565b005b34801561091f57600080fd5b506109626004803603602081101561093657600080fd5b81019080803573ffffffffffffffffffffffffffffffffffffffff169060200190929190505050611e17565b005b34801561097057600080fd5b50610979612009565b604051808273ffffffffffffffffffffffffffffffffffffffff16815260200191505060405180910390f35b3480156109b157600080fd5b506109ba61202f565b005b3480156109c857600080fd5b50610a0b600480360360208110156109df57600080fd5b81019080803573ffffffffffffffffffffffffffffffffffffffff1690602001909291905050506121ba565b604051808473ffffffffffffffffffffffffffffffffffffffff1681526020018373ffffffffffffffffffffffffffffffffffffffff1681526020018273ffffffffffffffffffffffffffffffffffffffff168152602001935050505060405180910390f35b610b4a60048036036040811015610a8757600080fd5b81019080803573ffffffffffffffffffffffffffffffffffffffff16906020019092919080359060200190640100000000811115610ac457600080fd5b820183602082011115610ad657600080fd5b80359060200191846001830284011164010000000083111715610af857600080fd5b91908080601f016020809104026020016040519081016040528093929190818152602001838380828437600081840152601f19601f8201169050808301925050505050505091929192905050506121f1565b005b60006002811115610b5957fe5b600860149054906101000a900460ff166002811115610b7457fe5b14610bca576040517f08c379a00000000000000000000000000000000000000000000000000000000081526004018080602001828103825260258152602001806130da6025913960400191505060405180910390fd5b610bf47fffea912cee438c2ace68bb665a205db5afc1aaf31713688b377348fe4bfc04f53361158c565b610c66576040517f08c379a00000000000000000000000000000000000000000000000000000000081526004018080602001828103825260148152602001807f43616c6c6572206973206e6f74206120686f737400000000000000000000000081525060200191505060405180910390fd5b826011819055508167ffffffffffffffff166014819055508067ffffffffffffffff16601581905550505050565b6000610cc07fdc601cd343c9e7d418b48b40f3a0ff8434a08eca1bd022ca70b09c036310b0aa3361158c565b610d32576040517f08c379a000000000000000000000000000000000000000000000000000000000815260040180806020018281038252601c8152602001807f596f7520617265206e6f742070617274206f662074686520706163740000000081525060200191505060405180910390fd5b600360009054906101000a900473ffffffffffffffffffffffffffffffffffffffff16905090565b600060016000838152602001908152602001600020600201549050919050565b610da16001600084815260200190815260200160002060020154610d9c61273d565b61158c565b610df6576040517f08c379a000000000000000000000000000000000000000000000000000000000815260040180806020018281038252602f815260200180613085602f913960400191505060405180910390fd5b610e008282612745565b5050565b60058181548110610e1157fe5b906000526020600020016000915054906101000a900473ffffffffffffffffffffffffffffffffffffffff1681565b610e4861273d565b73ffffffffffffffffffffffffffffffffffffffff168173ffffffffffffffffffffffffffffffffffffffff1614610ecb576040517f08c379a000000000000000000000000000000000000000000000000000000000815260040180806020018281038252602f8152602001806131d3602f913960400191505060405180910390fd5b610ed582826127d9565b5050565b60068054600181600116156101000203166002900480601f016020809104026020016040519081016040528092919081815260200182805460018160011615610100020316600290048015610f6f5780601f10610f4457610100808354040283529160200191610f6f565b820191906000526020600020905b815481529060010190602001808311610f5257829003601f168201915b505050505081565b60008060003373ffffffffffffffffffffffffffffffffffffffff1631601154600860009054906101000a900473ffffffffffffffffffffffffffffffffffffffff1673ffffffffffffffffffffffffffffffffffffffff1631925092509250909192565b60606110087fdc601cd343c9e7d418b48b40f3a0ff8434a08eca1bd022ca70b09c036310b0aa3361158c565b61107a576040517f08c379a000000000000000000000000000000000000000000000000000000000815260040180806020018281038252601c8152602001807f596f7520617265206e6f742070617274206f662074686520706163740000000081525060200191505060405180910390fd5b60058054806020026020016040519081016040528092919081815260200182805480156110fc57602002820191906000526020600020905b8160009054906101000a900473ffffffffffffffffffffffffffffffffffffffff1673ffffffffffffffffffffffffffffffffffffffff16815260200190600101908083116110b2575b5050505050905090565b600a60009054906101000a900473ffffffffffffffffffffffffffffffffffffffff1673ffffffffffffffffffffffffffffffffffffffff163373ffffffffffffffffffffffffffffffffffffffff16146111c9576040517f08c379a000000000000000000000000000000000000000000000000000000000815260040180806020018281038252601a8152602001807f596f7520617265206e6f742074686520416c61726d436c6f636b00000000000081525060200191505060405180910390fd5b60006111d361286d565b90506002600860146101000a81548160ff021916908360028111156111f457fe5b0217905550801561120c57611207612872565b61120d565b5b50565b7fffea912cee438c2ace68bb665a205db5afc1aaf31713688b377348fe4bfc04f581565b61123c61273d565b73ffffffffffffffffffffffffffffffffffffffff1661125a611531565b73ffffffffffffffffffffffffffffffffffffffff16146112e3576040517f08c379a00000000000000000000000000000000000000000000000000000000081526004018080602001828103825260208152602001807f4f776e61626c653a2063616c6c6572206973206e6f7420746865206f776e657281525060200191505060405180910390fd5b600073ffffffffffffffffffffffffffffffffffffffff1660008054906101000a900473ffffffffffffffffffffffffffffffffffffffff1673ffffffffffffffffffffffffffffffffffffffff167f8be0079c531659141344cd1fd0a4f28419497f9722a3daafe3b4186f6b6457e060405160405180910390a360008060006101000a81548173ffffffffffffffffffffffffffffffffffffffff021916908373ffffffffffffffffffffffffffffffffffffffff160217905550565b6113cb7fdc601cd343c9e7d418b48b40f3a0ff8434a08eca1bd022ca70b09c036310b0aa3361158c565b61143d576040517f08c379a000000000000000000000000000000000000000000000000000000000815260040180806020018281038252601c8152602001807f596f7520617265206e6f742070617274206f662074686520706163740000000081525060200191505060405180910390fd5b600c60009054906101000a900473ffffffffffffffffffffffffffffffffffffffff1673ffffffffffffffffffffffffffffffffffffffff1663c79effff33426040518363ffffffff1660e01b8152600401808373ffffffffffffffffffffffffffffffffffffffff1681526020018267ffffffffffffffff16815260200192505050602060405180830381600087803b1580156114da57600080fd5b505af11580156114ee573d6000803e3d6000fd5b505050506040513d602081101561150457600080fd5b810190808051906020019092919050505050565b6000806000601154601454601554925092509250909192565b60008060009054906101000a900473ffffffffffffffffffffffffffffffffffffffff16905090565b6000611584826001600086815260200190815260200160002060000161287490919063ffffffff16565b905092915050565b60006115b6826001600086815260200190815260200160002060000161288e90919063ffffffff16565b905092915050565b600960009054906101000a900473ffffffffffffffffffffffffffffffffffffffff1673ffffffffffffffffffffffffffffffffffffffff163373ffffffffffffffffffffffffffffffffffffffff1614611664576040517f08c379a00000000000000000000000000000000000000000000000000000000081526004018080602001828103825260228152602001806131b16022913960400191505060405180910390fd5b6001600281111561167157fe5b600860149054906101000a900460ff16600281111561168c57fe5b146116e2576040517f08c379a000000000000000000000000000000000000000000000000000000000815260040180806020018281038252602d81526020018061312f602d913960400191505060405180910390fd5b6116ed8383836128be565b505050565b7fdc601cd343c9e7d418b48b40f3a0ff8434a08eca1bd022ca70b09c036310b0aa81565b6000801b81565b60075481565b6000600f60003373ffffffffffffffffffffffffffffffffffffffff1673ffffffffffffffffffffffffffffffffffffffff16815260200190815260200160002080549050146117db576040517f08c379a000000000000000000000000000000000000000000000000000000000815260040180806020018281038252601d8152602001807f596f7520616c726561647920676f7420616464656420736f6d65686f7700000081525060200191505060405180910390fd5b600f60003373ffffffffffffffffffffffffffffffffffffffff1673ffffffffffffffffffffffffffffffffffffffff168152602001908152602001600020600090806001815401808255809150506001900390600052602060002090602091828204019190069091909190916101000a81548160ff021916908360ff1602179055506118a5601060003373ffffffffffffffffffffffffffffffffffffffff1673ffffffffffffffffffffffffffffffffffffffff168152602001908152602001600020612c41565b600e60003373ffffffffffffffffffffffffffffffffffffffff1673ffffffffffffffffffffffffffffffffffffffff168152602001908152602001600020600080815260200190815260200160002081905550611940601060003373ffffffffffffffffffffffffffffffffffffffff1673ffffffffffffffffffffffffffffffffffffffff168152602001908152602001600020612c4f565b565b600061196260016000848152602001908152602001600020600001612c65565b9050919050565b611990600160008481526020019081526020016000206002015461198b61273d565b61158c565b6119e5576040517f08c379a00000000000000000000000000000000000000000000000000000000081526004018080602001828103825260308152602001806130ff6030913960400191505060405180910390fd5b6119ef82826127d9565b5050565b60006002811115611a0057fe5b600860149054906101000a900460ff166002811115611a1b57fe5b14611a71576040517f08c379a00000000000000000000000000000000000000000000000000000000081526004018080602001828103825260258152602001806130da6025913960400191505060405180910390fd5b611a9b7fdc601cd343c9e7d418b48b40f3a0ff8434a08eca1bd022ca70b09c036310b0aa3361158c565b611b0d576040517f08c379a00000000000000000000000000000000000000000000000000000000081526004018080602001828103825260168152602001807f43616c6c6572206973206e6f74206120667269656e640000000000000000000081525060200191505060405180910390fd5b60003373ffffffffffffffffffffffffffffffffffffffff163111611b9a576040517f08c379a00000000000000000000000000000000000000000000000000000000081526004018080602001828103825260118152602001807f546869732073686f756c6420776f726b3f00000000000000000000000000000081525060200191505060405180910390fd5b6011543373ffffffffffffffffffffffffffffffffffffffff16311015611c0c576040517f08c379a000000000000000000000000000000000000000000000000000000000815260040180806020018281038252603381526020018061315c6033913960400191505060405180910390fd5b600860009054906101000a900473ffffffffffffffffffffffffffffffffffffffff1673ffffffffffffffffffffffffffffffffffffffff1663f340fa0134600260009054906101000a900473ffffffffffffffffffffffffffffffffffffffff166040518363ffffffff1660e01b8152600401808273ffffffffffffffffffffffffffffffffffffffff1681526020019150506000604051808303818588803b158015611cb957600080fd5b505af1158015611ccd573d6000803e3d6000fd5b50505050503373ffffffffffffffffffffffffffffffffffffffff167f2da466a7b24304f47e87fa2e1e5a81b9831ce54fec19055ce277ca2f39ba42c4346040518082815260200191505060405180910390a2565b6000600280811115611d3057fe5b600860149054906101000a900460ff166002811115611d4b57fe5b14905090565b600960009054906101000a900473ffffffffffffffffffffffffffffffffffffffff1673ffffffffffffffffffffffffffffffffffffffff163373ffffffffffffffffffffffffffffffffffffffff1614611e14576040517f08c379a000000000000000000000000000000000000000000000000000000000815260040180806020018281038252601c8152602001807f596f7520617265206e6f742074686520537472617661436c69656e740000000081525060200191505060405180910390fd5b50565b611e1f61273d565b73ffffffffffffffffffffffffffffffffffffffff16611e3d611531565b73ffffffffffffffffffffffffffffffffffffffff1614611ec6576040517f08c379a00000000000000000000000000000000000000000000000000000000081526004018080602001828103825260208152602001807f4f776e61626c653a2063616c6c6572206973206e6f7420746865206f776e657281525060200191505060405180910390fd5b600073ffffffffffffffffffffffffffffffffffffffff168173ffffffffffffffffffffffffffffffffffffffff161415611f4c576040517f08c379a00000000000000000000000000000000000000000000000000000000081526004018080602001828103825260268152602001806130b46026913960400191505060405180910390fd5b8073ffffffffffffffffffffffffffffffffffffffff1660008054906101000a900473ffffffffffffffffffffffffffffffffffffffff1673ffffffffffffffffffffffffffffffffffffffff167f8be0079c531659141344cd1fd0a4f28419497f9722a3daafe3b4186f6b6457e060405160405180910390a3806000806101000a81548173ffffffffffffffffffffffffffffffffffffffff021916908373ffffffffffffffffffffffffffffffffffffffff16021790555050565b600360009054906101000a900473ffffffffffffffffffffffffffffffffffffffff1681565b6120597fffea912cee438c2ace68bb665a205db5afc1aaf31713688b377348fe4bfc04f53361158c565b6120cb576040517f08c379a00000000000000000000000000000000000000000000000000000000081526004018080602001828103825260148152602001807f596f75206d7573742062652074686520686f737400000000000000000000000081525060200191505060405180910390fd5b600b60009054906101000a900473ffffffffffffffffffffffffffffffffffffffff1673ffffffffffffffffffffffffffffffffffffffff1663af1dd382306014546040518363ffffffff1660e01b8152600401808373ffffffffffffffffffffffffffffffffffffffff16815260200182815260200192505050600060405180830381600087803b15801561216057600080fd5b505af1158015612174573d6000803e3d6000fd5b505050506001600860146101000a81548160ff0219169083600281111561219757fe5b0217905550426013819055506121af42601454612c7a565b601260000181905550565b60008060003384600360009054906101000a900473ffffffffffffffffffffffffffffffffffffffff169250925092509193909250565b600460003373ffffffffffffffffffffffffffffffffffffffff1673ffffffffffffffffffffffffffffffffffffffff16815260200190815260200160002060009054906101000a900460ff16156122b1576040517f08c379a000000000000000000000000000000000000000000000000000000000815260040180806020018281038252601a8152602001807f5061727469636970616e7420616c72656164792061646465642100000000000081525060200191505060405180910390fd5b600060028111156122be57fe5b600860149054906101000a900460ff1660028111156122d957fe5b1461232f576040517f08c379a000000000000000000000000000000000000000000000000000000000815260040180806020018281038252602281526020018061318f6022913960400191505060405180910390fd5b8173ffffffffffffffffffffffffffffffffffffffff16600360009054906101000a900473ffffffffffffffffffffffffffffffffffffffff1673ffffffffffffffffffffffffffffffffffffffff1614801561242c575061242b60068054600181600116156101000203166002900480601f0160208091040260200160405190810160405280929190818152602001828054600181600116156101000203166002900480156124205780601f106123f557610100808354040283529160200191612420565b820191906000526020600020905b81548152906001019060200180831161240357829003601f168201915b505050505082612d0d565b5b61249e576040517f08c379a00000000000000000000000000000000000000000000000000000000081526004018080602001828103825260148152602001807f496e76616c696420686f7374206f7220636f646500000000000000000000000081525060200191505060405180910390fd5b6001600460003373ffffffffffffffffffffffffffffffffffffffff1673ffffffffffffffffffffffffffffffffffffffff16815260200190815260200160002060006101000a81548160ff0219169083151502179055506005339080600181540180825580915050600190039060005260206000200160009091909190916101000a81548173ffffffffffffffffffffffffffffffffffffffff021916908373ffffffffffffffffffffffffffffffffffffffff1602179055506125837fdc601cd343c9e7d418b48b40f3a0ff8434a08eca1bd022ca70b09c036310b0aa33612dfc565b6011543373ffffffffffffffffffffffffffffffffffffffff163110156125f5576040517f08c379a000000000000000000000000000000000000000000000000000000000815260040180806020018281038252603381526020018061315c6033913960400191505060405180910390fd5b600860009054906101000a900473ffffffffffffffffffffffffffffffffffffffff1673ffffffffffffffffffffffffffffffffffffffff1663f340fa0134600260009054906101000a900473ffffffffffffffffffffffffffffffffffffffff166040518363ffffffff1660e01b8152600401808273ffffffffffffffffffffffffffffffffffffffff1681526020019150506000604051808303818588803b1580156126a257600080fd5b505af11580156126b6573d6000803e3d6000fd5b50505050503373ffffffffffffffffffffffffffffffffffffffff167f2da466a7b24304f47e87fa2e1e5a81b9831ce54fec19055ce277ca2f39ba42c4346040518082815260200191505060405180910390a25050565b6000612735836000018373ffffffffffffffffffffffffffffffffffffffff1660001b612e0a565b905092915050565b600033905090565b61276d816001600085815260200190815260200160002060000161270d90919063ffffffff16565b156127d55761277a61273d565b73ffffffffffffffffffffffffffffffffffffffff168173ffffffffffffffffffffffffffffffffffffffff16837f2f8788117e7eff1d82e926ec794901d17c78024a50270940304540a733656f0d60405160405180910390a45b5050565b6128018160016000858152602001908152602001600020600001612e7a90919063ffffffff16565b156128695761280e61273d565b73ffffffffffffffffffffffffffffffffffffffff168173ffffffffffffffffffffffffffffffffffffffff16837ff6391f5c32d9c69d2a47ea670b442974b53935d1edc7fd64eb21e047a839171b60405160405180910390a45b5050565b600090565b565b60006128838360000183612eaa565b60001c905092915050565b60006128b6836000018373ffffffffffffffffffffffffffffffffffffffff1660001b612f2d565b905092915050565b6000612907601060008673ffffffffffffffffffffffffffffffffffffffff1673ffffffffffffffffffffffffffffffffffffffff168152602001908152602001600020612c41565b1161297a576040517f08c379a00000000000000000000000000000000000000000000000000000000081526004018080602001828103825260208152602001807f596f752077657265206e6f7420696e697469616c697a656420736f6d65686f7781525060200191505060405180910390fd5b600082116129f0576040517f08c379a00000000000000000000000000000000000000000000000000000000081526004018080602001828103825260188152602001807f43616e277420757365207a65726f2074696d657374616d70000000000000000081525060200191505060405180910390fd5b60006129fb83612f50565b90506000600e60008673ffffffffffffffffffffffffffffffffffffffff1673ffffffffffffffffffffffffffffffffffffffff16815260200190815260200160002060008381526020019081526020016000205490506000811115612ad55782600f60008773ffffffffffffffffffffffffffffffffffffffff1673ffffffffffffffffffffffffffffffffffffffff1681526020019081526020016000208281548110612aa657fe5b90600052602060002090602091828204019190066101000a81548160ff021916908360ff160217905550612c3a565b600f60008673ffffffffffffffffffffffffffffffffffffffff1673ffffffffffffffffffffffffffffffffffffffff1681526020019081526020016000208390806001815401808255809150506001900390600052602060002090602091828204019190069091909190916101000a81548160ff021916908360ff160217905550612b9e601060008773ffffffffffffffffffffffffffffffffffffffff1673ffffffffffffffffffffffffffffffffffffffff168152602001908152602001600020612c41565b600e60008773ffffffffffffffffffffffffffffffffffffffff1673ffffffffffffffffffffffffffffffffffffffff168152602001908152602001600020600084815260200190815260200160002081905550612c39601060008773ffffffffffffffffffffffffffffffffffffffff1673ffffffffffffffffffffffffffffffffffffffff168152602001908152602001600020612c4f565b5b5050505050565b600081600001549050919050565b6001816000016000828254019250508190555050565b6000612c7382600001612f69565b9050919050565b6000828211612cf1576040517f08c379a00000000000000000000000000000000000000000000000000000000081526004018080602001828103825260138152602001807f456e64206973206265666f72652073746172740000000000000000000000000081525060200191505060405180910390fd5b60008383039050600d548181612d0357fe5b0491505092915050565b6000816040516020018082805190602001908083835b60208310612d465780518252602082019150602081019050602083039250612d23565b6001836020036101000a03801982511681845116808217855250505050505090500191505060405160208183030381529060405280519060200120836040516020018082805190602001908083835b60208310612db85780518252602082019150602081019050602083039250612d95565b6001836020036101000a0380198251168184511680821785525050505050509050019150506040516020818303038152906040528051906020012014905092915050565b612e068282612745565b5050565b6000612e168383612f2d565b612e6f578260000182908060018154018082558091505060019003906000526020600020016000909190919091505582600001805490508360010160008481526020019081526020016000208190555060019050612e74565b600090505b92915050565b6000612ea2836000018373ffffffffffffffffffffffffffffffffffffffff1660001b612f7a565b905092915050565b600081836000018054905011612f0b576040517f08c379a00000000000000000000000000000000000000000000000000000000081526004018080602001828103825260228152602001806130636022913960400191505060405180910390fd5b826000018281548110612f1a57fe5b9060005260206000200154905092915050565b600080836001016000848152602001908152602001600020541415905092915050565b6000600d54600d548381612f6057fe5b04029050919050565b600081600001805490509050919050565b600080836001016000848152602001908152602001600020549050600081146130565760006001820390506000600186600001805490500390506000866000018281548110612fc557fe5b9060005260206000200154905080876000018481548110612fe257fe5b906000526020600020018190555060018301876001016000838152602001908152602001600020819055508660000180548061301a57fe5b6001900381819060005260206000200160009055905586600101600087815260200190815260200160002060009055600194505050505061305c565b60009150505b9291505056fe456e756d657261626c655365743a20696e646578206f7574206f6620626f756e6473416363657373436f6e74726f6c3a2073656e646572206d75737420626520616e2061646d696e20746f206772616e744f776e61626c653a206e6577206f776e657220697320746865207a65726f206164647265737350616374206973206e6f7420616c6c6f77696e6720616e796d6f726520706c656467657321416363657373436f6e74726f6c3a2073656e646572206d75737420626520616e2061646d696e20746f207265766f6b6550616374206d757374206265207374617274656420666f7220616e792070726f67726573732075706461746573596f75206e65656420746f20706c65646765206120626974206d6f726520746f2062652062657474657220746f676574686572596f752063616e27742061646420616e796d6f7265207061727469636970616e74734e6f742074686520726967687420537472617661436c69656e742041646472657373416363657373436f6e74726f6c3a2063616e206f6e6c792072656e6f756e636520726f6c657320666f722073656c66a26469706673582212201be27bb52da4b653c1e6efe1b4eea0f482d2d16746f9d651834dd0a9cb2fddd064736f6c634300060c0033608060405234801561001057600080fd5b506040516114f43803806114f48339818101604052602081101561003357600080fd5b810190808051906020019092919050505060006100546101e360201b60201c565b9050806000806101000a81548173ffffffffffffffffffffffffffffffffffffffff021916908373ffffffffffffffffffffffffffffffffffffffff1602179055508073ffffffffffffffffffffffffffffffffffffffff16600073ffffffffffffffffffffffffffffffffffffffff167f8be0079c531659141344cd1fd0a4f28419497f9722a3daafe3b4186f6b6457e060405160405180910390a350600073ffffffffffffffffffffffffffffffffffffffff168173ffffffffffffffffffffffffffffffffffffffff161415610178576040517f08c379a000000000000000000000000000000000000000000000000000000000815260040180806020018281038252602d8152602001806114c7602d913960400191505060405180910390fd5b80600260016101000a81548173ffffffffffffffffffffffffffffffffffffffff021916908373ffffffffffffffffffffffffffffffffffffffff1602179055506000600260006101000a81548160ff021916908360028111156101d857fe5b0217905550506101eb565b600033905090565b6112cd806101fa6000396000f3fe6080604052600436106100a75760003560e01c80638da5cb5b116100645780638da5cb5b146101ea5780639af6549a1461022b578063c19d93fb14610242578063e3a9db1a14610278578063f2fde38b146102dd578063f340fa011461032e576100a7565b806338af3eed146100ac57806343d726d6146100ed57806351cff8d914610104578063685ca19414610155578063715018a6146101bc5780638c52dc41146101d3575b600080fd5b3480156100b857600080fd5b506100c1610372565b604051808273ffffffffffffffffffffffffffffffffffffffff16815260200191505060405180910390f35b3480156100f957600080fd5b5061010261039c565b005b34801561011057600080fd5b506101536004803603602081101561012757600080fd5b81019080803573ffffffffffffffffffffffffffffffffffffffff169060200190929190505050610512565b005b34801561016157600080fd5b506101a46004803603602081101561017857600080fd5b81019080803573ffffffffffffffffffffffffffffffffffffffff16906020019092919050505061057c565b60405180821515815260200191505060405180910390f35b3480156101c857600080fd5b506101d16105a6565b005b3480156101df57600080fd5b506101e8610713565b005b3480156101f657600080fd5b506101ff61088a565b604051808273ffffffffffffffffffffffffffffffffffffffff16815260200191505060405180910390f35b34801561023757600080fd5b506102406108b3565b005b34801561024e57600080fd5b5061025761095a565b6040518082600281111561026757fe5b815260200191505060405180910390f35b34801561028457600080fd5b506102c76004803603602081101561029b57600080fd5b81019080803573ffffffffffffffffffffffffffffffffffffffff169060200190929190505050610971565b6040518082815260200191505060405180910390f35b3480156102e957600080fd5b5061032c6004803603602081101561030057600080fd5b81019080803573ffffffffffffffffffffffffffffffffffffffff1690602001909291905050506109ba565b005b6103706004803603602081101561034457600080fd5b81019080803573ffffffffffffffffffffffffffffffffffffffff169060200190929190505050610bac565b005b6000600260019054906101000a900473ffffffffffffffffffffffffffffffffffffffff16905090565b6103a4610c2e565b73ffffffffffffffffffffffffffffffffffffffff166103c261088a565b73ffffffffffffffffffffffffffffffffffffffff161461044b576040517f08c379a00000000000000000000000000000000000000000000000000000000081526004018080602001828103825260208152602001807f4f776e61626c653a2063616c6c6572206973206e6f7420746865206f776e657281525060200191505060405180910390fd5b6000600281111561045857fe5b61046061095a565b600281111561046b57fe5b146104c1576040517f08c379a000000000000000000000000000000000000000000000000000000000815260040180806020018281038252602981526020018061123d6029913960400191505060405180910390fd5b60028060006101000a81548160ff021916908360028111156104df57fe5b02179055507f088672c3a6e342f7cd94a65ba63b79df24a8973927b4d05d803c44bbf787d12f60405160405180910390a1565b61051b8161057c565b610570576040517f08c379a000000000000000000000000000000000000000000000000000000000815260040180806020018281038252603381526020018061120a6033913960400191505060405180910390fd5b61057981610c36565b50565b60006001600281111561058b57fe5b61059361095a565b600281111561059e57fe5b149050919050565b6105ae610c2e565b73ffffffffffffffffffffffffffffffffffffffff166105cc61088a565b73ffffffffffffffffffffffffffffffffffffffff1614610655576040517f08c379a00000000000000000000000000000000000000000000000000000000081526004018080602001828103825260208152602001807f4f776e61626c653a2063616c6c6572206973206e6f7420746865206f776e657281525060200191505060405180910390fd5b600073ffffffffffffffffffffffffffffffffffffffff1660008054906101000a900473ffffffffffffffffffffffffffffffffffffffff1673ffffffffffffffffffffffffffffffffffffffff167f8be0079c531659141344cd1fd0a4f28419497f9722a3daafe3b4186f6b6457e060405160405180910390a360008060006101000a81548173ffffffffffffffffffffffffffffffffffffffff021916908373ffffffffffffffffffffffffffffffffffffffff160217905550565b61071b610c2e565b73ffffffffffffffffffffffffffffffffffffffff1661073961088a565b73ffffffffffffffffffffffffffffffffffffffff16146107c2576040517f08c379a00000000000000000000000000000000000000000000000000000000081526004018080602001828103825260208152602001807f4f776e61626c653a2063616c6c6572206973206e6f7420746865206f776e657281525060200191505060405180910390fd5b600060028111156107cf57fe5b6107d761095a565b60028111156107e257fe5b14610838576040517f08c379a00000000000000000000000000000000000000000000000000000000081526004018080602001828103825260328152602001806112666032913960400191505060405180910390fd5b6001600260006101000a81548160ff0219169083600281111561085757fe5b02179055507f599d8e5a83cffb867d051598c4d70e805d59802d8081c1c7d6dffc5b6aca2b8960405160405180910390a1565b60008060009054906101000a900473ffffffffffffffffffffffffffffffffffffffff16905090565b6002808111156108bf57fe5b6108c761095a565b60028111156108d257fe5b14610928576040517f08c379a00000000000000000000000000000000000000000000000000000000081526004018080602001828103825260388152602001806111476038913960400191505060405180910390fd5b61095847610934610372565b73ffffffffffffffffffffffffffffffffffffffff16610de990919063ffffffff16565b565b6000600260009054906101000a900460ff16905090565b6000600160008373ffffffffffffffffffffffffffffffffffffffff1673ffffffffffffffffffffffffffffffffffffffff168152602001908152602001600020549050919050565b6109c2610c2e565b73ffffffffffffffffffffffffffffffffffffffff166109e061088a565b73ffffffffffffffffffffffffffffffffffffffff1614610a69576040517f08c379a00000000000000000000000000000000000000000000000000000000081526004018080602001828103825260208152602001807f4f776e61626c653a2063616c6c6572206973206e6f7420746865206f776e657281525060200191505060405180910390fd5b600073ffffffffffffffffffffffffffffffffffffffff168173ffffffffffffffffffffffffffffffffffffffff161415610aef576040517f08c379a000000000000000000000000000000000000000000000000000000000815260040180806020018281038252602681526020018061117f6026913960400191505060405180910390fd5b8073ffffffffffffffffffffffffffffffffffffffff1660008054906101000a900473ffffffffffffffffffffffffffffffffffffffff1673ffffffffffffffffffffffffffffffffffffffff167f8be0079c531659141344cd1fd0a4f28419497f9722a3daafe3b4186f6b6457e060405160405180910390a3806000806101000a81548173ffffffffffffffffffffffffffffffffffffffff021916908373ffffffffffffffffffffffffffffffffffffffff16021790555050565b60006002811115610bb957fe5b610bc161095a565b6002811115610bcc57fe5b14610c22576040517f08c379a000000000000000000000000000000000000000000000000000000000815260040180806020018281038252602b8152602001806111df602b913960400191505060405180910390fd5b610c2b81610f23565b50565b600033905090565b610c3e610c2e565b73ffffffffffffffffffffffffffffffffffffffff16610c5c61088a565b73ffffffffffffffffffffffffffffffffffffffff1614610ce5576040517f08c379a00000000000000000000000000000000000000000000000000000000081526004018080602001828103825260208152602001807f4f776e61626c653a2063616c6c6572206973206e6f7420746865206f776e657281525060200191505060405180910390fd5b6000600160008373ffffffffffffffffffffffffffffffffffffffff1673ffffffffffffffffffffffffffffffffffffffff1681526020019081526020016000205490506000600160008473ffffffffffffffffffffffffffffffffffffffff1673ffffffffffffffffffffffffffffffffffffffff16815260200190815260200160002081905550610d97818373ffffffffffffffffffffffffffffffffffffffff16610de990919063ffffffff16565b8173ffffffffffffffffffffffffffffffffffffffff167f7084f5476618d8e60b11ef0d7d3f06914655adb8793e28ff7f018d4c76d505d5826040518082815260200191505060405180910390a25050565b80471015610e5f576040517f08c379a000000000000000000000000000000000000000000000000000000000815260040180806020018281038252601d8152602001807f416464726573733a20696e73756666696369656e742062616c616e636500000081525060200191505060405180910390fd5b60008273ffffffffffffffffffffffffffffffffffffffff168260405180600001905060006040518083038185875af1925050503d8060008114610ebf576040519150601f19603f3d011682016040523d82523d6000602084013e610ec4565b606091505b5050905080610f1e576040517f08c379a000000000000000000000000000000000000000000000000000000000815260040180806020018281038252603a8152602001806111a5603a913960400191505060405180910390fd5b505050565b610f2b610c2e565b73ffffffffffffffffffffffffffffffffffffffff16610f4961088a565b73ffffffffffffffffffffffffffffffffffffffff1614610fd2576040517f08c379a00000000000000000000000000000000000000000000000000000000081526004018080602001828103825260208152602001807f4f776e61626c653a2063616c6c6572206973206e6f7420746865206f776e657281525060200191505060405180910390fd5b600034905061102981600160008573ffffffffffffffffffffffffffffffffffffffff1673ffffffffffffffffffffffffffffffffffffffff168152602001908152602001600020546110be90919063ffffffff16565b600160008473ffffffffffffffffffffffffffffffffffffffff1673ffffffffffffffffffffffffffffffffffffffff168152602001908152602001600020819055508173ffffffffffffffffffffffffffffffffffffffff167f2da466a7b24304f47e87fa2e1e5a81b9831ce54fec19055ce277ca2f39ba42c4826040518082815260200191505060405180910390a25050565b60008082840190508381101561113c576040517f08c379a000000000000000000000000000000000000000000000000000000000815260040180806020018281038252601b8152602001807f536166654d6174683a206164646974696f6e206f766572666c6f77000000000081525060200191505060405180910390fd5b809150509291505056fe526566756e64457363726f773a2062656e65666963696172792063616e206f6e6c79207769746864726177207768696c6520636c6f7365644f776e61626c653a206e6577206f776e657220697320746865207a65726f2061646472657373416464726573733a20756e61626c6520746f2073656e642076616c75652c20726563697069656e74206d61792068617665207265766572746564526566756e64457363726f773a2063616e206f6e6c79206465706f736974207768696c6520616374697665436f6e646974696f6e616c457363726f773a207061796565206973206e6f7420616c6c6f77656420746f207769746864726177526566756e64457363726f773a2063616e206f6e6c7920636c6f7365207768696c6520616374697665526566756e64457363726f773a2063616e206f6e6c7920656e61626c6520726566756e6473207768696c6520616374697665a2646970667358221220bf8700275dc5e725c3e43256fb1c37381fedac8c3aa16d9bc61800fc5a109eb064736f6c634300060c0033526566756e64457363726f773a2062656e656669636961727920697320746865207a65726f20616464726573734f776e61626c653a206e6577206f776e657220697320746865207a65726f2061646472657373596f757220667269656e6420646f65736e27742077616e7420746f2062652062657474657220746f676574686572a26469706673582212208c9341f89736eae3555f6f96a161f2bc17fa8ff1381cac63b8d8ba32a56c934564736f6c634300060c0033608060405262015180600d553480156200001857600080fd5b5060405162004e5138038062004e51833981810160405260c08110156200003e57600080fd5b810190808051906020019092919080519060200190929190805190602001909291908051906020019092919080519060200190929190805160405193929190846401000000008211156200009157600080fd5b83820191506020820185811115620000a857600080fd5b8251866001820283011164010000000082111715620000c657600080fd5b8083526020830192505050908051906020019080838360005b83811015620000fc578082015181840152602081019050620000df565b50505050905090810190601f1680156200012a5780820380516001836020036101000a031916815260200191505b50604052505050600062000143620004cb60201b60201c565b9050806000806101000a81548173ffffffffffffffffffffffffffffffffffffffff021916908373ffffffffffffffffffffffffffffffffffffffff1602179055508073ffffffffffffffffffffffffffffffffffffffff16600073ffffffffffffffffffffffffffffffffffffffff167f8be0079c531659141344cd1fd0a4f28419497f9722a3daafe3b4186f6b6457e060405160405180910390a35085600260006101000a81548173ffffffffffffffffffffffffffffffffffffffff021916908373ffffffffffffffffffffffffffffffffffffffff16021790555084600360006101000a81548173ffffffffffffffffffffffffffffffffffffffff021916908373ffffffffffffffffffffffffffffffffffffffff16021790555083600781905550600260009054906101000a900473ffffffffffffffffffffffffffffffffffffffff166040516200029b9062000662565b808273ffffffffffffffffffffffffffffffffffffffff168152602001915050604051809103906000f080158015620002d8573d6000803e3d6000fd5b50600860006101000a81548173ffffffffffffffffffffffffffffffffffffffff021916908373ffffffffffffffffffffffffffffffffffffffff16021790555080600690805190602001906200033192919062000670565b506000600860146101000a81548160ff021916908360028111156200035257fe5b0217905550620003897fffea912cee438c2ace68bb665a205db5afc1aaf31713688b377348fe4bfc04f586620004d360201b60201c565b620003bb7fdc601cd343c9e7d418b48b40f3a0ff8434a08eca1bd022ca70b09c036310b0aa86620004d360201b60201c565b81600b60006101000a81548173ffffffffffffffffffffffffffffffffffffffff021916908373ffffffffffffffffffffffffffffffffffffffff16021790555082600c60006101000a81548173ffffffffffffffffffffffffffffffffffffffff021916908373ffffffffffffffffffffffffffffffffffffffff16021790555081600a60006101000a81548173ffffffffffffffffffffffffffffffffffffffff021916908373ffffffffffffffffffffffffffffffffffffffff16021790555082600960006101000a81548173ffffffffffffffffffffffffffffffffffffffff021916908373ffffffffffffffffffffffffffffffffffffffff16021790555050505050505062000716565b600033905090565b620004e58282620004e960201b60201c565b5050565b6200051881600160008581526020019081526020016000206000016200058d60201b6200270d1790919060201c565b1562000589576200052e620004cb60201b60201c565b73ffffffffffffffffffffffffffffffffffffffff168173ffffffffffffffffffffffffffffffffffffffff16837f2f8788117e7eff1d82e926ec794901d17c78024a50270940304540a733656f0d60405160405180910390a45b5050565b6000620005bd836000018373ffffffffffffffffffffffffffffffffffffffff1660001b620005c560201b60201c565b905092915050565b6000620005d983836200063f60201b60201c565b6200063457826000018290806001815401808255809150506001900390600052602060002001600090919091909150558260000180549050836001016000848152602001908152602001600020819055506001905062000639565b600090505b92915050565b600080836001016000848152602001908152602001600020541415905092915050565b6114f4806200395d83390190565b828054600181600116156101000203166002900490600052602060002090601f016020900481019282601f10620006b357805160ff1916838001178555620006e4565b82800160010185558215620006e4579182015b82811115620006e3578251825591602001919060010190620006c6565b5b509050620006f39190620006f7565b5090565b5b8082111562000712576000816000905550600101620006f8565b5090565b61323780620007266000396000f3fe6080604052600436106101e35760003560e01c806391d1485411610102578063e6ee858011610095578063f437bc5911610064578063f437bc5914610964578063f60884b1146109a5578063fdf80bda146109bc578063fe19ec9f14610a71576101e3565b8063e6ee85801461089f578063ec765508146108a9578063ed7835ff146108d6578063f2fde38b14610913576101e3565b8063af640d0f116100d1578063af640d0f146107b3578063b490dfb8146107de578063ca15c873146107f5578063d547741f14610844576101e3565b806391d148541461068457806395b9f80f146106f5578063a007a5621461075d578063a217fddf14610788576101e3565b80635aa68ac01161017a5780637389e955116101495780637389e955146105845780637c1236271461059b5780638da5cb5b146105d45780639010d07c14610615576101e3565b80635aa68ac0146104bf5780636397a90d1461052b57806368e978b114610542578063715018a61461056d576101e3565b806335c1d349116101b657806335c1d3491461033657806336568abe1461039b5780634665ad52146103f65780634c73890914610486576101e3565b8063024df028146101e857806320bc44251461024b578063248a9ca31461028c5780632f2ff15d146102db575b600080fd5b3480156101f457600080fd5b506102496004803603606081101561020b57600080fd5b8101908080359060200190929190803567ffffffffffffffff169060200190929190803567ffffffffffffffff169060200190929190505050610b4c565b005b34801561025757600080fd5b50610260610c94565b604051808273ffffffffffffffffffffffffffffffffffffffff16815260200191505060405180910390f35b34801561029857600080fd5b506102c5600480360360208110156102af57600080fd5b8101908080359060200190929190505050610d5a565b6040518082815260200191505060405180910390f35b3480156102e757600080fd5b50610334600480360360408110156102fe57600080fd5b8101908080359060200190929190803573ffffffffffffffffffffffffffffffffffffffff169060200190929190505050610d7a565b005b34801561034257600080fd5b5061036f6004803603602081101561035957600080fd5b8101908080359060200190929190505050610e04565b604051808273ffffffffffffffffffffffffffffffffffffffff16815260200191505060405180910390f35b3480156103a757600080fd5b506103f4600480360360408110156103be57600080fd5b8101908080359060200190929190803573ffffffffffffffffffffffffffffffffffffffff169060200190929190505050610e40565b005b34801561040257600080fd5b5061040b610ed9565b6040518080602001828103825283818151815260200191508051906020019080838360005b8381101561044b578082015181840152602081019050610430565b50505050905090810190601f1680156104785780820380516001836020036101000a031916815260200191505b509250505060405180910390f35b34801561049257600080fd5b5061049b610f77565b60405180848152602001838152602001828152602001935050505060405180910390f35b3480156104cb57600080fd5b506104d4610fdc565b6040518080602001828103825283818151815260200191508051906020019060200280838360005b838110156105175780820151818401526020810190506104fc565b505050509050019250505060405180910390f35b34801561053757600080fd5b50610540611106565b005b34801561054e57600080fd5b50610557611210565b6040518082815260200191505060405180910390f35b34801561057957600080fd5b50610582611234565b005b34801561059057600080fd5b506105996113a1565b005b3480156105a757600080fd5b506105b0611518565b60405180848152602001838152602001828152602001935050505060405180910390f35b3480156105e057600080fd5b506105e9611531565b604051808273ffffffffffffffffffffffffffffffffffffffff16815260200191505060405180910390f35b34801561062157600080fd5b506106586004803603604081101561063857600080fd5b81019080803590602001909291908035906020019092919050505061155a565b604051808273ffffffffffffffffffffffffffffffffffffffff16815260200191505060405180910390f35b34801561069057600080fd5b506106dd600480360360408110156106a757600080fd5b8101908080359060200190929190803573ffffffffffffffffffffffffffffffffffffffff16906020019092919050505061158c565b60405180821515815260200191505060405180910390f35b34801561070157600080fd5b5061075b6004803603606081101561071857600080fd5b81019080803573ffffffffffffffffffffffffffffffffffffffff16906020019092919080359060200190929190803560ff1690602001909291905050506115be565b005b34801561076957600080fd5b506107726116f2565b6040518082815260200191505060405180910390f35b34801561079457600080fd5b5061079d611716565b6040518082815260200191505060405180910390f35b3480156107bf57600080fd5b506107c861171d565b6040518082815260200191505060405180910390f35b3480156107ea57600080fd5b506107f3611723565b005b34801561080157600080fd5b5061082e6004803603602081101561081857600080fd5b8101908080359060200190929190505050611942565b6040518082815260200191505060405180910390f35b34801561085057600080fd5b5061089d6004803603604081101561086757600080fd5b8101908080359060200190929190803573ffffffffffffffffffffffffffffffffffffffff169060200190929190505050611969565b005b6108a76119f3565b005b3480156108b557600080fd5b506108be611d22565b60405180821515815260200191505060405180910390f35b3480156108e257600080fd5b50610911600480360360208110156108f957600080fd5b81019080803515159060200190929190505050611d51565b005b34801561091f57600080fd5b506109626004803603602081101561093657600080fd5b81019080803573ffffffffffffffffffffffffffffffffffffffff169060200190929190505050611e17565b005b34801561097057600080fd5b50610979612009565b604051808273ffffffffffffffffffffffffffffffffffffffff16815260200191505060405180910390f35b3480156109b157600080fd5b506109ba61202f565b005b3480156109c857600080fd5b50610a0b600480360360208110156109df57600080fd5b81019080803573ffffffffffffffffffffffffffffffffffffffff1690602001909291905050506121ba565b604051808473ffffffffffffffffffffffffffffffffffffffff1681526020018373ffffffffffffffffffffffffffffffffffffffff1681526020018273ffffffffffffffffffffffffffffffffffffffff168152602001935050505060405180910390f35b610b4a60048036036040811015610a8757600080fd5b81019080803573ffffffffffffffffffffffffffffffffffffffff16906020019092919080359060200190640100000000811115610ac457600080fd5b820183602082011115610ad657600080fd5b80359060200191846001830284011164010000000083111715610af857600080fd5b91908080601f016020809104026020016040519081016040528093929190818152602001838380828437600081840152601f19601f8201169050808301925050505050505091929192905050506121f1565b005b60006002811115610b5957fe5b600860149054906101000a900460ff166002811115610b7457fe5b14610bca576040517f08c379a00000000000000000000000000000000000000000000000000000000081526004018080602001828103825260258152602001806130da6025913960400191505060405180910390fd5b610bf47fffea912cee438c2ace68bb665a205db5afc1aaf31713688b377348fe4bfc04f53361158c565b610c66576040517f08c379a00000000000000000000000000000000000000000000000000000000081526004018080602001828103825260148152602001807f43616c6c6572206973206e6f74206120686f737400000000000000000000000081525060200191505060405180910390fd5b826011819055508167ffffffffffffffff166014819055508067ffffffffffffffff16601581905550505050565b6000610cc07fdc601cd343c9e7d418b48b40f3a0ff8434a08eca1bd022ca70b09c036310b0aa3361158c565b610d32576040517f08c379a000000000000000000000000000000000000000000000000000000000815260040180806020018281038252601c8152602001807f596f7520617265206e6f742070617274206f662074686520706163740000000081525060200191505060405180910390fd5b600360009054906101000a900473ffffffffffffffffffffffffffffffffffffffff16905090565b600060016000838152602001908152602001600020600201549050919050565b610da16001600084815260200190815260200160002060020154610d9c61273d565b61158c565b610df6576040517f08c379a000000000000000000000000000000000000000000000000000000000815260040180806020018281038252602f815260200180613085602f913960400191505060405180910390fd5b610e008282612745565b5050565b60058181548110610e1157fe5b906000526020600020016000915054906101000a900473ffffffffffffffffffffffffffffffffffffffff1681565b610e4861273d565b73ffffffffffffffffffffffffffffffffffffffff168173ffffffffffffffffffffffffffffffffffffffff1614610ecb576040517f08c379a000000000000000000000000000000000000000000000000000000000815260040180806020018281038252602f8152602001806131d3602f913960400191505060405180910390fd5b610ed582826127d9565b5050565b60068054600181600116156101000203166002900480601f016020809104026020016040519081016040528092919081815260200182805460018160011615610100020316600290048015610f6f5780601f10610f4457610100808354040283529160200191610f6f565b820191906000526020600020905b815481529060010190602001808311610f5257829003601f168201915b505050505081565b60008060003373ffffffffffffffffffffffffffffffffffffffff1631601154600860009054906101000a900473ffffffffffffffffffffffffffffffffffffffff1673ffffffffffffffffffffffffffffffffffffffff1631925092509250909192565b60606110087fdc601cd343c9e7d418b48b40f3a0ff8434a08eca1bd022ca70b09c036310b0aa3361158c565b61107a576040517f08c379a000000000000000000000000000000000000000000000000000000000815260040180806020018281038252601c8152602001807f596f7520617265206e6f742070617274206f662074686520706163740000000081525060200191505060405180910390fd5b60058054806020026020016040519081016040528092919081815260200182805480156110fc57602002820191906000526020600020905b8160009054906101000a900473ffffffffffffffffffffffffffffffffffffffff1673ffffffffffffffffffffffffffffffffffffffff16815260200190600101908083116110b2575b5050505050905090565b600a60009054906101000a900473ffffffffffffffffffffffffffffffffffffffff1673ffffffffffffffffffffffffffffffffffffffff163373ffffffffffffffffffffffffffffffffffffffff16146111c9576040517f08c379a000000000000000000000000000000000000000000000000000000000815260040180806020018281038252601a8152602001807f596f7520617265206e6f742074686520416c61726d436c6f636b00000000000081525060200191505060405180910390fd5b60006111d361286d565b90506002600860146101000a81548160ff021916908360028111156111f457fe5b0217905550801561120c57611207612872565b61120d565b5b50565b7fffea912cee438c2ace68bb665a205db5afc1aaf31713688b377348fe4bfc04f581565b61123c61273d565b73ffffffffffffffffffffffffffffffffffffffff1661125a611531565b73ffffffffffffffffffffffffffffffffffffffff16146112e3576040517f08c379a00000000000000000000000000000000000000000000000000000000081526004018080602001828103825260208152602001807f4f776e61626c653a2063616c6c6572206973206e6f7420746865206f776e657281525060200191505060405180910390fd5b600073ffffffffffffffffffffffffffffffffffffffff1660008054906101000a900473ffffffffffffffffffffffffffffffffffffffff1673ffffffffffffffffffffffffffffffffffffffff167f8be0079c531659141344cd1fd0a4f28419497f9722a3daafe3b4186f6b6457e060405160405180910390a360008060006101000a81548173ffffffffffffffffffffffffffffffffffffffff021916908373ffffffffffffffffffffffffffffffffffffffff160217905550565b6113cb7fdc601cd343c9e7d418b48b40f3a0ff8434a08eca1bd022ca70b09c036310b0aa3361158c565b61143d576040517f08c379a000000000000000000000000000000000000000000000000000000000815260040180806020018281038252601c8152602001807f596f7520617265206e6f742070617274206f662074686520706163740000000081525060200191505060405180910390fd5b600c60009054906101000a900473ffffffffffffffffffffffffffffffffffffffff1673ffffffffffffffffffffffffffffffffffffffff1663c79effff33426040518363ffffffff1660e01b8152600401808373ffffffffffffffffffffffffffffffffffffffff1681526020018267ffffffffffffffff16815260200192505050602060405180830381600087803b1580156114da57600080fd5b505af11580156114ee573d6000803e3d6000fd5b505050506040513d602081101561150457600080fd5b810190808051906020019092919050505050565b6000806000601154601454601554925092509250909192565b60008060009054906101000a900473ffffffffffffffffffffffffffffffffffffffff16905090565b6000611584826001600086815260200190815260200160002060000161287490919063ffffffff16565b905092915050565b60006115b6826001600086815260200190815260200160002060000161288e90919063ffffffff16565b905092915050565b600960009054906101000a900473ffffffffffffffffffffffffffffffffffffffff1673ffffffffffffffffffffffffffffffffffffffff163373ffffffffffffffffffffffffffffffffffffffff1614611664576040517f08c379a00000000000000000000000000000000000000000000000000000000081526004018080602001828103825260228152602001806131b16022913960400191505060405180910390fd5b6001600281111561167157fe5b600860149054906101000a900460ff16600281111561168c57fe5b146116e2576040517f08c379a000000000000000000000000000000000000000000000000000000000815260040180806020018281038252602d81526020018061312f602d913960400191505060405180910390fd5b6116ed8383836128be565b505050565b7fdc601cd343c9e7d418b48b40f3a0ff8434a08eca1bd022ca70b09c036310b0aa81565b6000801b81565b60075481565b6000600f60003373ffffffffffffffffffffffffffffffffffffffff1673ffffffffffffffffffffffffffffffffffffffff16815260200190815260200160002080549050146117db576040517f08c379a000000000000000000000000000000000000000000000000000000000815260040180806020018281038252601d8152602001807f596f7520616c726561647920676f7420616464656420736f6d65686f7700000081525060200191505060405180910390fd5b600f60003373ffffffffffffffffffffffffffffffffffffffff1673ffffffffffffffffffffffffffffffffffffffff168152602001908152602001600020600090806001815401808255809150506001900390600052602060002090602091828204019190069091909190916101000a81548160ff021916908360ff1602179055506118a5601060003373ffffffffffffffffffffffffffffffffffffffff1673ffffffffffffffffffffffffffffffffffffffff168152602001908152602001600020612c41565b600e60003373ffffffffffffffffffffffffffffffffffffffff1673ffffffffffffffffffffffffffffffffffffffff168152602001908152602001600020600080815260200190815260200160002081905550611940601060003373ffffffffffffffffffffffffffffffffffffffff1673ffffffffffffffffffffffffffffffffffffffff168152602001908152602001600020612c4f565b565b600061196260016000848152602001908152602001600020600001612c65565b9050919050565b611990600160008481526020019081526020016000206002015461198b61273d565b61158c565b6119e5576040517f08c379a00000000000000000000000000000000000000000000000000000000081526004018080602001828103825260308152602001806130ff6030913960400191505060405180910390fd5b6119ef82826127d9565b5050565b60006002811115611a0057fe5b600860149054906101000a900460ff166002811115611a1b57fe5b14611a71576040517f08c379a00000000000000000000000000000000000000000000000000000000081526004018080602001828103825260258152602001806130da6025913960400191505060405180910390fd5b611a9b7fdc601cd343c9e7d418b48b40f3a0ff8434a08eca1bd022ca70b09c036310b0aa3361158c565b611b0d576040517f08c379a00000000000000000000000000000000000000000000000000000000081526004018080602001828103825260168152602001807f43616c6c6572206973206e6f74206120667269656e640000000000000000000081525060200191505060405180910390fd5b60003373ffffffffffffffffffffffffffffffffffffffff163111611b9a576040517f08c379a00000000000000000000000000000000000000000000000000000000081526004018080602001828103825260118152602001807f546869732073686f756c6420776f726b3f00000000000000000000000000000081525060200191505060405180910390fd5b6011543373ffffffffffffffffffffffffffffffffffffffff16311015611c0c576040517f08c379a000000000000000000000000000000000000000000000000000000000815260040180806020018281038252603381526020018061315c6033913960400191505060405180910390fd5b600860009054906101000a900473ffffffffffffffffffffffffffffffffffffffff1673ffffffffffffffffffffffffffffffffffffffff1663f340fa0134600260009054906101000a900473ffffffffffffffffffffffffffffffffffffffff166040518363ffffffff1660e01b8152600401808273ffffffffffffffffffffffffffffffffffffffff1681526020019150506000604051808303818588803b158015611cb957600080fd5b505af1158015611ccd573d6000803e3d6000fd5b50505050503373ffffffffffffffffffffffffffffffffffffffff167f2da466a7b24304f47e87fa2e1e5a81b9831ce54fec19055ce277ca2f39ba42c4346040518082815260200191505060405180910390a2565b6000600280811115611d3057fe5b600860149054906101000a900460ff166002811115611d4b57fe5b14905090565b600960009054906101000a900473ffffffffffffffffffffffffffffffffffffffff1673ffffffffffffffffffffffffffffffffffffffff163373ffffffffffffffffffffffffffffffffffffffff1614611e14576040517f08c379a000000000000000000000000000000000000000000000000000000000815260040180806020018281038252601c8152602001807f596f7520617265206e6f742074686520537472617661436c69656e740000000081525060200191505060405180910390fd5b50565b611e1f61273d565b73ffffffffffffffffffffffffffffffffffffffff16611e3d611531565b73ffffffffffffffffffffffffffffffffffffffff1614611ec6576040517f08c379a00000000000000000000000000000000000000000000000000000000081526004018080602001828103825260208152602001807f4f776e61626c653a2063616c6c6572206973206e6f7420746865206f776e657281525060200191505060405180910390fd5b600073ffffffffffffffffffffffffffffffffffffffff168173ffffffffffffffffffffffffffffffffffffffff161415611f4c576040517f08c379a00000000000000000000000000000000000000000000000000000000081526004018080602001828103825260268152602001806130b46026913960400191505060405180910390fd5b8073ffffffffffffffffffffffffffffffffffffffff1660008054906101000a900473ffffffffffffffffffffffffffffffffffffffff1673ffffffffffffffffffffffffffffffffffffffff167f8be0079c531659141344cd1fd0a4f28419497f9722a3daafe3b4186f6b6457e060405160405180910390a3806000806101000a81548173ffffffffffffffffffffffffffffffffffffffff021916908373ffffffffffffffffffffffffffffffffffffffff16021790555050565b600360009054906101000a900473ffffffffffffffffffffffffffffffffffffffff1681565b6120597fffea912cee438c2ace68bb665a205db5afc1aaf31713688b377348fe4bfc04f53361158c565b6120cb576040517f08c379a00000000000000000000000000000000000000000000000000000000081526004018080602001828103825260148152602001807f596f75206d7573742062652074686520686f737400000000000000000000000081525060200191505060405180910390fd5b600b60009054906101000a900473ffffffffffffffffffffffffffffffffffffffff1673ffffffffffffffffffffffffffffffffffffffff1663af1dd382306014546040518363ffffffff1660e01b8152600401808373ffffffffffffffffffffffffffffffffffffffff16815260200182815260200192505050600060405180830381600087803b15801561216057600080fd5b505af1158015612174573d6000803e3d6000fd5b505050506001600860146101000a81548160ff0219169083600281111561219757fe5b0217905550426013819055506121af42601454612c7a565b601260000181905550565b60008060003384600360009054906101000a900473ffffffffffffffffffffffffffffffffffffffff169250925092509193909250565b600460003373ffffffffffffffffffffffffffffffffffffffff1673ffffffffffffffffffffffffffffffffffffffff16815260200190815260200160002060009054906101000a900460ff16156122b1576040517f08c379a000000000000000000000000000000000000000000000000000000000815260040180806020018281038252601a8152602001807f5061727469636970616e7420616c72656164792061646465642100000000000081525060200191505060405180910390fd5b600060028111156122be57fe5b600860149054906101000a900460ff1660028111156122d957fe5b1461232f576040517f08c379a000000000000000000000000000000000000000000000000000000000815260040180806020018281038252602281526020018061318f6022913960400191505060405180910390fd5b8173ffffffffffffffffffffffffffffffffffffffff16600360009054906101000a900473ffffffffffffffffffffffffffffffffffffffff1673ffffffffffffffffffffffffffffffffffffffff1614801561242c575061242b60068054600181600116156101000203166002900480601f0160208091040260200160405190810160405280929190818152602001828054600181600116156101000203166002900480156124205780601f106123f557610100808354040283529160200191612420565b820191906000526020600020905b81548152906001019060200180831161240357829003601f168201915b505050505082612d0d565b5b61249e576040517f08c379a00000000000000000000000000000000000000000000000000000000081526004018080602001828103825260148152602001807f496e76616c696420686f7374206f7220636f646500000000000000000000000081525060200191505060405180910390fd5b6001600460003373ffffffffffffffffffffffffffffffffffffffff1673ffffffffffffffffffffffffffffffffffffffff16815260200190815260200160002060006101000a81548160ff0219169083151502179055506005339080600181540180825580915050600190039060005260206000200160009091909190916101000a81548173ffffffffffffffffffffffffffffffffffffffff021916908373ffffffffffffffffffffffffffffffffffffffff1602179055506125837fdc601cd343c9e7d418b48b40f3a0ff8434a08eca1bd022ca70b09c036310b0aa33612dfc565b6011543373ffffffffffffffffffffffffffffffffffffffff163110156125f5576040517f08c379a000000000000000000000000000000000000000000000000000000000815260040180806020018281038252603381526020018061315c6033913960400191505060405180910390fd5b600860009054906101000a900473ffffffffffffffffffffffffffffffffffffffff1673ffffffffffffffffffffffffffffffffffffffff1663f340fa0134600260009054906101000a900473ffffffffffffffffffffffffffffffffffffffff166040518363ffffffff1660e01b8152600401808273ffffffffffffffffffffffffffffffffffffffff1681526020019150506000604051808303818588803b1580156126a257600080fd5b505af11580156126b6573d6000803e3d6000fd5b50505050503373ffffffffffffffffffffffffffffffffffffffff167f2da466a7b24304f47e87fa2e1e5a81b9831ce54fec19055ce277ca2f39ba42c4346040518082815260200191505060405180910390a25050565b6000612735836000018373ffffffffffffffffffffffffffffffffffffffff1660001b612e0a565b905092915050565b600033905090565b61276d816001600085815260200190815260200160002060000161270d90919063ffffffff16565b156127d55761277a61273d565b73ffffffffffffffffffffffffffffffffffffffff168173ffffffffffffffffffffffffffffffffffffffff16837f2f8788117e7eff1d82e926ec794901d17c78024a50270940304540a733656f0d60405160405180910390a45b5050565b6128018160016000858152602001908152602001600020600001612e7a90919063ffffffff16565b156128695761280e61273d565b73ffffffffffffffffffffffffffffffffffffffff168173ffffffffffffffffffffffffffffffffffffffff16837ff6391f5c32d9c69d2a47ea670b442974b53935d1edc7fd64eb21e047a839171b60405160405180910390a45b5050565b600090565b565b60006128838360000183612eaa565b60001c905092915050565b60006128b6836000018373ffffffffffffffffffffffffffffffffffffffff1660001b612f2d565b905092915050565b6000612907601060008673ffffffffffffffffffffffffffffffffffffffff1673ffffffffffffffffffffffffffffffffffffffff168152602001908152602001600020612c41565b1161297a576040517f08c379a00000000000000000000000000000000000000000000000000000000081526004018080602001828103825260208152602001807f596f752077657265206e6f7420696e697469616c697a656420736f6d65686f7781525060200191505060405180910390fd5b600082116129f0576040517f08c379a00000000000000000000000000000000000000000000000000000000081526004018080602001828103825260188152602001807f43616e277420757365207a65726f2074696d657374616d70000000000000000081525060200191505060405180910390fd5b60006129fb83612f50565b90506000600e60008673ffffffffffffffffffffffffffffffffffffffff1673ffffffffffffffffffffffffffffffffffffffff16815260200190815260200160002060008381526020019081526020016000205490506000811115612ad55782600f60008773ffffffffffffffffffffffffffffffffffffffff1673ffffffffffffffffffffffffffffffffffffffff1681526020019081526020016000208281548110612aa657fe5b90600052602060002090602091828204019190066101000a81548160ff021916908360ff160217905550612c3a565b600f60008673ffffffffffffffffffffffffffffffffffffffff1673ffffffffffffffffffffffffffffffffffffffff1681526020019081526020016000208390806001815401808255809150506001900390600052602060002090602091828204019190069091909190916101000a81548160ff021916908360ff160217905550612b9e601060008773ffffffffffffffffffffffffffffffffffffffff1673ffffffffffffffffffffffffffffffffffffffff168152602001908152602001600020612c41565b600e60008773ffffffffffffffffffffffffffffffffffffffff1673ffffffffffffffffffffffffffffffffffffffff168152602001908152602001600020600084815260200190815260200160002081905550612c39601060008773ffffffffffffffffffffffffffffffffffffffff1673ffffffffffffffffffffffffffffffffffffffff168152602001908152602001600020612c4f565b5b5050505050565b600081600001549050919050565b6001816000016000828254019250508190555050565b6000612c7382600001612f69565b9050919050565b6000828211612cf1576040517f08c379a00000000000000000000000000000000000000000000000000000000081526004018080602001828103825260138152602001807f456e64206973206265666f72652073746172740000000000000000000000000081525060200191505060405180910390fd5b60008383039050600d548181612d0357fe5b0491505092915050565b6000816040516020018082805190602001908083835b60208310612d465780518252602082019150602081019050602083039250612d23565b6001836020036101000a03801982511681845116808217855250505050505090500191505060405160208183030381529060405280519060200120836040516020018082805190602001908083835b60208310612db85780518252602082019150602081019050602083039250612d95565b6001836020036101000a0380198251168184511680821785525050505050509050019150506040516020818303038152906040528051906020012014905092915050565b612e068282612745565b5050565b6000612e168383612f2d565b612e6f578260000182908060018154018082558091505060019003906000526020600020016000909190919091505582600001805490508360010160008481526020019081526020016000208190555060019050612e74565b600090505b92915050565b6000612ea2836000018373ffffffffffffffffffffffffffffffffffffffff1660001b612f7a565b905092915050565b600081836000018054905011612f0b576040517f08c379a00000000000000000000000000000000000000000000000000000000081526004018080602001828103825260228152602001806130636022913960400191505060405180910390fd5b826000018281548110612f1a57fe5b9060005260206000200154905092915050565b600080836001016000848152602001908152602001600020541415905092915050565b6000600d54600d548381612f6057fe5b04029050919050565b600081600001805490509050919050565b600080836001016000848152602001908152602001600020549050600081146130565760006001820390506000600186600001805490500390506000866000018281548110612fc557fe5b9060005260206000200154905080876000018481548110612fe257fe5b906000526020600020018190555060018301876001016000838152602001908152602001600020819055508660000180548061301a57fe5b6001900381819060005260206000200160009055905586600101600087815260200190815260200160002060009055600194505050505061305c565b60009150505b9291505056fe456e756d657261626c655365743a20696e646578206f7574206f6620626f756e6473416363657373436f6e74726f6c3a2073656e646572206d75737420626520616e2061646d696e20746f206772616e744f776e61626c653a206e6577206f776e657220697320746865207a65726f206164647265737350616374206973206e6f7420616c6c6f77696e6720616e796d6f726520706c656467657321416363657373436f6e74726f6c3a2073656e646572206d75737420626520616e2061646d696e20746f207265766f6b6550616374206d757374206265207374617274656420666f7220616e792070726f67726573732075706461746573596f75206e65656420746f20706c65646765206120626974206d6f726520746f2062652062657474657220746f676574686572596f752063616e27742061646420616e796d6f7265207061727469636970616e74734e6f742074686520726967687420537472617661436c69656e742041646472657373416363657373436f6e74726f6c3a2063616e206f6e6c792072656e6f756e636520726f6c657320666f722073656c66a26469706673582212201be27bb52da4b653c1e6efe1b4eea0f482d2d16746f9d651834dd0a9cb2fddd064736f6c634300060c0033608060405234801561001057600080fd5b506040516114f43803806114f48339818101604052602081101561003357600080fd5b810190808051906020019092919050505060006100546101e360201b60201c565b9050806000806101000a81548173ffffffffffffffffffffffffffffffffffffffff021916908373ffffffffffffffffffffffffffffffffffffffff1602179055508073ffffffffffffffffffffffffffffffffffffffff16600073ffffffffffffffffffffffffffffffffffffffff167f8be0079c531659141344cd1fd0a4f28419497f9722a3daafe3b4186f6b6457e060405160405180910390a350600073ffffffffffffffffffffffffffffffffffffffff168173ffffffffffffffffffffffffffffffffffffffff161415610178576040517f08c379a000000000000000000000000000000000000000000000000000000000815260040180806020018281038252602d8152602001806114c7602d913960400191505060405180910390fd5b80600260016101000a81548173ffffffffffffffffffffffffffffffffffffffff021916908373ffffffffffffffffffffffffffffffffffffffff1602179055506000600260006101000a81548160ff021916908360028111156101d857fe5b0217905550506101eb565b600033905090565b6112cd806101fa6000396000f3fe6080604052600436106100a75760003560e01c80638da5cb5b116100645780638da5cb5b146101ea5780639af6549a1461022b578063c19d93fb14610242578063e3a9db1a14610278578063f2fde38b146102dd578063f340fa011461032e576100a7565b806338af3eed146100ac57806343d726d6146100ed57806351cff8d914610104578063685ca19414610155578063715018a6146101bc5780638c52dc41146101d3575b600080fd5b3480156100b857600080fd5b506100c1610372565b604051808273ffffffffffffffffffffffffffffffffffffffff16815260200191505060405180910390f35b3480156100f957600080fd5b5061010261039c565b005b34801561011057600080fd5b506101536004803603602081101561012757600080fd5b81019080803573ffffffffffffffffffffffffffffffffffffffff169060200190929190505050610512565b005b34801561016157600080fd5b506101a46004803603602081101561017857600080fd5b81019080803573ffffffffffffffffffffffffffffffffffffffff16906020019092919050505061057c565b60405180821515815260200191505060405180910390f35b3480156101c857600080fd5b506101d16105a6565b005b3480156101df57600080fd5b506101e8610713565b005b3480156101f657600080fd5b506101ff61088a565b604051808273ffffffffffffffffffffffffffffffffffffffff16815260200191505060405180910390f35b34801561023757600080fd5b506102406108b3565b005b34801561024e57600080fd5b5061025761095a565b6040518082600281111561026757fe5b815260200191505060405180910390f35b34801561028457600080fd5b506102c76004803603602081101561029b57600080fd5b81019080803573ffffffffffffffffffffffffffffffffffffffff169060200190929190505050610971565b6040518082815260200191505060405180910390f35b3480156102e957600080fd5b5061032c6004803603602081101561030057600080fd5b81019080803573ffffffffffffffffffffffffffffffffffffffff1690602001909291905050506109ba565b005b6103706004803603602081101561034457600080fd5b81019080803573ffffffffffffffffffffffffffffffffffffffff169060200190929190505050610bac565b005b6000600260019054906101000a900473ffffffffffffffffffffffffffffffffffffffff16905090565b6103a4610c2e565b73ffffffffffffffffffffffffffffffffffffffff166103c261088a565b73ffffffffffffffffffffffffffffffffffffffff161461044b576040517f08c379a00000000000000000000000000000000000000000000000000000000081526004018080602001828103825260208152602001807f4f776e61626c653a2063616c6c6572206973206e6f7420746865206f776e657281525060200191505060405180910390fd5b6000600281111561045857fe5b61046061095a565b600281111561046b57fe5b146104c1576040517f08c379a000000000000000000000000000000000000000000000000000000000815260040180806020018281038252602981526020018061123d6029913960400191505060405180910390fd5b60028060006101000a81548160ff021916908360028111156104df57fe5b02179055507f088672c3a6e342f7cd94a65ba63b79df24a8973927b4d05d803c44bbf787d12f60405160405180910390a1565b61051b8161057c565b610570576040517f08c379a000000000000000000000000000000000000000000000000000000000815260040180806020018281038252603381526020018061120a6033913960400191505060405180910390fd5b61057981610c36565b50565b60006001600281111561058b57fe5b61059361095a565b600281111561059e57fe5b149050919050565b6105ae610c2e565b73ffffffffffffffffffffffffffffffffffffffff166105cc61088a565b73ffffffffffffffffffffffffffffffffffffffff1614610655576040517f08c379a00000000000000000000000000000000000000000000000000000000081526004018080602001828103825260208152602001807f4f776e61626c653a2063616c6c6572206973206e6f7420746865206f776e657281525060200191505060405180910390fd5b600073ffffffffffffffffffffffffffffffffffffffff1660008054906101000a900473ffffffffffffffffffffffffffffffffffffffff1673ffffffffffffffffffffffffffffffffffffffff167f8be0079c531659141344cd1fd0a4f28419497f9722a3daafe3b4186f6b6457e060405160405180910390a360008060006101000a81548173ffffffffffffffffffffffffffffffffffffffff021916908373ffffffffffffffffffffffffffffffffffffffff160217905550565b61071b610c2e565b73ffffffffffffffffffffffffffffffffffffffff1661073961088a565b73ffffffffffffffffffffffffffffffffffffffff16146107c2576040517f08c379a00000000000000000000000000000000000000000000000000000000081526004018080602001828103825260208152602001807f4f776e61626c653a2063616c6c6572206973206e6f7420746865206f776e657281525060200191505060405180910390fd5b600060028111156107cf57fe5b6107d761095a565b60028111156107e257fe5b14610838576040517f08c379a00000000000000000000000000000000000000000000000000000000081526004018080602001828103825260328152602001806112666032913960400191505060405180910390fd5b6001600260006101000a81548160ff0219169083600281111561085757fe5b02179055507f599d8e5a83cffb867d051598c4d70e805d59802d8081c1c7d6dffc5b6aca2b8960405160405180910390a1565b60008060009054906101000a900473ffffffffffffffffffffffffffffffffffffffff16905090565b6002808111156108bf57fe5b6108c761095a565b60028111156108d257fe5b14610928576040517f08c379a00000000000000000000000000000000000000000000000000000000081526004018080602001828103825260388152602001806111476038913960400191505060405180910390fd5b61095847610934610372565b73ffffffffffffffffffffffffffffffffffffffff16610de990919063ffffffff16565b565b6000600260009054906101000a900460ff16905090565b6000600160008373ffffffffffffffffffffffffffffffffffffffff1673ffffffffffffffffffffffffffffffffffffffff168152602001908152602001600020549050919050565b6109c2610c2e565b73ffffffffffffffffffffffffffffffffffffffff166109e061088a565b73ffffffffffffffffffffffffffffffffffffffff1614610a69576040517f08c379a00000000000000000000000000000000000000000000000000000000081526004018080602001828103825260208152602001807f4f776e61626c653a2063616c6c6572206973206e6f7420746865206f776e657281525060200191505060405180910390fd5b600073ffffffffffffffffffffffffffffffffffffffff168173ffffffffffffffffffffffffffffffffffffffff161415610aef576040517f08c379a000000000000000000000000000000000000000000000000000000000815260040180806020018281038252602681526020018061117f6026913960400191505060405180910390fd5b8073ffffffffffffffffffffffffffffffffffffffff1660008054906101000a900473ffffffffffffffffffffffffffffffffffffffff1673ffffffffffffffffffffffffffffffffffffffff167f8be0079c531659141344cd1fd0a4f28419497f9722a3daafe3b4186f6b6457e060405160405180910390a3806000806101000a81548173ffffffffffffffffffffffffffffffffffffffff021916908373ffffffffffffffffffffffffffffffffffffffff16021790555050565b60006002811115610bb957fe5b610bc161095a565b6002811115610bcc57fe5b14610c22576040517f08c379a000000000000000000000000000000000000000000000000000000000815260040180806020018281038252602b8152602001806111df602b913960400191505060405180910390fd5b610c2b81610f23565b50565b600033905090565b610c3e610c2e565b73ffffffffffffffffffffffffffffffffffffffff16610c5c61088a565b73ffffffffffffffffffffffffffffffffffffffff1614610ce5576040517f08c379a00000000000000000000000000000000000000000000000000000000081526004018080602001828103825260208152602001807f4f776e61626c653a2063616c6c6572206973206e6f7420746865206f776e657281525060200191505060405180910390fd5b6000600160008373ffffffffffffffffffffffffffffffffffffffff1673ffffffffffffffffffffffffffffffffffffffff1681526020019081526020016000205490506000600160008473ffffffffffffffffffffffffffffffffffffffff1673ffffffffffffffffffffffffffffffffffffffff16815260200190815260200160002081905550610d97818373ffffffffffffffffffffffffffffffffffffffff16610de990919063ffffffff16565b8173ffffffffffffffffffffffffffffffffffffffff167f7084f5476618d8e60b11ef0d7d3f06914655adb8793e28ff7f018d4c76d505d5826040518082815260200191505060405180910390a25050565b80471015610e5f576040517f08c379a000000000000000000000000000000000000000000000000000000000815260040180806020018281038252601d8152602001807f416464726573733a20696e73756666696369656e742062616c616e636500000081525060200191505060405180910390fd5b60008273ffffffffffffffffffffffffffffffffffffffff168260405180600001905060006040518083038185875af1925050503d8060008114610ebf576040519150601f19603f3d011682016040523d82523d6000602084013e610ec4565b606091505b5050905080610f1e576040517f08c379a000000000000000000000000000000000000000000000000000000000815260040180806020018281038252603a8152602001806111a5603a913960400191505060405180910390fd5b505050565b610f2b610c2e565b73ffffffffffffffffffffffffffffffffffffffff16610f4961088a565b73ffffffffffffffffffffffffffffffffffffffff1614610fd2576040517f08c379a00000000000000000000000000000000000000000000000000000000081526004018080602001828103825260208152602001807f4f776e61626c653a2063616c6c6572206973206e6f7420746865206f776e657281525060200191505060405180910390fd5b600034905061102981600160008573ffffffffffffffffffffffffffffffffffffffff1673ffffffffffffffffffffffffffffffffffffffff168152602001908152602001600020546110be90919063ffffffff16565b600160008473ffffffffffffffffffffffffffffffffffffffff1673ffffffffffffffffffffffffffffffffffffffff168152602001908152602001600020819055508173ffffffffffffffffffffffffffffffffffffffff167f2da466a7b24304f47e87fa2e1e5a81b9831ce54fec19055ce277ca2f39ba42c4826040518082815260200191505060405180910390a25050565b60008082840190508381101561113c576040517f08c379a000000000000000000000000000000000000000000000000000000000815260040180806020018281038252601b8152602001807f536166654d6174683a206164646974696f6e206f766572666c6f77000000000081525060200191505060405180910390fd5b809150509291505056fe526566756e64457363726f773a2062656e65666963696172792063616e206f6e6c79207769746864726177207768696c6520636c6f7365644f776e61626c653a206e6577206f776e657220697320746865207a65726f2061646472657373416464726573733a20756e61626c6520746f2073656e642076616c75652c20726563697069656e74206d61792068617665207265766572746564526566756e64457363726f773a2063616e206f6e6c79206465706f736974207768696c6520616374697665436f6e646974696f6e616c457363726f773a207061796565206973206e6f7420616c6c6f77656420746f207769746864726177526566756e64457363726f773a2063616e206f6e6c7920636c6f7365207768696c6520616374697665526566756e64457363726f773a2063616e206f6e6c7920656e61626c6520726566756e6473207768696c6520616374697665a2646970667358221220bf8700275dc5e725c3e43256fb1c37381fedac8c3aa16d9bc61800fc5a109eb064736f6c634300060c0033526566756e64457363726f773a2062656e656669636961727920697320746865207a65726f2061646472657373",
  "linkReferences": {},
  "deployedLinkReferences": {}
}