{
  "_format": "hh-sol-artifact-1",
  "contractName": "What",
  "sourceName": "contracts/What.sol",
  "abi": [
    {
      "inputs": [
        {
          "internalType": "bytes32",
          "name": "_bytes32",
          "type": "bytes32"
        }
      ],
      "name": "bytes32ToString",
      "outputs": [
        {
          "internalType": "string",
          "name": "",
          "type": "string"
        }
      ],
      "stateMutability": "pure",
      "type": "function"
    },
    {
      "inputs": [],
      "name": "getInviteCode",
      "outputs": [
        {
          "internalType": "bytes2",
          "name": "",
          "type": "bytes2"
        }
      ],
      "stateMutability": "view",
      "type": "function"
    }
  ],
  "bytecode": "0x608060405234801561001057600080fd5b5061031d806100206000396000f3fe608060405234801561001057600080fd5b50600436106100365760003560e01c80637a0585221461003b5780639201de551461007a575b600080fd5b610043610121565b60405180827dffffffffffffffffffffffffffffffffffffffffffffffffffffffffffff1916815260200191505060405180910390f35b6100a66004803603602081101561009057600080fd5b8101908080359060200190929190505050610176565b6040518080602001828103825283818151815260200191508051906020019080838360005b838110156100e65780820151818401526020810190506100cb565b50505050905090810190601f1680156101135780820380516001836020036101000a031916815260200191505b509250505060405180910390f35b600080600190503381604051602001808373ffffffffffffffffffffffffffffffffffffffff1660601b8152601401828152602001925050506040516020818303038152906040528051906020012091505090565b606060005b60208160ff161080156101c65750600060f81b838260ff166020811061019d57fe5b1a60f81b7effffffffffffffffffffffffffffffffffffffffffffffffffffffffffffff191614155b156101d857808060010191505061017b565b60608160ff1667ffffffffffffffff811180156101f457600080fd5b506040519080825280601f01601f1916602001820160405280156102275781602001600182028036833780820191505090505b509050600091505b60208260ff1610801561027a5750600060f81b848360ff166020811061025157fe5b1a60f81b7effffffffffffffffffffffffffffffffffffffffffffffffffffffffffffff191614155b156102dd57838260ff166020811061028e57fe5b1a60f81b818360ff16815181106102a157fe5b60200101907effffffffffffffffffffffffffffffffffffffffffffffffffffffffffffff1916908160001a905350818060010192505061022f565b809250505091905056fea264697066735822122042d1bdcbfcfa6e5113fbcff3a3c01aef294d311b6dc4d503303c9213d0ddbbfb64736f6c634300060c0033",
  "linkReferences": {},
  "deployedLinkReferences": {}
}