{
  "_format": "hh-sol-artifact-1",
  "contractName": "StravaClient",
  "sourceName": "contracts/stravaClient/StravaClient.sol",
  "abi": [
    {
      "inputs": [
        {
          "internalType": "address",
          "name": "_link",
          "type": "address"
        },
        {
          "internalType": "address",
          "name": "_oracle",
          "type": "address"
        }
      ],
      "stateMutability": "nonpayable",
      "type": "constructor"
    },
    {
      "anonymous": false,
      "inputs": [
        {
          "indexed": true,
          "internalType": "bytes32",
          "name": "id",
          "type": "bytes32"
        }
      ],
      "name": "ChainlinkCancelled",
      "type": "event"
    },
    {
      "anonymous": false,
      "inputs": [
        {
          "indexed": true,
          "internalType": "bytes32",
          "name": "id",
          "type": "bytes32"
        }
      ],
      "name": "ChainlinkFulfilled",
      "type": "event"
    },
    {
      "anonymous": false,
      "inputs": [
        {
          "indexed": true,
          "internalType": "bytes32",
          "name": "id",
          "type": "bytes32"
        }
      ],
      "name": "ChainlinkRequested",
      "type": "event"
    },
    {
      "anonymous": false,
      "inputs": [
        {
          "indexed": true,
          "internalType": "address",
          "name": "previousOwner",
          "type": "address"
        },
        {
          "indexed": true,
          "internalType": "address",
          "name": "newOwner",
          "type": "address"
        }
      ],
      "name": "OwnershipTransferred",
      "type": "event"
    },
    {
      "inputs": [
        {
          "internalType": "address",
          "name": "_address",
          "type": "address"
        }
      ],
      "name": "addressToString",
      "outputs": [
        {
          "internalType": "string",
          "name": "_uintAsString",
          "type": "string"
        }
      ],
      "stateMutability": "pure",
      "type": "function"
    },
    {
      "inputs": [
        {
          "internalType": "bytes32",
          "name": "requestId",
          "type": "bytes32"
        },
        {
          "internalType": "uint256",
          "name": "distance",
          "type": "uint256"
        }
      ],
      "name": "fulfill",
      "outputs": [],
      "stateMutability": "nonpayable",
      "type": "function"
    },
    {
      "inputs": [],
      "name": "owner",
      "outputs": [
        {
          "internalType": "address",
          "name": "",
          "type": "address"
        }
      ],
      "stateMutability": "view",
      "type": "function"
    },
    {
      "inputs": [],
      "name": "renounceOwnership",
      "outputs": [],
      "stateMutability": "nonpayable",
      "type": "function"
    },
    {
      "inputs": [
        {
          "internalType": "address",
          "name": "user",
          "type": "address"
        },
        {
          "internalType": "uint256",
          "name": "timestamp",
          "type": "uint256"
        }
      ],
      "name": "requestStravaData",
      "outputs": [
        {
          "internalType": "bytes32",
          "name": "requestId",
          "type": "bytes32"
        }
      ],
      "stateMutability": "nonpayable",
      "type": "function"
    },
    {
      "inputs": [
        {
          "internalType": "address",
          "name": "newOwner",
          "type": "address"
        }
      ],
      "name": "transferOwnership",
      "outputs": [],
      "stateMutability": "nonpayable",
      "type": "function"
    }
  ],
  "bytecode": "0x6080604052600160055534801561001557600080fd5b506040516114433803806114438339818101604052604081101561003857600080fd5b810190808051906020019092919080519060200190929190505050600061006361018e60201b60201c565b9050806000806101000a81548173ffffffffffffffffffffffffffffffffffffffff021916908373ffffffffffffffffffffffffffffffffffffffff1602179055508073ffffffffffffffffffffffffffffffffffffffff16600073ffffffffffffffffffffffffffffffffffffffff167f8be0079c531659141344cd1fd0a4f28419497f9722a3daafe3b4186f6b6457e060405160405180910390a3506101108261019660201b60201c565b80600760006101000a81548173ffffffffffffffffffffffffffffffffffffffff021916908373ffffffffffffffffffffffffffffffffffffffff1602179055507f343134613463633937386431343863336164643534613163306233353334633960088190555067016345785d8a000060098190555050506101da565b600033905090565b80600360006101000a81548173ffffffffffffffffffffffffffffffffffffffff021916908373ffffffffffffffffffffffffffffffffffffffff16021790555050565b61125a806101e96000396000f3fe608060405234801561001057600080fd5b50600436106100625760003560e01c80634357855e146100675780635e57966d1461009f578063715018a61461015c5780638da5cb5b14610166578063c79effff1461019a578063f2fde38b146101fc575b600080fd5b61009d6004803603604081101561007d57600080fd5b810190808035906020019092919080359060200190929190505050610240565b005b6100e1600480360360208110156100b557600080fd5b81019080803573ffffffffffffffffffffffffffffffffffffffff169060200190929190505050610244565b6040518080602001828103825283818151815260200191508051906020019080838360005b83811015610121578082015181840152602081019050610106565b50505050905090810190601f16801561014e5780820380516001836020036101000a031916815260200191505b509250505060405180910390f35b6101646103a5565b005b61016e610512565b604051808273ffffffffffffffffffffffffffffffffffffffff16815260200191505060405180910390f35b6101e6600480360360408110156101b057600080fd5b81019080803573ffffffffffffffffffffffffffffffffffffffff1690602001909291908035906020019092919050505061053b565b6040518082815260200191505060405180910390f35b61023e6004803603602081101561021257600080fd5b81019080803573ffffffffffffffffffffffffffffffffffffffff16906020019092919050505061062f565b005b5050565b606060008273ffffffffffffffffffffffffffffffffffffffff16905060008114156102a8576040518060400160405280600181526020017f30000000000000000000000000000000000000000000000000000000000000008152509150506103a0565b600081905060005b600082146102d2578080600101915050600a82816102ca57fe5b0491506102b0565b60608167ffffffffffffffff811180156102eb57600080fd5b506040519080825280601f01601f19166020018201604052801561031e5781602001600182028036833780820191505090505b50905060006001830390505b6000851461039757600a858161033c57fe5b0660300160f81b8282806001900393508151811061035657fe5b60200101907effffffffffffffffffffffffffffffffffffffffffffffffffffffffffffff1916908160001a905350600a858161038f57fe5b04945061032a565b81955050505050505b919050565b6103ad610821565b73ffffffffffffffffffffffffffffffffffffffff166103cb610512565b73ffffffffffffffffffffffffffffffffffffffff1614610454576040517f08c379a00000000000000000000000000000000000000000000000000000000081526004018080602001828103825260208152602001807f4f776e61626c653a2063616c6c6572206973206e6f7420746865206f776e657281525060200191505060405180910390fd5b600073ffffffffffffffffffffffffffffffffffffffff1660008054906101000a900473ffffffffffffffffffffffffffffffffffffffff1673ffffffffffffffffffffffffffffffffffffffff167f8be0079c531659141344cd1fd0a4f28419497f9722a3daafe3b4186f6b6457e060405160405180910390a360008060006101000a81548173ffffffffffffffffffffffffffffffffffffffff021916908373ffffffffffffffffffffffffffffffffffffffff160217905550565b60008060009054906101000a900473ffffffffffffffffffffffffffffffffffffffff16905090565b6000610545611154565b61055960085430634357855e60e01b610829565b90506105ad6040518060400160405280600481526020017f757365720000000000000000000000000000000000000000000000000000000081525061059d86610244565b8361085a9092919063ffffffff16565b6105f76040518060400160405280600981526020017f74696d657374616d700000000000000000000000000000000000000000000000815250848361088d9092919063ffffffff16565b610626600760009054906101000a900473ffffffffffffffffffffffffffffffffffffffff16826009546108c0565b91505092915050565b610637610821565b73ffffffffffffffffffffffffffffffffffffffff16610655610512565b73ffffffffffffffffffffffffffffffffffffffff16146106de576040517f08c379a00000000000000000000000000000000000000000000000000000000081526004018080602001828103825260208152602001807f4f776e61626c653a2063616c6c6572206973206e6f7420746865206f776e657281525060200191505060405180910390fd5b600073ffffffffffffffffffffffffffffffffffffffff168173ffffffffffffffffffffffffffffffffffffffff161415610764576040517f08c379a00000000000000000000000000000000000000000000000000000000081526004018080602001828103825260268152602001806111dc6026913960400191505060405180910390fd5b8073ffffffffffffffffffffffffffffffffffffffff1660008054906101000a900473ffffffffffffffffffffffffffffffffffffffff1673ffffffffffffffffffffffffffffffffffffffff167f8be0079c531659141344cd1fd0a4f28419497f9722a3daafe3b4186f6b6457e060405160405180910390a3806000806101000a81548173ffffffffffffffffffffffffffffffffffffffff021916908373ffffffffffffffffffffffffffffffffffffffff16021790555050565b600033905090565b610831611154565b610839611154565b61085085858584610b49909392919063ffffffff16565b9150509392505050565b610871828460800151610bf990919063ffffffff16565b610888818460800151610bf990919063ffffffff16565b505050565b6108a4828460800151610bf990919063ffffffff16565b6108bb818460800151610c1e90919063ffffffff16565b505050565b600030600554604051602001808373ffffffffffffffffffffffffffffffffffffffff1660601b815260140182815260200192505050604051602081830303815290604052805190602001209050600554836060018181525050836006600083815260200190815260200160002060006101000a81548173ffffffffffffffffffffffffffffffffffffffff021916908373ffffffffffffffffffffffffffffffffffffffff160217905550807fb5e6e01e79f91267dc17b4e6314d5d4d03593d2ceee0fbb452b750bd70ea5af960405160405180910390a2600360009054906101000a900473ffffffffffffffffffffffffffffffffffffffff1673ffffffffffffffffffffffffffffffffffffffff16634000aea085846109e287610c2e565b6040518463ffffffff1660e01b8152600401808473ffffffffffffffffffffffffffffffffffffffff16815260200183815260200180602001828103825283818151815260200191508051906020019080838360005b83811015610a53578082015181840152602081019050610a38565b50505050905090810190601f168015610a805780820380516001836020036101000a031916815260200191505b50945050505050602060405180830381600087803b158015610aa157600080fd5b505af1158015610ab5573d6000803e3d6000fd5b505050506040513d6020811015610acb57600080fd5b8101908080519060200190929190505050610b31576040517f08c379a00000000000000000000000000000000000000000000000000000000081526004018080602001828103825260238152602001806112026023913960400191505060405180910390fd5b60016005600082825401925050819055509392505050565b610b51611154565b610b618560800151610100610daf565b508385600001818152505082856020019073ffffffffffffffffffffffffffffffffffffffff16908173ffffffffffffffffffffffffffffffffffffffff16815250508185604001907bffffffffffffffffffffffffffffffffffffffffffffffffffffffff191690817bffffffffffffffffffffffffffffffffffffffffffffffffffffffff191681525050849050949350505050565b610c068260038351610e03565b610c198183610f4890919063ffffffff16565b505050565b610c2a82600083610e03565b5050565b6060634042994660e01b60008084600001518560200151866040015187606001516001896080015160000151604051602401808973ffffffffffffffffffffffffffffffffffffffff1681526020018881526020018781526020018673ffffffffffffffffffffffffffffffffffffffff168152602001857bffffffffffffffffffffffffffffffffffffffffffffffffffffffff1916815260200184815260200183815260200180602001828103825283818151815260200191508051906020019080838360005b83811015610d12578082015181840152602081019050610cf7565b50505050905090810190601f168015610d3f5780820380516001836020036101000a031916815260200191505b509950505050505050505050604051602081830303815290604052907bffffffffffffffffffffffffffffffffffffffffffffffffffffffff19166020820180517bffffffffffffffffffffffffffffffffffffffffffffffffffffffff83818316178352505050509050919050565b610db76111c1565b600060208381610dc357fe5b0614610ddc5760208281610dd357fe5b06602003820191505b81836020018181525050604051808452600081528281016020016040525082905092915050565b60178111610e3057610e2a8160058460ff16901b60ff161784610f6a90919063ffffffff16565b50610f43565b60ff8111610e7257610e55601860058460ff16901b1784610f6a90919063ffffffff16565b50610e6c81600185610f8a9092919063ffffffff16565b50610f42565b61ffff8111610eb557610e98601960058460ff16901b1784610f6a90919063ffffffff16565b50610eaf81600285610f8a9092919063ffffffff16565b50610f41565b63ffffffff8111610efa57610edd601a60058460ff16901b1784610f6a90919063ffffffff16565b50610ef481600485610f8a9092919063ffffffff16565b50610f40565b67ffffffffffffffff8111610f3f57610f26601b60058460ff16901b1784610f6a90919063ffffffff16565b50610f3d81600885610f8a9092919063ffffffff16565b505b5b5b5b5b505050565b610f506111c1565b610f6283846000015151848551610fac565b905092915050565b610f726111c1565b610f828384600001515184611065565b905092915050565b610f926111c1565b610fa38485600001515185856110b3565b90509392505050565b610fb46111c1565b8251821115610fc257600080fd5b84602001518285011115610fed57610fec856002610fe68860200151888701611114565b02611130565b5b60008086518051876020830101935080888701111561100c5787860182525b60208701925050505b602084106110385780518252602082019150602081019050602084039350611015565b60006001856020036101000a03905080198251168184511681811785525050879350505050949350505050565b61106d6111c1565b8360200151831061108a57611089846002866020015102611130565b5b83518051602085830101848153818614156110a6576001820183525b5050508390509392505050565b6110bb6111c1565b846020015184830111156110d9576110d885600286850102611130565b5b60006001836101000a03905085518386820101858319825116178152815185880111156111065784870182525b505085915050949350505050565b6000818311156111265782905061112a565b8190505b92915050565b6060826000015190506111438383610daf565b5061114e8382610f48565b50505050565b6040518060a0016040528060008019168152602001600073ffffffffffffffffffffffffffffffffffffffff16815260200160007bffffffffffffffffffffffffffffffffffffffffffffffffffffffff19168152602001600081526020016111bb6111c1565b81525090565b60405180604001604052806060815260200160008152509056fe4f776e61626c653a206e6577206f776e657220697320746865207a65726f2061646472657373756e61626c6520746f207472616e73666572416e6443616c6c20746f206f7261636c65a26469706673582212201a7ad8a75b707448b36415566c2efe4ae734705c6b64861a4dca5f4ce8bebe1064736f6c634300060c0033",
  "linkReferences": {},
  "deployedLinkReferences": {}
}